{
  "_format": "hh-sol-artifact-1",
  "contractName": "Crowdsale",
  "sourceName": "contracts/Crowdsale.sol",
  "abi": [
    {
      "inputs": [
        {
          "internalType": "contract DAPPToken",
          "name": "_dappToken",
          "type": "address"
        },
        {
          "internalType": "uint256",
          "name": "_price",
          "type": "uint256"
        },
        {
          "internalType": "uint256",
          "name": "_maxTokens",
          "type": "uint256"
        },
        {
          "internalType": "uint256",
          "name": "_startTime",
          "type": "uint256"
        },
        {
          "internalType": "uint256",
          "name": "_endTime",
          "type": "uint256"
        },
        {
          "internalType": "uint256",
          "name": "_minPurchase",
          "type": "uint256"
        },
        {
          "internalType": "uint256",
          "name": "_maxPurchase",
          "type": "uint256"
        }
      ],
      "stateMutability": "nonpayable",
      "type": "constructor"
    },
    {
      "anonymous": false,
      "inputs": [
        {
          "indexed": true,
          "internalType": "address",
          "name": "_addr",
          "type": "address"
        }
      ],
      "name": "AddressAdded",
      "type": "event"
    },
    {
      "anonymous": false,
      "inputs": [
        {
          "indexed": true,
          "internalType": "address",
          "name": "_addr",
          "type": "address"
        }
      ],
      "name": "AddressApproved",
      "type": "event"
    },
    {
      "anonymous": false,
      "inputs": [
        {
          "indexed": true,
          "internalType": "address",
          "name": "_addr",
          "type": "address"
        }
      ],
      "name": "AddressRejected",
      "type": "event"
    },
    {
      "anonymous": false,
      "inputs": [
        {
          "indexed": false,
          "internalType": "uint256",
          "name": "amount",
          "type": "uint256"
        },
        {
          "indexed": false,
          "internalType": "address",
          "name": "buyer",
          "type": "address"
        }
      ],
      "name": "Buy",
      "type": "event"
    },
    {
      "anonymous": false,
      "inputs": [
        {
          "indexed": false,
          "internalType": "uint256",
          "name": "amount",
          "type": "uint256"
        },
        {
          "indexed": false,
          "internalType": "uint256",
          "name": "value",
          "type": "uint256"
        }
      ],
      "name": "Finalize",
      "type": "event"
    },
    {
      "anonymous": false,
      "inputs": [
        {
          "indexed": true,
          "internalType": "address",
          "name": "_addr",
          "type": "address"
        },
        {
          "indexed": false,
          "internalType": "uint256",
          "name": "amount",
          "type": "uint256"
        }
      ],
      "name": "Refund",
      "type": "event"
    },
    {
      "inputs": [
        {
          "internalType": "address",
          "name": "_addr",
          "type": "address"
        }
      ],
      "name": "approveWhitelist",
      "outputs": [],
      "stateMutability": "nonpayable",
      "type": "function"
    },
    {
      "inputs": [
        {
          "internalType": "address[]",
          "name": "_addresses",
          "type": "address[]"
        }
      ],
      "name": "approveWhitelistToAll",
      "outputs": [],
      "stateMutability": "nonpayable",
      "type": "function"
    },
    {
      "inputs": [
        {
          "internalType": "uint256",
          "name": "_amount",
          "type": "uint256"
        }
      ],
      "name": "buyTokens",
      "outputs": [],
      "stateMutability": "payable",
      "type": "function"
    },
    {
      "inputs": [],
      "name": "dappToken",
      "outputs": [
        {
          "internalType": "contract DAPPToken",
          "name": "",
          "type": "address"
        }
      ],
      "stateMutability": "view",
      "type": "function"
    },
    {
      "inputs": [],
      "name": "disableRefund",
      "outputs": [],
      "stateMutability": "nonpayable",
      "type": "function"
    },
    {
      "inputs": [],
      "name": "enableRefund",
      "outputs": [],
      "stateMutability": "nonpayable",
      "type": "function"
    },
    {
      "inputs": [],
      "name": "endTime",
      "outputs": [
        {
          "internalType": "uint256",
          "name": "",
          "type": "uint256"
        }
      ],
      "stateMutability": "view",
      "type": "function"
    },
    {
      "inputs": [],
      "name": "finalize",
      "outputs": [],
      "stateMutability": "nonpayable",
      "type": "function"
    },
    {
      "inputs": [],
      "name": "getPendingStatusAddr",
      "outputs": [
        {
          "internalType": "address[]",
          "name": "",
          "type": "address[]"
        }
      ],
      "stateMutability": "view",
      "type": "function"
    },
    {
      "inputs": [
        {
          "internalType": "address",
          "name": "_addr",
          "type": "address"
        }
      ],
      "name": "getWhitelistStatus",
      "outputs": [
        {
          "internalType": "bool",
          "name": "",
          "type": "bool"
        }
      ],
      "stateMutability": "view",
      "type": "function"
    },
    {
      "inputs": [
        {
          "internalType": "address[]",
          "name": "_addresses",
          "type": "address[]"
        }
      ],
      "name": "getWhitelistStatusAll",
      "outputs": [
        {
          "internalType": "enum Crowdsale.WhitelistStatus[]",
          "name": "",
          "type": "uint8[]"
        }
      ],
      "stateMutability": "view",
      "type": "function"
    },
    {
      "inputs": [
        {
          "internalType": "address",
          "name": "",
          "type": "address"
        }
      ],
      "name": "isPendingWhitelist",
      "outputs": [
        {
          "internalType": "bool",
          "name": "",
          "type": "bool"
        }
      ],
      "stateMutability": "view",
      "type": "function"
    },
    {
      "inputs": [
        {
          "internalType": "address",
          "name": "",
          "type": "address"
        }
      ],
      "name": "isWhitelisted",
      "outputs": [
        {
          "internalType": "bool",
          "name": "",
          "type": "bool"
        }
      ],
      "stateMutability": "view",
      "type": "function"
    },
    {
      "inputs": [],
      "name": "maxPurchase",
      "outputs": [
        {
          "internalType": "uint256",
          "name": "",
          "type": "uint256"
        }
      ],
      "stateMutability": "view",
      "type": "function"
    },
    {
      "inputs": [],
      "name": "maxTokens",
      "outputs": [
        {
          "internalType": "uint256",
          "name": "",
          "type": "uint256"
        }
      ],
      "stateMutability": "view",
      "type": "function"
    },
    {
      "inputs": [],
      "name": "minPurchase",
      "outputs": [
        {
          "internalType": "uint256",
          "name": "",
          "type": "uint256"
        }
      ],
      "stateMutability": "view",
      "type": "function"
    },
    {
      "inputs": [],
      "name": "owner",
      "outputs": [
        {
          "internalType": "address payable",
          "name": "",
          "type": "address"
        }
      ],
      "stateMutability": "view",
      "type": "function"
    },
    {
      "inputs": [],
      "name": "price",
      "outputs": [
        {
          "internalType": "uint256",
          "name": "",
          "type": "uint256"
        }
      ],
      "stateMutability": "view",
      "type": "function"
    },
    {
      "inputs": [
        {
          "internalType": "address",
          "name": "",
          "type": "address"
        }
      ],
      "name": "purchaseAmount",
      "outputs": [
        {
          "internalType": "uint256",
          "name": "",
          "type": "uint256"
        }
      ],
      "stateMutability": "view",
      "type": "function"
    },
    {
      "inputs": [],
      "name": "refundCampaign",
      "outputs": [],
      "stateMutability": "nonpayable",
      "type": "function"
    },
    {
      "inputs": [
        {
          "internalType": "address",
          "name": "_addr",
          "type": "address"
        }
      ],
      "name": "rejectWhitelist",
      "outputs": [],
      "stateMutability": "nonpayable",
      "type": "function"
    },
    {
      "inputs": [
        {
          "internalType": "address[]",
          "name": "_addresses",
          "type": "address[]"
        }
      ],
      "name": "rejectWhitelistToAll",
      "outputs": [],
      "stateMutability": "nonpayable",
      "type": "function"
    },
    {
      "inputs": [
        {
          "internalType": "address",
          "name": "_addr",
          "type": "address"
        }
      ],
      "name": "removeAddressFromWhiteList",
      "outputs": [],
      "stateMutability": "nonpayable",
      "type": "function"
    },
    {
      "inputs": [],
      "name": "requestWhitelist",
      "outputs": [],
      "stateMutability": "nonpayable",
      "type": "function"
    },
    {
      "inputs": [
        {
          "internalType": "uint256",
          "name": "",
          "type": "uint256"
        }
      ],
      "name": "requestors",
      "outputs": [
        {
          "internalType": "address",
          "name": "",
          "type": "address"
        }
      ],
      "stateMutability": "view",
      "type": "function"
    },
    {
      "inputs": [
        {
          "internalType": "uint256",
          "name": "_startTime",
          "type": "uint256"
        },
        {
          "internalType": "uint256",
          "name": "_endTime",
          "type": "uint256"
        }
      ],
      "name": "restartCampaign",
      "outputs": [],
      "stateMutability": "nonpayable",
      "type": "function"
    },
    {
      "inputs": [
        {
          "internalType": "uint256",
          "name": "_minPurchase",
          "type": "uint256"
        },
        {
          "internalType": "uint256",
          "name": "_maxPurchase",
          "type": "uint256"
        }
      ],
      "name": "setContribution",
      "outputs": [],
      "stateMutability": "nonpayable",
      "type": "function"
    },
    {
      "inputs": [
        {
          "internalType": "uint256",
          "name": "_price",
          "type": "uint256"
        }
      ],
      "name": "setPrice",
      "outputs": [],
      "stateMutability": "nonpayable",
      "type": "function"
    },
    {
      "inputs": [
        {
          "internalType": "bool",
          "name": "_status",
          "type": "bool"
        }
      ],
      "name": "setRefundStatus",
      "outputs": [],
      "stateMutability": "nonpayable",
      "type": "function"
    },
    {
      "inputs": [],
      "name": "startTime",
      "outputs": [
        {
          "internalType": "uint256",
          "name": "",
          "type": "uint256"
        }
      ],
      "stateMutability": "view",
      "type": "function"
    },
    {
      "inputs": [],
      "name": "tokensSold",
      "outputs": [
        {
          "internalType": "uint256",
          "name": "",
          "type": "uint256"
        }
      ],
      "stateMutability": "view",
      "type": "function"
    },
    {
      "inputs": [
        {
          "internalType": "address",
          "name": "_addr",
          "type": "address"
        }
      ],
      "name": "whitelistAddress",
      "outputs": [],
      "stateMutability": "nonpayable",
      "type": "function"
    },
    {
      "inputs": [
        {
          "internalType": "address",
          "name": "",
          "type": "address"
        }
      ],
      "name": "whitelistStatus",
      "outputs": [
        {
          "internalType": "enum Crowdsale.WhitelistStatus",
          "name": "",
          "type": "uint8"
        }
      ],
      "stateMutability": "view",
      "type": "function"
    },
    {
      "inputs": [],
      "name": "withdrawBalance",
      "outputs": [],
      "stateMutability": "nonpayable",
      "type": "function"
    },
    {
      "stateMutability": "payable",
      "type": "receive"
    }
  ],
  "bytecode": "0x60806040523480156200001157600080fd5b5060405162003eb338038062003eb38339818101604052810190620000379190620001a8565b336000806101000a81548173ffffffffffffffffffffffffffffffffffffffff021916908373ffffffffffffffffffffffffffffffffffffffff16021790555086600160006101000a81548173ffffffffffffffffffffffffffffffffffffffff021916908373ffffffffffffffffffffffffffffffffffffffff160217905550856002819055508460038190555083600581905550826006819055508160078190555080600881905550505050505050506200025b565b600080fd5b600073ffffffffffffffffffffffffffffffffffffffff82169050919050565b60006200012182620000f4565b9050919050565b6000620001358262000114565b9050919050565b620001478162000128565b81146200015357600080fd5b50565b60008151905062000167816200013c565b92915050565b6000819050919050565b62000182816200016d565b81146200018e57600080fd5b50565b600081519050620001a28162000177565b92915050565b600080600080600080600060e0888a031215620001ca57620001c9620000ef565b5b6000620001da8a828b0162000156565b9750506020620001ed8a828b0162000191565b9650506040620002008a828b0162000191565b9550506060620002138a828b0162000191565b9450506080620002268a828b0162000191565b93505060a0620002398a828b0162000191565b92505060c06200024c8a828b0162000191565b91505092959891949750929550565b613c48806200026b6000396000f3fe6080604052600436106101fd5760003560e01c80636504d3501161010d578063977b055b116100a0578063ca6ae7441161006f578063ca6ae744146107ef578063ca8c3e7714610818578063ccaf1c4b14610841578063d9ba32fc1461087e578063e8315742146108bb57610348565b8063977b055b146107315780639d55a0a61461075c578063a035b1fe14610799578063c452b43c146107c457610348565b80637d3b5615116100dc5780637d3b56151461068957806389e42346146106c65780638da5cb5b146106dd57806391b7f5ed1461070857610348565b80636504d350146105e15780636c5cde681461060a5780636e1e93491461064757806378e979251461065e57610348565b80633af32abf116101905780634cc2cb851161015f5780634cc2cb8514610534578063518ab2a81461054b57806356572a78146105765780635eb186f81461059f5780635fd8c710146105ca57610348565b80633af32abf1461048e57806341566585146104cb5780634bb01abb146104f45780634bb278f31461051d57610348565b80632906a079116101cc5780632906a079146103df5780633197cbb61461041c57806333b5b62e146104475780633610724e1461047257610348565b8063015013471461034d57806316f8d3fc14610364578063176898c91461038d5780631d10fd86146103b657610348565b3661034857600554421015610247576040517f08c379a000000000000000000000000000000000000000000000000000000000815260040161023e90612d1c565b60405180910390fd5b60065442111561028c576040517f08c379a000000000000000000000000000000000000000000000000000000000815260040161028390612d88565b60405180910390fd5b600b60003373ffffffffffffffffffffffffffffffffffffffff1673ffffffffffffffffffffffffffffffffffffffff16815260200190815260200160002060009054906101000a900460ff16610318576040517f08c379a000000000000000000000000000000000000000000000000000000000815260040161030f90612df4565b60405180910390fd5b6000600254346103289190612e7c565b9050610346670de0b6b3a7640000826103419190612ead565b6108e6565b005b600080fd5b34801561035957600080fd5b50610362610d4b565b005b34801561037057600080fd5b5061038b60048036038101906103869190612f57565b610df6565b005b34801561039957600080fd5b506103b460048036038101906103af9190612fbc565b611095565b005b3480156103c257600080fd5b506103dd60048036038101906103d8919061304e565b611140565b005b3480156103eb57600080fd5b50610406600480360381019061040191906130c7565b61139d565b6040516104139190613103565b60405180910390f35b34801561042857600080fd5b506104316113dc565b60405161043e919061312d565b60405180910390f35b34801561045357600080fd5b5061045c6113e2565b604051610469919061312d565b60405180910390f35b61048c600480360381019061048791906130c7565b6108e6565b005b34801561049a57600080fd5b506104b560048036038101906104b09190612f57565b6113e8565b6040516104c29190613157565b60405180910390f35b3480156104d757600080fd5b506104f260048036038101906104ed9190612f57565b611408565b005b34801561050057600080fd5b5061051b60048036038101906105169190612f57565b6114f1565b005b34801561052957600080fd5b506105326115da565b005b34801561054057600080fd5b506105496118dd565b005b34801561055757600080fd5b50610560611c53565b60405161056d919061312d565b60405180910390f35b34801561058257600080fd5b5061059d6004803603810190610598919061304e565b611c59565b005b3480156105ab57600080fd5b506105b4611f0e565b6040516105c191906131d1565b60405180910390f35b3480156105d657600080fd5b506105df611f34565b005b3480156105ed57600080fd5b50610608600480360381019061060391906131ec565b6120d5565b005b34801561061657600080fd5b50610631600480360381019061062c9190612f57565b612190565b60405161063e919061312d565b60405180910390f35b34801561065357600080fd5b5061065c6121a8565b005b34801561066a57600080fd5b506106736123c3565b604051610680919061312d565b60405180910390f35b34801561069557600080fd5b506106b060048036038101906106ab919061304e565b6123c9565b6040516106bd9190613352565b60405180910390f35b3480156106d257600080fd5b506106db612500565b005b3480156106e957600080fd5b506106f26125ef565b6040516106ff9190613395565b60405180910390f35b34801561071457600080fd5b5061072f600480360381019061072a91906130c7565b612613565b005b34801561073d57600080fd5b506107466126ab565b604051610753919061312d565b60405180910390f35b34801561076857600080fd5b50610783600480360381019061077e9190612f57565b6126b1565b6040516107909190613157565b60405180910390f35b3480156107a557600080fd5b506107ae6126d1565b6040516107bb919061312d565b60405180910390f35b3480156107d057600080fd5b506107d96126d7565b6040516107e6919061346e565b60405180910390f35b3480156107fb57600080fd5b5061081660048036038101906108119190612f57565b61288b565b005b34801561082457600080fd5b5061083f600480360381019061083a91906131ec565b612ad2565b005b34801561084d57600080fd5b5061086860048036038101906108639190612f57565b612b72565b604051610875919061349f565b60405180910390f35b34801561088a57600080fd5b506108a560048036038101906108a09190612f57565b612b92565b6040516108b29190613157565b60405180910390f35b3480156108c757600080fd5b506108d0612be8565b6040516108dd919061312d565b60405180910390f35b600b60003373ffffffffffffffffffffffffffffffffffffffff1673ffffffffffffffffffffffffffffffffffffffff16815260200190815260200160002060009054906101000a900460ff16610972576040517f08c379a000000000000000000000000000000000000000000000000000000000815260040161096990612df4565b60405180910390fd5b6005544210156109b7576040517f08c379a00000000000000000000000000000000000000000000000000000000081526004016109ae90612d1c565b60405180910390fd5b6006544211156109fc576040517f08c379a00000000000000000000000000000000000000000000000000000000081526004016109f390612d88565b60405180910390fd5b6000600254670de0b6b3a764000083610a159190612e7c565b610a1f9190612ead565b9050803414610a63576040517f08c379a0000000000000000000000000000000000000000000000000000000008152600401610a5a90613506565b60405180910390fd5b6008548211158015610a7757506007548210155b610a8057600080fd5b81600160009054906101000a900473ffffffffffffffffffffffffffffffffffffffff1673ffffffffffffffffffffffffffffffffffffffff166370a08231306040518263ffffffff1660e01b8152600401610adc9190613103565b602060405180830381865afa158015610af9573d6000803e3d6000fd5b505050506040513d601f19601f82011682018060405250810190610b1d919061353b565b1015610b2857600080fd5b81600d60003373ffffffffffffffffffffffffffffffffffffffff1673ffffffffffffffffffffffffffffffffffffffff1681526020019081526020016000206000828254610b779190613568565b92505081905550600160009054906101000a900473ffffffffffffffffffffffffffffffffffffffff1673ffffffffffffffffffffffffffffffffffffffff1663a9059cbb33846040518363ffffffff1660e01b8152600401610bdb92919061359c565b6020604051808303816000875af1158015610bfa573d6000803e3d6000fd5b505050506040513d601f19601f82011682018060405250810190610c1e91906135da565b610c2757600080fd5b8160046000828254610c399190613568565b9250508190555060008060009054906101000a900473ffffffffffffffffffffffffffffffffffffffff1673ffffffffffffffffffffffffffffffffffffffff1682604051610c8790613638565b60006040518083038185875af1925050503d8060008114610cc4576040519150601f19603f3d011682016040523d82523d6000602084013e610cc9565b606091505b5050905080610d0d576040517f08c379a0000000000000000000000000000000000000000000000000000000008152600401610d0490613699565b60405180910390fd5b7f7534e9c9396820aad756ba27f82162930f80bef863aabdf311e7dce26a79bccd8333604051610d3e9291906136b9565b60405180910390a1505050565b60008054906101000a900473ffffffffffffffffffffffffffffffffffffffff1673ffffffffffffffffffffffffffffffffffffffff163373ffffffffffffffffffffffffffffffffffffffff1614610dd9576040517f08c379a0000000000000000000000000000000000000000000000000000000008152600401610dd090613754565b60405180910390fd5b6000600a60006101000a81548160ff021916908315150217905550565b60008054906101000a900473ffffffffffffffffffffffffffffffffffffffff1673ffffffffffffffffffffffffffffffffffffffff163373ffffffffffffffffffffffffffffffffffffffff1614610e84576040517f08c379a0000000000000000000000000000000000000000000000000000000008152600401610e7b90613754565b60405180910390fd5b60006002811115610e9857610e97613258565b5b600c60008373ffffffffffffffffffffffffffffffffffffffff1673ffffffffffffffffffffffffffffffffffffffff16815260200190815260200160002060009054906101000a900460ff166002811115610ef757610ef6613258565b5b14610f37576040517f08c379a0000000000000000000000000000000000000000000000000000000008152600401610f2e906137c0565b60405180910390fd5b6001600c60008373ffffffffffffffffffffffffffffffffffffffff1673ffffffffffffffffffffffffffffffffffffffff16815260200190815260200160002060006101000a81548160ff02191690836002811115610f9a57610f99613258565b5b02179055506000600e60008373ffffffffffffffffffffffffffffffffffffffff1673ffffffffffffffffffffffffffffffffffffffff16815260200190815260200160002060006101000a81548160ff0219169083151502179055506001600b60008373ffffffffffffffffffffffffffffffffffffffff1673ffffffffffffffffffffffffffffffffffffffff16815260200190815260200160002060006101000a81548160ff0219169083151502179055508073ffffffffffffffffffffffffffffffffffffffff167f22ccae257baf5241d183f9fcd06432b49697e9576652b3f436249b101f32bf9460405160405180910390a250565b60008054906101000a900473ffffffffffffffffffffffffffffffffffffffff1673ffffffffffffffffffffffffffffffffffffffff163373ffffffffffffffffffffffffffffffffffffffff1614611123576040517f08c379a000000000000000000000000000000000000000000000000000000000815260040161111a90613754565b60405180910390fd5b80600a60006101000a81548160ff02191690831515021790555050565b60008054906101000a900473ffffffffffffffffffffffffffffffffffffffff1673ffffffffffffffffffffffffffffffffffffffff163373ffffffffffffffffffffffffffffffffffffffff16146111ce576040517f08c379a00000000000000000000000000000000000000000000000000000000081526004016111c590613754565b60405180910390fd5b60005b828290508110156113985760008383838181106111f1576111f06137e0565b5b90506020020160208101906112069190612f57565b90506000600281111561121c5761121b613258565b5b600c60008373ffffffffffffffffffffffffffffffffffffffff1673ffffffffffffffffffffffffffffffffffffffff16815260200190815260200160002060009054906101000a900460ff16600281111561127b5761127a613258565b5b03611384576002600c60008373ffffffffffffffffffffffffffffffffffffffff1673ffffffffffffffffffffffffffffffffffffffff16815260200190815260200160002060006101000a81548160ff021916908360028111156112e3576112e2613258565b5b02179055506000600e60008373ffffffffffffffffffffffffffffffffffffffff1673ffffffffffffffffffffffffffffffffffffffff16815260200190815260200160002060006101000a81548160ff0219169083151502179055508073ffffffffffffffffffffffffffffffffffffffff167fea4e312ba0c689a06d39183bdbe4da8a13f666c2cae20bfcc77a93cf86dada1260405160405180910390a25b5080806113909061380f565b9150506111d1565b505050565b600981815481106113ad57600080fd5b906000526020600020016000915054906101000a900473ffffffffffffffffffffffffffffffffffffffff1681565b60065481565b60075481565b600b6020528060005260406000206000915054906101000a900460ff1681565b60008054906101000a900473ffffffffffffffffffffffffffffffffffffffff1673ffffffffffffffffffffffffffffffffffffffff163373ffffffffffffffffffffffffffffffffffffffff1614611496576040517f08c379a000000000000000000000000000000000000000000000000000000000815260040161148d90613754565b60405180910390fd5b6001600b60008373ffffffffffffffffffffffffffffffffffffffff1673ffffffffffffffffffffffffffffffffffffffff16815260200190815260200160002060006101000a81548160ff02191690831515021790555050565b60008054906101000a900473ffffffffffffffffffffffffffffffffffffffff1673ffffffffffffffffffffffffffffffffffffffff163373ffffffffffffffffffffffffffffffffffffffff161461157f576040517f08c379a000000000000000000000000000000000000000000000000000000000815260040161157690613754565b60405180910390fd5b6000600b60008373ffffffffffffffffffffffffffffffffffffffff1673ffffffffffffffffffffffffffffffffffffffff16815260200190815260200160002060006101000a81548160ff02191690831515021790555050565b60008054906101000a900473ffffffffffffffffffffffffffffffffffffffff1673ffffffffffffffffffffffffffffffffffffffff163373ffffffffffffffffffffffffffffffffffffffff1614611668576040517f08c379a000000000000000000000000000000000000000000000000000000000815260040161165f90613754565b60405180910390fd5b600160009054906101000a900473ffffffffffffffffffffffffffffffffffffffff1673ffffffffffffffffffffffffffffffffffffffff1663a9059cbb60008054906101000a900473ffffffffffffffffffffffffffffffffffffffff16600160009054906101000a900473ffffffffffffffffffffffffffffffffffffffff1673ffffffffffffffffffffffffffffffffffffffff166370a08231306040518263ffffffff1660e01b81526004016117229190613103565b602060405180830381865afa15801561173f573d6000803e3d6000fd5b505050506040513d601f19601f82011682018060405250810190611763919061353b565b6040518363ffffffff1660e01b8152600401611780929190613878565b6020604051808303816000875af115801561179f573d6000803e3d6000fd5b505050506040513d601f19601f820116820180604052508101906117c391906135da565b6117cc57600080fd5b600047905060008060009054906101000a900473ffffffffffffffffffffffffffffffffffffffff1673ffffffffffffffffffffffffffffffffffffffff168260405161181890613638565b60006040518083038185875af1925050503d8060008114611855576040519150601f19603f3d011682016040523d82523d6000602084013e61185a565b606091505b505090508061189e576040517f08c379a000000000000000000000000000000000000000000000000000000000815260040161189590613699565b60405180910390fd5b7f9d3cb3e4bff976f636db6ed472093505eb1b5bafc234ea8276ae83b3ea0a8b74600454836040516118d19291906138a1565b60405180910390a15050565b6006544211611921576040517f08c379a000000000000000000000000000000000000000000000000000000000815260040161191890613916565b60405180910390fd5b60011515600a60009054906101000a900460ff16151514611977576040517f08c379a000000000000000000000000000000000000000000000000000000000815260040161196e90613982565b60405180910390fd5b6000600d60003373ffffffffffffffffffffffffffffffffffffffff1673ffffffffffffffffffffffffffffffffffffffff168152602001908152602001600020549050600081116119fe576040517f08c379a00000000000000000000000000000000000000000000000000000000081526004016119f590613a14565b60405180910390fd5b6000600d60003373ffffffffffffffffffffffffffffffffffffffff1673ffffffffffffffffffffffffffffffffffffffff168152602001908152602001600020819055508060046000828254611a559190613a34565b92505081905550600160009054906101000a900473ffffffffffffffffffffffffffffffffffffffff1673ffffffffffffffffffffffffffffffffffffffff166323b872dd3330846040518463ffffffff1660e01b8152600401611abb93929190613a68565b6020604051808303816000875af1158015611ada573d6000803e3d6000fd5b505050506040513d601f19601f82011682018060405250810190611afe91906135da565b50600060025482611b0f9190612ead565b905080471015611b54576040517f08c379a0000000000000000000000000000000000000000000000000000000008152600401611b4b90613aeb565b60405180910390fd5b60003373ffffffffffffffffffffffffffffffffffffffff1682604051611b7a90613638565b60006040518083038185875af1925050503d8060008114611bb7576040519150601f19603f3d011682016040523d82523d6000602084013e611bbc565b606091505b5050905080611c00576040517f08c379a0000000000000000000000000000000000000000000000000000000008152600401611bf790613699565b60405180910390fd5b3373ffffffffffffffffffffffffffffffffffffffff167fbb28353e4598c3b9199101a66e0989549b659a59a54d2c27fbb183f1932c8e6d84604051611c46919061312d565b60405180910390a2505050565b60045481565b60008054906101000a900473ffffffffffffffffffffffffffffffffffffffff1673ffffffffffffffffffffffffffffffffffffffff163373ffffffffffffffffffffffffffffffffffffffff1614611ce7576040517f08c379a0000000000000000000000000000000000000000000000000000000008152600401611cde90613754565b60405180910390fd5b60005b82829050811015611f09576000838383818110611d0a57611d096137e0565b5b9050602002016020810190611d1f9190612f57565b905060006002811115611d3557611d34613258565b5b600c60008373ffffffffffffffffffffffffffffffffffffffff1673ffffffffffffffffffffffffffffffffffffffff16815260200190815260200160002060009054906101000a900460ff166002811115611d9457611d93613258565b5b03611ef5576001600c60008373ffffffffffffffffffffffffffffffffffffffff1673ffffffffffffffffffffffffffffffffffffffff16815260200190815260200160002060006101000a81548160ff02191690836002811115611dfc57611dfb613258565b5b02179055506000600e60008373ffffffffffffffffffffffffffffffffffffffff1673ffffffffffffffffffffffffffffffffffffffff16815260200190815260200160002060006101000a81548160ff0219169083151502179055506001600b60008373ffffffffffffffffffffffffffffffffffffffff1673ffffffffffffffffffffffffffffffffffffffff16815260200190815260200160002060006101000a81548160ff0219169083151502179055508073ffffffffffffffffffffffffffffffffffffffff167f22ccae257baf5241d183f9fcd06432b49697e9576652b3f436249b101f32bf9460405160405180910390a25b508080611f019061380f565b915050611cea565b505050565b600160009054906101000a900473ffffffffffffffffffffffffffffffffffffffff1681565b60008054906101000a900473ffffffffffffffffffffffffffffffffffffffff1673ffffffffffffffffffffffffffffffffffffffff163373ffffffffffffffffffffffffffffffffffffffff1614611fc2576040517f08c379a0000000000000000000000000000000000000000000000000000000008152600401611fb990613754565b60405180910390fd5b60004711612005576040517f08c379a0000000000000000000000000000000000000000000000000000000008152600401611ffc90613b57565b60405180910390fd5b60008060009054906101000a900473ffffffffffffffffffffffffffffffffffffffff1673ffffffffffffffffffffffffffffffffffffffff164760405161204c90613638565b60006040518083038185875af1925050503d8060008114612089576040519150601f19603f3d011682016040523d82523d6000602084013e61208e565b606091505b50509050806120d2576040517f08c379a00000000000000000000000000000000000000000000000000000000081526004016120c990613699565b60405180910390fd5b50565b60008054906101000a900473ffffffffffffffffffffffffffffffffffffffff1673ffffffffffffffffffffffffffffffffffffffff163373ffffffffffffffffffffffffffffffffffffffff1614612163576040517f08c379a000000000000000000000000000000000000000000000000000000000815260040161215a90613754565b60405180910390fd5b81600581905550806006819055506000600a60006101000a81548160ff0219169083151502179055505050565b600d6020528060005260406000206000915090505481565b600060028111156121bc576121bb613258565b5b600c60003373ffffffffffffffffffffffffffffffffffffffff1673ffffffffffffffffffffffffffffffffffffffff16815260200190815260200160002060009054906101000a900460ff16600281111561221b5761221a613258565b5b1461225b576040517f08c379a000000000000000000000000000000000000000000000000000000000815260040161225290613bc3565b60405180910390fd5b6000600c60003373ffffffffffffffffffffffffffffffffffffffff1673ffffffffffffffffffffffffffffffffffffffff16815260200190815260200160002060006101000a81548160ff021916908360028111156122be576122bd613258565b5b02179055506001600e60003373ffffffffffffffffffffffffffffffffffffffff1673ffffffffffffffffffffffffffffffffffffffff16815260200190815260200160002060006101000a81548160ff0219169083151502179055506009339080600181540180825580915050600190039060005260206000200160009091909190916101000a81548173ffffffffffffffffffffffffffffffffffffffff021916908373ffffffffffffffffffffffffffffffffffffffff1602179055503373ffffffffffffffffffffffffffffffffffffffff167fa226db3f664042183ee0281230bba26cbf7b5057e50aee7f25a175ff45ce4d7f60405160405180910390a2565b60055481565b606060008383905067ffffffffffffffff8111156123ea576123e9613be3565b5b6040519080825280602002602001820160405280156124185781602001602082028036833780820191505090505b50905060005b848490508110156124f557600c60008686848181106124405761243f6137e0565b5b90506020020160208101906124559190612f57565b73ffffffffffffffffffffffffffffffffffffffff1673ffffffffffffffffffffffffffffffffffffffff16815260200190815260200160002060009054906101000a900460ff168282815181106124b0576124af6137e0565b5b602002602001019060028111156124ca576124c9613258565b5b908160028111156124de576124dd613258565b5b8152505080806124ed9061380f565b91505061241e565b508091505092915050565b60008054906101000a900473ffffffffffffffffffffffffffffffffffffffff1673ffffffffffffffffffffffffffffffffffffffff163373ffffffffffffffffffffffffffffffffffffffff161461258e576040517f08c379a000000000000000000000000000000000000000000000000000000000815260040161258590613754565b60405180910390fd5b60065442116125d2576040517f08c379a00000000000000000000000000000000000000000000000000000000081526004016125c990613916565b60405180910390fd5b6001600a60006101000a81548160ff021916908315150217905550565b60008054906101000a900473ffffffffffffffffffffffffffffffffffffffff1681565b60008054906101000a900473ffffffffffffffffffffffffffffffffffffffff1673ffffffffffffffffffffffffffffffffffffffff163373ffffffffffffffffffffffffffffffffffffffff16146126a1576040517f08c379a000000000000000000000000000000000000000000000000000000000815260040161269890613754565b60405180910390fd5b8060028190555050565b60085481565b600e6020528060005260406000206000915054906101000a900460ff1681565b60025481565b606060006126e3612bee565b67ffffffffffffffff8111156126fc576126fb613be3565b5b60405190808252806020026020018201604052801561272a5781602001602082028036833780820191505090505b5090506000805b6009805490508110156128825760011515600e60006009848154811061275a576127596137e0565b5b9060005260206000200160009054906101000a900473ffffffffffffffffffffffffffffffffffffffff1673ffffffffffffffffffffffffffffffffffffffff1673ffffffffffffffffffffffffffffffffffffffff16815260200190815260200160002060009054906101000a900460ff1615150361286f57600981815481106127e8576127e76137e0565b5b9060005260206000200160009054906101000a900473ffffffffffffffffffffffffffffffffffffffff16838381518110612826576128256137e0565b5b602002602001019073ffffffffffffffffffffffffffffffffffffffff16908173ffffffffffffffffffffffffffffffffffffffff1681525050818061286b9061380f565b9250505b808061287a9061380f565b915050612731565b50819250505090565b60008054906101000a900473ffffffffffffffffffffffffffffffffffffffff1673ffffffffffffffffffffffffffffffffffffffff163373ffffffffffffffffffffffffffffffffffffffff1614612919576040517f08c379a000000000000000000000000000000000000000000000000000000000815260040161291090613754565b60405180910390fd5b6000600281111561292d5761292c613258565b5b600c60008373ffffffffffffffffffffffffffffffffffffffff1673ffffffffffffffffffffffffffffffffffffffff16815260200190815260200160002060009054906101000a900460ff16600281111561298c5761298b613258565b5b146129cc576040517f08c379a00000000000000000000000000000000000000000000000000000000081526004016129c3906137c0565b60405180910390fd5b6002600c60008373ffffffffffffffffffffffffffffffffffffffff1673ffffffffffffffffffffffffffffffffffffffff16815260200190815260200160002060006101000a81548160ff02191690836002811115612a2f57612a2e613258565b5b02179055506000600e60008373ffffffffffffffffffffffffffffffffffffffff1673ffffffffffffffffffffffffffffffffffffffff16815260200190815260200160002060006101000a81548160ff0219169083151502179055508073ffffffffffffffffffffffffffffffffffffffff167fea4e312ba0c689a06d39183bdbe4da8a13f666c2cae20bfcc77a93cf86dada1260405160405180910390a250565b60008054906101000a900473ffffffffffffffffffffffffffffffffffffffff1673ffffffffffffffffffffffffffffffffffffffff163373ffffffffffffffffffffffffffffffffffffffff1614612b60576040517f08c379a0000000000000000000000000000000000000000000000000000000008152600401612b5790613754565b60405180910390fd5b81600781905550806008819055505050565b600c6020528060005260406000206000915054906101000a900460ff1681565b6000600b60008373ffffffffffffffffffffffffffffffffffffffff1673ffffffffffffffffffffffffffffffffffffffff16815260200190815260200160002060009054906101000a900460ff169050919050565b60035481565b6000806000905060005b600980549050811015612cb757600e600060098381548110612c1d57612c1c6137e0565b5b9060005260206000200160009054906101000a900473ffffffffffffffffffffffffffffffffffffffff1673ffffffffffffffffffffffffffffffffffffffff1673ffffffffffffffffffffffffffffffffffffffff16815260200190815260200160002060009054906101000a900460ff1615612ca4578180612ca09061380f565b9250505b8080612caf9061380f565b915050612bf8565b508091505090565b600082825260208201905092915050565b7f53616c65206973206e6f74207374617274656420796574000000000000000000600082015250565b6000612d06601783612cbf565b9150612d1182612cd0565b602082019050919050565b60006020820190508181036000830152612d3581612cf9565b9050919050565b7f53616c6520616c726561647920656e6465640000000000000000000000000000600082015250565b6000612d72601283612cbf565b9150612d7d82612d3c565b602082019050919050565b60006020820190508181036000830152612da181612d65565b9050919050565b7f41646472657373206e6f742077686974656c6973746564000000000000000000600082015250565b6000612dde601783612cbf565b9150612de982612da8565b602082019050919050565b60006020820190508181036000830152612e0d81612dd1565b9050919050565b6000819050919050565b7f4e487b7100000000000000000000000000000000000000000000000000000000600052601260045260246000fd5b7f4e487b7100000000000000000000000000000000000000000000000000000000600052601160045260246000fd5b6000612e8782612e14565b9150612e9283612e14565b925082612ea257612ea1612e1e565b5b828204905092915050565b6000612eb882612e14565b9150612ec383612e14565b9250828202612ed181612e14565b91508282048414831517612ee857612ee7612e4d565b5b5092915050565b600080fd5b600080fd5b600073ffffffffffffffffffffffffffffffffffffffff82169050919050565b6000612f2482612ef9565b9050919050565b612f3481612f19565b8114612f3f57600080fd5b50565b600081359050612f5181612f2b565b92915050565b600060208284031215612f6d57612f6c612eef565b5b6000612f7b84828501612f42565b91505092915050565b60008115159050919050565b612f9981612f84565b8114612fa457600080fd5b50565b600081359050612fb681612f90565b92915050565b600060208284031215612fd257612fd1612eef565b5b6000612fe084828501612fa7565b91505092915050565b600080fd5b600080fd5b600080fd5b60008083601f84011261300e5761300d612fe9565b5b8235905067ffffffffffffffff81111561302b5761302a612fee565b5b60208301915083602082028301111561304757613046612ff3565b5b9250929050565b6000806020838503121561306557613064612eef565b5b600083013567ffffffffffffffff81111561308357613082612ef4565b5b61308f85828601612ff8565b92509250509250929050565b6130a481612e14565b81146130af57600080fd5b50565b6000813590506130c18161309b565b92915050565b6000602082840312156130dd576130dc612eef565b5b60006130eb848285016130b2565b91505092915050565b6130fd81612f19565b82525050565b600060208201905061311860008301846130f4565b92915050565b61312781612e14565b82525050565b6000602082019050613142600083018461311e565b92915050565b61315181612f84565b82525050565b600060208201905061316c6000830184613148565b92915050565b6000819050919050565b600061319761319261318d84612ef9565b613172565b612ef9565b9050919050565b60006131a98261317c565b9050919050565b60006131bb8261319e565b9050919050565b6131cb816131b0565b82525050565b60006020820190506131e660008301846131c2565b92915050565b6000806040838503121561320357613202612eef565b5b6000613211858286016130b2565b9250506020613222858286016130b2565b9150509250929050565b600081519050919050565b600082825260208201905092915050565b6000819050602082019050919050565b7f4e487b7100000000000000000000000000000000000000000000000000000000600052602160045260246000fd5b6003811061329857613297613258565b5b50565b60008190506132a982613287565b919050565b60006132b98261329b565b9050919050565b6132c9816132ae565b82525050565b60006132db83836132c0565b60208301905092915050565b6000602082019050919050565b60006132ff8261322c565b6133098185613237565b935061331483613248565b8060005b8381101561334557815161332c88826132cf565b9750613337836132e7565b925050600181019050613318565b5085935050505092915050565b6000602082019050818103600083015261336c81846132f4565b905092915050565b600061337f82612ef9565b9050919050565b61338f81613374565b82525050565b60006020820190506133aa6000830184613386565b92915050565b600081519050919050565b600082825260208201905092915050565b6000819050602082019050919050565b6133e581612f19565b82525050565b60006133f783836133dc565b60208301905092915050565b6000602082019050919050565b600061341b826133b0565b61342581856133bb565b9350613430836133cc565b8060005b8381101561346157815161344888826133eb565b975061345383613403565b925050600181019050613434565b5085935050505092915050565b600060208201905081810360008301526134888184613410565b905092915050565b613499816132ae565b82525050565b60006020820190506134b46000830184613490565b92915050565b7f496e76616c696420616d6f756e74206f66204574686572000000000000000000600082015250565b60006134f0601783612cbf565b91506134fb826134ba565b602082019050919050565b6000602082019050818103600083015261351f816134e3565b9050919050565b6000815190506135358161309b565b92915050565b60006020828403121561355157613550612eef565b5b600061355f84828501613526565b91505092915050565b600061357382612e14565b915061357e83612e14565b925082820190508082111561359657613595612e4d565b5b92915050565b60006040820190506135b160008301856130f4565b6135be602083018461311e565b9392505050565b6000815190506135d481612f90565b92915050565b6000602082840312156135f0576135ef612eef565b5b60006135fe848285016135c5565b91505092915050565b600081905092915050565b50565b6000613622600083613607565b915061362d82613612565b600082019050919050565b600061364382613615565b9150819050919050565b7f4661696c656420746f2073656e64204574686572000000000000000000000000600082015250565b6000613683601483612cbf565b915061368e8261364d565b602082019050919050565b600060208201905081810360008301526136b281613676565b9050919050565b60006040820190506136ce600083018561311e565b6136db60208301846130f4565b9392505050565b7f4f6e6c79206f776e65722063616e2063616c6c20746869732066756e6374696f60008201527f6e00000000000000000000000000000000000000000000000000000000000000602082015250565b600061373e602183612cbf565b9150613749826136e2565b604082019050919050565b6000602082019050818103600083015261376d81613731565b9050919050565b7f41646472657373206973206e6f7420696e2070656e64696e67206c6973740000600082015250565b60006137aa601e83612cbf565b91506137b582613774565b602082019050919050565b600060208201905081810360008301526137d98161379d565b9050919050565b7f4e487b7100000000000000000000000000000000000000000000000000000000600052603260045260246000fd5b600061381a82612e14565b91507fffffffffffffffffffffffffffffffffffffffffffffffffffffffffffffffff820361384c5761384b612e4d565b5b600182019050919050565b60006138628261319e565b9050919050565b61387281613857565b82525050565b600060408201905061388d6000830185613869565b61389a602083018461311e565b9392505050565b60006040820190506138b6600083018561311e565b6138c3602083018461311e565b9392505050565b7f53616c65206973206e6f7420656e646564207965740000000000000000000000600082015250565b6000613900601583612cbf565b915061390b826138ca565b602082019050919050565b6000602082019050818103600083015261392f816138f3565b9050919050565b7f526566756e64206973206e6f7420656e61626c65640000000000000000000000600082015250565b600061396c601583612cbf565b915061397782613936565b602082019050919050565b6000602082019050818103600083015261399b8161395f565b9050919050565b7f596f752068617665206e6f742070757263686173656420616e7920746f6b656e60008201527f7300000000000000000000000000000000000000000000000000000000000000602082015250565b60006139fe602183612cbf565b9150613a09826139a2565b604082019050919050565b60006020820190508181036000830152613a2d816139f1565b9050919050565b6000613a3f82612e14565b9150613a4a83612e14565b9250828203905081811115613a6257613a61612e4d565b5b92915050565b6000606082019050613a7d60008301866130f4565b613a8a60208301856130f4565b613a97604083018461311e565b949350505050565b7f496e73756666696369656e742062616c616e6365000000000000000000000000600082015250565b6000613ad5601483612cbf565b9150613ae082613a9f565b602082019050919050565b60006020820190508181036000830152613b0481613ac8565b9050919050565b7f42616c616e6365206973207a65726f0000000000000000000000000000000000600082015250565b6000613b41600f83612cbf565b9150613b4c82613b0b565b602082019050919050565b60006020820190508181036000830152613b7081613b34565b9050919050565b7f596f75206861766520616c726561647920726571756573746564000000000000600082015250565b6000613bad601a83612cbf565b9150613bb882613b77565b602082019050919050565b60006020820190508181036000830152613bdc81613ba0565b9050919050565b7f4e487b7100000000000000000000000000000000000000000000000000000000600052604160045260246000fdfea26469706673582212209f7ad6cfd7c48cce21664a0742f92ca9092a126bec170216242bf79143210f7a64736f6c63430008120033",
  "linkReferences": {},
  "deployedLinkReferences": {}
}