{
  "_format": "hh-sol-artifact-1",
  "contractName": "Crowdsale",
  "sourceName": "contracts/Crowdsale.sol",
  "abi": [
    {
      "inputs": [
        {
          "internalType": "contract DAPPToken",
          "name": "_dappToken",
          "type": "address"
        },
        {
          "internalType": "uint256",
          "name": "_price",
          "type": "uint256"
        },
        {
          "internalType": "uint256",
          "name": "_maxTokens",
          "type": "uint256"
        },
        {
          "internalType": "uint256",
          "name": "_startTime",
          "type": "uint256"
        },
        {
          "internalType": "uint256",
          "name": "_endTime",
          "type": "uint256"
        },
        {
          "internalType": "uint256",
          "name": "_minPurchase",
          "type": "uint256"
        },
        {
          "internalType": "uint256",
          "name": "_maxPurchase",
          "type": "uint256"
        }
      ],
      "stateMutability": "nonpayable",
      "type": "constructor"
    },
    {
      "anonymous": false,
      "inputs": [
        {
          "indexed": true,
          "internalType": "address",
          "name": "_addr",
          "type": "address"
        }
      ],
      "name": "AddressAdded",
      "type": "event"
    },
    {
      "anonymous": false,
      "inputs": [
        {
          "indexed": true,
          "internalType": "address",
          "name": "_addr",
          "type": "address"
        }
      ],
      "name": "AddressApproved",
      "type": "event"
    },
    {
      "anonymous": false,
      "inputs": [
        {
          "indexed": true,
          "internalType": "address",
          "name": "_addr",
          "type": "address"
        }
      ],
      "name": "AddressRejected",
      "type": "event"
    },
    {
      "anonymous": false,
      "inputs": [
        {
          "indexed": false,
          "internalType": "uint256",
          "name": "amount",
          "type": "uint256"
        },
        {
          "indexed": false,
          "internalType": "address",
          "name": "buyer",
          "type": "address"
        }
      ],
      "name": "Buy",
      "type": "event"
    },
    {
      "anonymous": false,
      "inputs": [
        {
          "indexed": false,
          "internalType": "uint256",
          "name": "amount",
          "type": "uint256"
        },
        {
          "indexed": false,
          "internalType": "uint256",
          "name": "value",
          "type": "uint256"
        }
      ],
      "name": "Finalize",
      "type": "event"
    },
    {
      "inputs": [
        {
          "internalType": "address",
          "name": "_addr",
          "type": "address"
        }
      ],
      "name": "approveWhitelist",
      "outputs": [],
      "stateMutability": "nonpayable",
      "type": "function"
    },
    {
      "inputs": [
        {
          "internalType": "address[]",
          "name": "_addresses",
          "type": "address[]"
        }
      ],
      "name": "approveWhitelistToAll",
      "outputs": [],
      "stateMutability": "nonpayable",
      "type": "function"
    },
    {
      "inputs": [
        {
          "internalType": "uint256",
          "name": "_amount",
          "type": "uint256"
        }
      ],
      "name": "buyTokens",
      "outputs": [],
      "stateMutability": "payable",
      "type": "function"
    },
    {
      "inputs": [],
      "name": "dappToken",
      "outputs": [
        {
          "internalType": "contract DAPPToken",
          "name": "",
          "type": "address"
        }
      ],
      "stateMutability": "view",
      "type": "function"
    },
    {
      "inputs": [],
      "name": "disableRefund",
      "outputs": [],
      "stateMutability": "nonpayable",
      "type": "function"
    },
    {
      "inputs": [],
      "name": "enableRefund",
      "outputs": [],
      "stateMutability": "nonpayable",
      "type": "function"
    },
    {
      "inputs": [],
      "name": "endTime",
      "outputs": [
        {
          "internalType": "uint256",
          "name": "",
          "type": "uint256"
        }
      ],
      "stateMutability": "view",
      "type": "function"
    },
    {
      "inputs": [],
      "name": "finalize",
      "outputs": [],
      "stateMutability": "nonpayable",
      "type": "function"
    },
    {
      "inputs": [],
      "name": "getPendingStatusAddr",
      "outputs": [
        {
          "internalType": "address[]",
          "name": "",
          "type": "address[]"
        }
      ],
      "stateMutability": "view",
      "type": "function"
    },
    {
      "inputs": [
        {
          "internalType": "address",
          "name": "_addr",
          "type": "address"
        }
      ],
      "name": "getWhitelistStatus",
      "outputs": [
        {
          "internalType": "bool",
          "name": "",
          "type": "bool"
        }
      ],
      "stateMutability": "view",
      "type": "function"
    },
    {
      "inputs": [
        {
          "internalType": "address[]",
          "name": "_addresses",
          "type": "address[]"
        }
      ],
      "name": "getWhitelistStatusAll",
      "outputs": [
        {
          "internalType": "enum Crowdsale.WhitelistStatus[]",
          "name": "",
          "type": "uint8[]"
        }
      ],
      "stateMutability": "view",
      "type": "function"
    },
    {
      "inputs": [
        {
          "internalType": "address",
          "name": "",
          "type": "address"
        }
      ],
      "name": "isPendingWhitelist",
      "outputs": [
        {
          "internalType": "bool",
          "name": "",
          "type": "bool"
        }
      ],
      "stateMutability": "view",
      "type": "function"
    },
    {
      "inputs": [
        {
          "internalType": "address",
          "name": "",
          "type": "address"
        }
      ],
      "name": "isWhitelisted",
      "outputs": [
        {
          "internalType": "bool",
          "name": "",
          "type": "bool"
        }
      ],
      "stateMutability": "view",
      "type": "function"
    },
    {
      "inputs": [],
      "name": "maxPurchase",
      "outputs": [
        {
          "internalType": "uint256",
          "name": "",
          "type": "uint256"
        }
      ],
      "stateMutability": "view",
      "type": "function"
    },
    {
      "inputs": [],
      "name": "maxTokens",
      "outputs": [
        {
          "internalType": "uint256",
          "name": "",
          "type": "uint256"
        }
      ],
      "stateMutability": "view",
      "type": "function"
    },
    {
      "inputs": [],
      "name": "minPurchase",
      "outputs": [
        {
          "internalType": "uint256",
          "name": "",
          "type": "uint256"
        }
      ],
      "stateMutability": "view",
      "type": "function"
    },
    {
      "inputs": [],
      "name": "owner",
      "outputs": [
        {
          "internalType": "address",
          "name": "",
          "type": "address"
        }
      ],
      "stateMutability": "view",
      "type": "function"
    },
    {
      "inputs": [],
      "name": "price",
      "outputs": [
        {
          "internalType": "uint256",
          "name": "",
          "type": "uint256"
        }
      ],
      "stateMutability": "view",
      "type": "function"
    },
    {
      "inputs": [
        {
          "internalType": "address",
          "name": "",
          "type": "address"
        }
      ],
      "name": "purchaseAmount",
      "outputs": [
        {
          "internalType": "uint256",
          "name": "",
          "type": "uint256"
        }
      ],
      "stateMutability": "view",
      "type": "function"
    },
    {
      "inputs": [],
      "name": "refundCampaign",
      "outputs": [],
      "stateMutability": "nonpayable",
      "type": "function"
    },
    {
      "inputs": [
        {
          "internalType": "address",
          "name": "_addr",
          "type": "address"
        }
      ],
      "name": "rejectWhitelist",
      "outputs": [],
      "stateMutability": "nonpayable",
      "type": "function"
    },
    {
      "inputs": [
        {
          "internalType": "address[]",
          "name": "_addresses",
          "type": "address[]"
        }
      ],
      "name": "rejectWhitelistToAll",
      "outputs": [],
      "stateMutability": "nonpayable",
      "type": "function"
    },
    {
      "inputs": [
        {
          "internalType": "address",
          "name": "_addr",
          "type": "address"
        }
      ],
      "name": "removeAddressFromWhiteList",
      "outputs": [],
      "stateMutability": "nonpayable",
      "type": "function"
    },
    {
      "inputs": [],
      "name": "requestWhitelist",
      "outputs": [],
      "stateMutability": "nonpayable",
      "type": "function"
    },
    {
      "inputs": [
        {
          "internalType": "uint256",
          "name": "",
          "type": "uint256"
        }
      ],
      "name": "requestors",
      "outputs": [
        {
          "internalType": "address",
          "name": "",
          "type": "address"
        }
      ],
      "stateMutability": "view",
      "type": "function"
    },
    {
      "inputs": [
        {
          "internalType": "uint256",
          "name": "_startTime",
          "type": "uint256"
        },
        {
          "internalType": "uint256",
          "name": "_endTime",
          "type": "uint256"
        }
      ],
      "name": "restartCampaign",
      "outputs": [],
      "stateMutability": "nonpayable",
      "type": "function"
    },
    {
      "inputs": [
        {
          "internalType": "uint256",
          "name": "_minPurchase",
          "type": "uint256"
        },
        {
          "internalType": "uint256",
          "name": "_maxPurchase",
          "type": "uint256"
        }
      ],
      "name": "setContribution",
      "outputs": [],
      "stateMutability": "nonpayable",
      "type": "function"
    },
    {
      "inputs": [
        {
          "internalType": "uint256",
          "name": "_price",
          "type": "uint256"
        }
      ],
      "name": "setPrice",
      "outputs": [],
      "stateMutability": "nonpayable",
      "type": "function"
    },
    {
      "inputs": [],
      "name": "startTime",
      "outputs": [
        {
          "internalType": "uint256",
          "name": "",
          "type": "uint256"
        }
      ],
      "stateMutability": "view",
      "type": "function"
    },
    {
      "inputs": [],
      "name": "tokensSold",
      "outputs": [
        {
          "internalType": "uint256",
          "name": "",
          "type": "uint256"
        }
      ],
      "stateMutability": "view",
      "type": "function"
    },
    {
      "inputs": [
        {
          "internalType": "address",
          "name": "_addr",
          "type": "address"
        }
      ],
      "name": "whitelistAddress",
      "outputs": [],
      "stateMutability": "nonpayable",
      "type": "function"
    },
    {
      "inputs": [
        {
          "internalType": "address",
          "name": "",
          "type": "address"
        }
      ],
      "name": "whitelistStatus",
      "outputs": [
        {
          "internalType": "enum Crowdsale.WhitelistStatus",
          "name": "",
          "type": "uint8"
        }
      ],
      "stateMutability": "view",
      "type": "function"
    },
    {
      "stateMutability": "payable",
      "type": "receive"
    }
  ],
  "bytecode": "0x60806040523480156200001157600080fd5b5060405162003806380380620038068339818101604052810190620000379190620001a8565b336000806101000a81548173ffffffffffffffffffffffffffffffffffffffff021916908373ffffffffffffffffffffffffffffffffffffffff16021790555086600160006101000a81548173ffffffffffffffffffffffffffffffffffffffff021916908373ffffffffffffffffffffffffffffffffffffffff160217905550856002819055508460038190555083600581905550826006819055508160078190555080600881905550505050505050506200025b565b600080fd5b600073ffffffffffffffffffffffffffffffffffffffff82169050919050565b60006200012182620000f4565b9050919050565b6000620001358262000114565b9050919050565b620001478162000128565b81146200015357600080fd5b50565b60008151905062000167816200013c565b92915050565b6000819050919050565b62000182816200016d565b81146200018e57600080fd5b50565b600081519050620001a28162000177565b92915050565b600080600080600080600060e0888a031215620001ca57620001c9620000ef565b5b6000620001da8a828b0162000156565b9750506020620001ed8a828b0162000191565b9650506040620002008a828b0162000191565b9550506060620002138a828b0162000191565b9450506080620002268a828b0162000191565b93505060a0620002398a828b0162000191565b92505060c06200024c8a828b0162000191565b91505092959891949750929550565b61359b806200026b6000396000f3fe6080604052600436106101e75760003560e01c80636c5cde68116101025780639d55a0a611610095578063ca8c3e7711610064578063ca8c3e77146107c2578063ccaf1c4b146107eb578063d9ba32fc14610828578063e83157421461086557610332565b80639d55a0a614610706578063a035b1fe14610743578063c452b43c1461076e578063ca6ae7441461079957610332565b806389e42346116100d157806389e42346146106705780638da5cb5b1461068757806391b7f5ed146106b2578063977b055b146106db57610332565b80636c5cde68146105b45780636e1e9349146105f157806378e97925146106085780637d3b56151461063357610332565b8063415665851161017a578063518ab2a811610149578063518ab2a81461050c57806356572a78146105375780635eb186f8146105605780636504d3501461058b57610332565b8063415665851461048c5780634bb01abb146104b55780634bb278f3146104de5780634cc2cb85146104f557610332565b80633197cbb6116101b65780633197cbb6146103dd57806333b5b62e146104085780633610724e146104335780633af32abf1461044f57610332565b8063015013471461033757806316f8d3fc1461034e5780631d10fd86146103775780632906a079146103a057610332565b3661033257600554421015610231576040517f08c379a00000000000000000000000000000000000000000000000000000000081526004016102289061287b565b60405180910390fd5b600654421115610276576040517f08c379a000000000000000000000000000000000000000000000000000000000815260040161026d906128e7565b60405180910390fd5b600b60003373ffffffffffffffffffffffffffffffffffffffff1673ffffffffffffffffffffffffffffffffffffffff16815260200190815260200160002060009054906101000a900460ff16610302576040517f08c379a00000000000000000000000000000000000000000000000000000000081526004016102f990612953565b60405180910390fd5b60006002543461031291906129db565b9050610330670de0b6b3a76400008261032b9190612a0c565b610890565b005b600080fd5b34801561034357600080fd5b5061034c610beb565b005b34801561035a57600080fd5b5061037560048036038101906103709190612ab6565b610c96565b005b34801561038357600080fd5b5061039e60048036038101906103999190612b48565b610f35565b005b3480156103ac57600080fd5b506103c760048036038101906103c29190612bc1565b611192565b6040516103d49190612bfd565b60405180910390f35b3480156103e957600080fd5b506103f26111d1565b6040516103ff9190612c27565b60405180910390f35b34801561041457600080fd5b5061041d6111d7565b60405161042a9190612c27565b60405180910390f35b61044d60048036038101906104489190612bc1565b610890565b005b34801561045b57600080fd5b5061047660048036038101906104719190612ab6565b6111dd565b6040516104839190612c5d565b60405180910390f35b34801561049857600080fd5b506104b360048036038101906104ae9190612ab6565b6111fd565b005b3480156104c157600080fd5b506104dc60048036038101906104d79190612ab6565b6112e6565b005b3480156104ea57600080fd5b506104f36113cf565b005b34801561050157600080fd5b5061050a6116d2565b005b34801561051857600080fd5b50610521611953565b60405161052e9190612c27565b60405180910390f35b34801561054357600080fd5b5061055e60048036038101906105599190612b48565b611959565b005b34801561056c57600080fd5b50610575611c0e565b6040516105829190612cd7565b60405180910390f35b34801561059757600080fd5b506105b260048036038101906105ad9190612cf2565b611c34565b005b3480156105c057600080fd5b506105db60048036038101906105d69190612ab6565b611cef565b6040516105e89190612c27565b60405180910390f35b3480156105fd57600080fd5b50610606611d07565b005b34801561061457600080fd5b5061061d611f22565b60405161062a9190612c27565b60405180910390f35b34801561063f57600080fd5b5061065a60048036038101906106559190612b48565b611f28565b6040516106679190612e58565b60405180910390f35b34801561067c57600080fd5b5061068561205f565b005b34801561069357600080fd5b5061069c61214e565b6040516106a99190612bfd565b60405180910390f35b3480156106be57600080fd5b506106d960048036038101906106d49190612bc1565b612172565b005b3480156106e757600080fd5b506106f061220a565b6040516106fd9190612c27565b60405180910390f35b34801561071257600080fd5b5061072d60048036038101906107289190612ab6565b612210565b60405161073a9190612c5d565b60405180910390f35b34801561074f57600080fd5b50610758612230565b6040516107659190612c27565b60405180910390f35b34801561077a57600080fd5b50610783612236565b6040516107909190612f38565b60405180910390f35b3480156107a557600080fd5b506107c060048036038101906107bb9190612ab6565b6123ea565b005b3480156107ce57600080fd5b506107e960048036038101906107e49190612cf2565b612631565b005b3480156107f757600080fd5b50610812600480360381019061080d9190612ab6565b6126d1565b60405161081f9190612f69565b60405180910390f35b34801561083457600080fd5b5061084f600480360381019061084a9190612ab6565b6126f1565b60405161085c9190612c5d565b60405180910390f35b34801561087157600080fd5b5061087a612747565b6040516108879190612c27565b60405180910390f35b600b60003373ffffffffffffffffffffffffffffffffffffffff1673ffffffffffffffffffffffffffffffffffffffff16815260200190815260200160002060009054906101000a900460ff1661091c576040517f08c379a000000000000000000000000000000000000000000000000000000000815260040161091390612953565b60405180910390fd5b600554421015610961576040517f08c379a00000000000000000000000000000000000000000000000000000000081526004016109589061287b565b60405180910390fd5b6006544211156109a6576040517f08c379a000000000000000000000000000000000000000000000000000000000815260040161099d906128e7565b60405180910390fd5b600254670de0b6b3a7640000826109bd91906129db565b6109c79190612a0c565b34146109d257600080fd5b60085481111580156109e657506007548110155b6109ef57600080fd5b80600160009054906101000a900473ffffffffffffffffffffffffffffffffffffffff1673ffffffffffffffffffffffffffffffffffffffff166370a08231306040518263ffffffff1660e01b8152600401610a4b9190612bfd565b602060405180830381865afa158015610a68573d6000803e3d6000fd5b505050506040513d601f19601f82011682018060405250810190610a8c9190612f99565b1015610a9757600080fd5b80600d60003373ffffffffffffffffffffffffffffffffffffffff1673ffffffffffffffffffffffffffffffffffffffff1681526020019081526020016000206000828254610ae69190612fc6565b92505081905550600160009054906101000a900473ffffffffffffffffffffffffffffffffffffffff1673ffffffffffffffffffffffffffffffffffffffff1663a9059cbb33836040518363ffffffff1660e01b8152600401610b4a929190612ffa565b6020604051808303816000875af1158015610b69573d6000803e3d6000fd5b505050506040513d601f19601f82011682018060405250810190610b8d919061304f565b610b9657600080fd5b8060046000828254610ba89190612fc6565b925050819055507f7534e9c9396820aad756ba27f82162930f80bef863aabdf311e7dce26a79bccd8133604051610be092919061307c565b60405180910390a150565b60008054906101000a900473ffffffffffffffffffffffffffffffffffffffff1673ffffffffffffffffffffffffffffffffffffffff163373ffffffffffffffffffffffffffffffffffffffff1614610c79576040517f08c379a0000000000000000000000000000000000000000000000000000000008152600401610c7090613117565b60405180910390fd5b6000600a60006101000a81548160ff021916908315150217905550565b60008054906101000a900473ffffffffffffffffffffffffffffffffffffffff1673ffffffffffffffffffffffffffffffffffffffff163373ffffffffffffffffffffffffffffffffffffffff1614610d24576040517f08c379a0000000000000000000000000000000000000000000000000000000008152600401610d1b90613117565b60405180910390fd5b60006002811115610d3857610d37612d5e565b5b600c60008373ffffffffffffffffffffffffffffffffffffffff1673ffffffffffffffffffffffffffffffffffffffff16815260200190815260200160002060009054906101000a900460ff166002811115610d9757610d96612d5e565b5b14610dd7576040517f08c379a0000000000000000000000000000000000000000000000000000000008152600401610dce90613183565b60405180910390fd5b6001600c60008373ffffffffffffffffffffffffffffffffffffffff1673ffffffffffffffffffffffffffffffffffffffff16815260200190815260200160002060006101000a81548160ff02191690836002811115610e3a57610e39612d5e565b5b02179055506000600e60008373ffffffffffffffffffffffffffffffffffffffff1673ffffffffffffffffffffffffffffffffffffffff16815260200190815260200160002060006101000a81548160ff0219169083151502179055506001600b60008373ffffffffffffffffffffffffffffffffffffffff1673ffffffffffffffffffffffffffffffffffffffff16815260200190815260200160002060006101000a81548160ff0219169083151502179055508073ffffffffffffffffffffffffffffffffffffffff167f22ccae257baf5241d183f9fcd06432b49697e9576652b3f436249b101f32bf9460405160405180910390a250565b60008054906101000a900473ffffffffffffffffffffffffffffffffffffffff1673ffffffffffffffffffffffffffffffffffffffff163373ffffffffffffffffffffffffffffffffffffffff1614610fc3576040517f08c379a0000000000000000000000000000000000000000000000000000000008152600401610fba90613117565b60405180910390fd5b60005b8282905081101561118d576000838383818110610fe657610fe56131a3565b5b9050602002016020810190610ffb9190612ab6565b90506000600281111561101157611010612d5e565b5b600c60008373ffffffffffffffffffffffffffffffffffffffff1673ffffffffffffffffffffffffffffffffffffffff16815260200190815260200160002060009054906101000a900460ff1660028111156110705761106f612d5e565b5b03611179576002600c60008373ffffffffffffffffffffffffffffffffffffffff1673ffffffffffffffffffffffffffffffffffffffff16815260200190815260200160002060006101000a81548160ff021916908360028111156110d8576110d7612d5e565b5b02179055506000600e60008373ffffffffffffffffffffffffffffffffffffffff1673ffffffffffffffffffffffffffffffffffffffff16815260200190815260200160002060006101000a81548160ff0219169083151502179055508073ffffffffffffffffffffffffffffffffffffffff167fea4e312ba0c689a06d39183bdbe4da8a13f666c2cae20bfcc77a93cf86dada1260405160405180910390a25b508080611185906131d2565b915050610fc6565b505050565b600981815481106111a257600080fd5b906000526020600020016000915054906101000a900473ffffffffffffffffffffffffffffffffffffffff1681565b60065481565b60075481565b600b6020528060005260406000206000915054906101000a900460ff1681565b60008054906101000a900473ffffffffffffffffffffffffffffffffffffffff1673ffffffffffffffffffffffffffffffffffffffff163373ffffffffffffffffffffffffffffffffffffffff161461128b576040517f08c379a000000000000000000000000000000000000000000000000000000000815260040161128290613117565b60405180910390fd5b6001600b60008373ffffffffffffffffffffffffffffffffffffffff1673ffffffffffffffffffffffffffffffffffffffff16815260200190815260200160002060006101000a81548160ff02191690831515021790555050565b60008054906101000a900473ffffffffffffffffffffffffffffffffffffffff1673ffffffffffffffffffffffffffffffffffffffff163373ffffffffffffffffffffffffffffffffffffffff1614611374576040517f08c379a000000000000000000000000000000000000000000000000000000000815260040161136b90613117565b60405180910390fd5b6000600b60008373ffffffffffffffffffffffffffffffffffffffff1673ffffffffffffffffffffffffffffffffffffffff16815260200190815260200160002060006101000a81548160ff02191690831515021790555050565b60008054906101000a900473ffffffffffffffffffffffffffffffffffffffff1673ffffffffffffffffffffffffffffffffffffffff163373ffffffffffffffffffffffffffffffffffffffff161461145d576040517f08c379a000000000000000000000000000000000000000000000000000000000815260040161145490613117565b60405180910390fd5b600160009054906101000a900473ffffffffffffffffffffffffffffffffffffffff1673ffffffffffffffffffffffffffffffffffffffff1663a9059cbb60008054906101000a900473ffffffffffffffffffffffffffffffffffffffff16600160009054906101000a900473ffffffffffffffffffffffffffffffffffffffff1673ffffffffffffffffffffffffffffffffffffffff166370a08231306040518263ffffffff1660e01b81526004016115179190612bfd565b602060405180830381865afa158015611534573d6000803e3d6000fd5b505050506040513d601f19601f820116820180604052508101906115589190612f99565b6040518363ffffffff1660e01b8152600401611575929190612ffa565b6020604051808303816000875af1158015611594573d6000803e3d6000fd5b505050506040513d601f19601f820116820180604052508101906115b8919061304f565b6115c157600080fd5b600047905060008060009054906101000a900473ffffffffffffffffffffffffffffffffffffffff1673ffffffffffffffffffffffffffffffffffffffff168260405161160d9061324b565b60006040518083038185875af1925050503d806000811461164a576040519150601f19603f3d011682016040523d82523d6000602084013e61164f565b606091505b5050905080611693576040517f08c379a000000000000000000000000000000000000000000000000000000000815260040161168a906132ac565b60405180910390fd5b7f9d3cb3e4bff976f636db6ed472093505eb1b5bafc234ea8276ae83b3ea0a8b74600454836040516116c69291906132cc565b60405180910390a15050565b6006544211611716576040517f08c379a000000000000000000000000000000000000000000000000000000000815260040161170d90613341565b60405180910390fd5b60011515600a60009054906101000a900460ff1615151461176c576040517f08c379a0000000000000000000000000000000000000000000000000000000008152600401611763906133ad565b60405180910390fd5b6000600d60003373ffffffffffffffffffffffffffffffffffffffff1673ffffffffffffffffffffffffffffffffffffffff168152602001908152602001600020549050600081116117f3576040517f08c379a00000000000000000000000000000000000000000000000000000000081526004016117ea9061343f565b60405180910390fd5b6000600d60003373ffffffffffffffffffffffffffffffffffffffff1673ffffffffffffffffffffffffffffffffffffffff168152602001908152602001600020819055506002548161184691906129db565b60046000828254611857919061345f565b92505081905550600160009054906101000a900473ffffffffffffffffffffffffffffffffffffffff1673ffffffffffffffffffffffffffffffffffffffff166323b872dd3330846040518463ffffffff1660e01b81526004016118bd93929190613493565b6020604051808303816000875af11580156118dc573d6000803e3d6000fd5b505050506040513d601f19601f82011682018060405250810190611900919061304f565b61190957600080fd5b3373ffffffffffffffffffffffffffffffffffffffff166108fc829081150290604051600060405180830381858888f1935050505015801561194f573d6000803e3d6000fd5b5050565b60045481565b60008054906101000a900473ffffffffffffffffffffffffffffffffffffffff1673ffffffffffffffffffffffffffffffffffffffff163373ffffffffffffffffffffffffffffffffffffffff16146119e7576040517f08c379a00000000000000000000000000000000000000000000000000000000081526004016119de90613117565b60405180910390fd5b60005b82829050811015611c09576000838383818110611a0a57611a096131a3565b5b9050602002016020810190611a1f9190612ab6565b905060006002811115611a3557611a34612d5e565b5b600c60008373ffffffffffffffffffffffffffffffffffffffff1673ffffffffffffffffffffffffffffffffffffffff16815260200190815260200160002060009054906101000a900460ff166002811115611a9457611a93612d5e565b5b03611bf5576001600c60008373ffffffffffffffffffffffffffffffffffffffff1673ffffffffffffffffffffffffffffffffffffffff16815260200190815260200160002060006101000a81548160ff02191690836002811115611afc57611afb612d5e565b5b02179055506000600e60008373ffffffffffffffffffffffffffffffffffffffff1673ffffffffffffffffffffffffffffffffffffffff16815260200190815260200160002060006101000a81548160ff0219169083151502179055506001600b60008373ffffffffffffffffffffffffffffffffffffffff1673ffffffffffffffffffffffffffffffffffffffff16815260200190815260200160002060006101000a81548160ff0219169083151502179055508073ffffffffffffffffffffffffffffffffffffffff167f22ccae257baf5241d183f9fcd06432b49697e9576652b3f436249b101f32bf9460405160405180910390a25b508080611c01906131d2565b9150506119ea565b505050565b600160009054906101000a900473ffffffffffffffffffffffffffffffffffffffff1681565b60008054906101000a900473ffffffffffffffffffffffffffffffffffffffff1673ffffffffffffffffffffffffffffffffffffffff163373ffffffffffffffffffffffffffffffffffffffff1614611cc2576040517f08c379a0000000000000000000000000000000000000000000000000000000008152600401611cb990613117565b60405180910390fd5b81600581905550806006819055506000600a60006101000a81548160ff0219169083151502179055505050565b600d6020528060005260406000206000915090505481565b60006002811115611d1b57611d1a612d5e565b5b600c60003373ffffffffffffffffffffffffffffffffffffffff1673ffffffffffffffffffffffffffffffffffffffff16815260200190815260200160002060009054906101000a900460ff166002811115611d7a57611d79612d5e565b5b14611dba576040517f08c379a0000000000000000000000000000000000000000000000000000000008152600401611db190613516565b60405180910390fd5b6000600c60003373ffffffffffffffffffffffffffffffffffffffff1673ffffffffffffffffffffffffffffffffffffffff16815260200190815260200160002060006101000a81548160ff02191690836002811115611e1d57611e1c612d5e565b5b02179055506001600e60003373ffffffffffffffffffffffffffffffffffffffff1673ffffffffffffffffffffffffffffffffffffffff16815260200190815260200160002060006101000a81548160ff0219169083151502179055506009339080600181540180825580915050600190039060005260206000200160009091909190916101000a81548173ffffffffffffffffffffffffffffffffffffffff021916908373ffffffffffffffffffffffffffffffffffffffff1602179055503373ffffffffffffffffffffffffffffffffffffffff167fa226db3f664042183ee0281230bba26cbf7b5057e50aee7f25a175ff45ce4d7f60405160405180910390a2565b60055481565b606060008383905067ffffffffffffffff811115611f4957611f48613536565b5b604051908082528060200260200182016040528015611f775781602001602082028036833780820191505090505b50905060005b8484905081101561205457600c6000868684818110611f9f57611f9e6131a3565b5b9050602002016020810190611fb49190612ab6565b73ffffffffffffffffffffffffffffffffffffffff1673ffffffffffffffffffffffffffffffffffffffff16815260200190815260200160002060009054906101000a900460ff1682828151811061200f5761200e6131a3565b5b6020026020010190600281111561202957612028612d5e565b5b9081600281111561203d5761203c612d5e565b5b81525050808061204c906131d2565b915050611f7d565b508091505092915050565b60008054906101000a900473ffffffffffffffffffffffffffffffffffffffff1673ffffffffffffffffffffffffffffffffffffffff163373ffffffffffffffffffffffffffffffffffffffff16146120ed576040517f08c379a00000000000000000000000000000000000000000000000000000000081526004016120e490613117565b60405180910390fd5b6006544211612131576040517f08c379a000000000000000000000000000000000000000000000000000000000815260040161212890613341565b60405180910390fd5b6001600a60006101000a81548160ff021916908315150217905550565b60008054906101000a900473ffffffffffffffffffffffffffffffffffffffff1681565b60008054906101000a900473ffffffffffffffffffffffffffffffffffffffff1673ffffffffffffffffffffffffffffffffffffffff163373ffffffffffffffffffffffffffffffffffffffff1614612200576040517f08c379a00000000000000000000000000000000000000000000000000000000081526004016121f790613117565b60405180910390fd5b8060028190555050565b60085481565b600e6020528060005260406000206000915054906101000a900460ff1681565b60025481565b6060600061224261274d565b67ffffffffffffffff81111561225b5761225a613536565b5b6040519080825280602002602001820160405280156122895781602001602082028036833780820191505090505b5090506000805b6009805490508110156123e15760011515600e6000600984815481106122b9576122b86131a3565b5b9060005260206000200160009054906101000a900473ffffffffffffffffffffffffffffffffffffffff1673ffffffffffffffffffffffffffffffffffffffff1673ffffffffffffffffffffffffffffffffffffffff16815260200190815260200160002060009054906101000a900460ff161515036123ce5760098181548110612347576123466131a3565b5b9060005260206000200160009054906101000a900473ffffffffffffffffffffffffffffffffffffffff16838381518110612385576123846131a3565b5b602002602001019073ffffffffffffffffffffffffffffffffffffffff16908173ffffffffffffffffffffffffffffffffffffffff168152505081806123ca906131d2565b9250505b80806123d9906131d2565b915050612290565b50819250505090565b60008054906101000a900473ffffffffffffffffffffffffffffffffffffffff1673ffffffffffffffffffffffffffffffffffffffff163373ffffffffffffffffffffffffffffffffffffffff1614612478576040517f08c379a000000000000000000000000000000000000000000000000000000000815260040161246f90613117565b60405180910390fd5b6000600281111561248c5761248b612d5e565b5b600c60008373ffffffffffffffffffffffffffffffffffffffff1673ffffffffffffffffffffffffffffffffffffffff16815260200190815260200160002060009054906101000a900460ff1660028111156124eb576124ea612d5e565b5b1461252b576040517f08c379a000000000000000000000000000000000000000000000000000000000815260040161252290613183565b60405180910390fd5b6002600c60008373ffffffffffffffffffffffffffffffffffffffff1673ffffffffffffffffffffffffffffffffffffffff16815260200190815260200160002060006101000a81548160ff0219169083600281111561258e5761258d612d5e565b5b02179055506000600e60008373ffffffffffffffffffffffffffffffffffffffff1673ffffffffffffffffffffffffffffffffffffffff16815260200190815260200160002060006101000a81548160ff0219169083151502179055508073ffffffffffffffffffffffffffffffffffffffff167fea4e312ba0c689a06d39183bdbe4da8a13f666c2cae20bfcc77a93cf86dada1260405160405180910390a250565b60008054906101000a900473ffffffffffffffffffffffffffffffffffffffff1673ffffffffffffffffffffffffffffffffffffffff163373ffffffffffffffffffffffffffffffffffffffff16146126bf576040517f08c379a00000000000000000000000000000000000000000000000000000000081526004016126b690613117565b60405180910390fd5b81600781905550806008819055505050565b600c6020528060005260406000206000915054906101000a900460ff1681565b6000600b60008373ffffffffffffffffffffffffffffffffffffffff1673ffffffffffffffffffffffffffffffffffffffff16815260200190815260200160002060009054906101000a900460ff169050919050565b60035481565b6000806000905060005b60098054905081101561281657600e60006009838154811061277c5761277b6131a3565b5b9060005260206000200160009054906101000a900473ffffffffffffffffffffffffffffffffffffffff1673ffffffffffffffffffffffffffffffffffffffff1673ffffffffffffffffffffffffffffffffffffffff16815260200190815260200160002060009054906101000a900460ff16156128035781806127ff906131d2565b9250505b808061280e906131d2565b915050612757565b508091505090565b600082825260208201905092915050565b7f53616c65206973206e6f74207374617274656420796574000000000000000000600082015250565b600061286560178361281e565b91506128708261282f565b602082019050919050565b6000602082019050818103600083015261289481612858565b9050919050565b7f53616c6520616c726561647920656e6465640000000000000000000000000000600082015250565b60006128d160128361281e565b91506128dc8261289b565b602082019050919050565b60006020820190508181036000830152612900816128c4565b9050919050565b7f41646472657373206e6f742077686974656c6973746564000000000000000000600082015250565b600061293d60178361281e565b915061294882612907565b602082019050919050565b6000602082019050818103600083015261296c81612930565b9050919050565b6000819050919050565b7f4e487b7100000000000000000000000000000000000000000000000000000000600052601260045260246000fd5b7f4e487b7100000000000000000000000000000000000000000000000000000000600052601160045260246000fd5b60006129e682612973565b91506129f183612973565b925082612a0157612a0061297d565b5b828204905092915050565b6000612a1782612973565b9150612a2283612973565b9250828202612a3081612973565b91508282048414831517612a4757612a466129ac565b5b5092915050565b600080fd5b600080fd5b600073ffffffffffffffffffffffffffffffffffffffff82169050919050565b6000612a8382612a58565b9050919050565b612a9381612a78565b8114612a9e57600080fd5b50565b600081359050612ab081612a8a565b92915050565b600060208284031215612acc57612acb612a4e565b5b6000612ada84828501612aa1565b91505092915050565b600080fd5b600080fd5b600080fd5b60008083601f840112612b0857612b07612ae3565b5b8235905067ffffffffffffffff811115612b2557612b24612ae8565b5b602083019150836020820283011115612b4157612b40612aed565b5b9250929050565b60008060208385031215612b5f57612b5e612a4e565b5b600083013567ffffffffffffffff811115612b7d57612b7c612a53565b5b612b8985828601612af2565b92509250509250929050565b612b9e81612973565b8114612ba957600080fd5b50565b600081359050612bbb81612b95565b92915050565b600060208284031215612bd757612bd6612a4e565b5b6000612be584828501612bac565b91505092915050565b612bf781612a78565b82525050565b6000602082019050612c126000830184612bee565b92915050565b612c2181612973565b82525050565b6000602082019050612c3c6000830184612c18565b92915050565b60008115159050919050565b612c5781612c42565b82525050565b6000602082019050612c726000830184612c4e565b92915050565b6000819050919050565b6000612c9d612c98612c9384612a58565b612c78565b612a58565b9050919050565b6000612caf82612c82565b9050919050565b6000612cc182612ca4565b9050919050565b612cd181612cb6565b82525050565b6000602082019050612cec6000830184612cc8565b92915050565b60008060408385031215612d0957612d08612a4e565b5b6000612d1785828601612bac565b9250506020612d2885828601612bac565b9150509250929050565b600081519050919050565b600082825260208201905092915050565b6000819050602082019050919050565b7f4e487b7100000000000000000000000000000000000000000000000000000000600052602160045260246000fd5b60038110612d9e57612d9d612d5e565b5b50565b6000819050612daf82612d8d565b919050565b6000612dbf82612da1565b9050919050565b612dcf81612db4565b82525050565b6000612de18383612dc6565b60208301905092915050565b6000602082019050919050565b6000612e0582612d32565b612e0f8185612d3d565b9350612e1a83612d4e565b8060005b83811015612e4b578151612e328882612dd5565b9750612e3d83612ded565b925050600181019050612e1e565b5085935050505092915050565b60006020820190508181036000830152612e728184612dfa565b905092915050565b600081519050919050565b600082825260208201905092915050565b6000819050602082019050919050565b612eaf81612a78565b82525050565b6000612ec18383612ea6565b60208301905092915050565b6000602082019050919050565b6000612ee582612e7a565b612eef8185612e85565b9350612efa83612e96565b8060005b83811015612f2b578151612f128882612eb5565b9750612f1d83612ecd565b925050600181019050612efe565b5085935050505092915050565b60006020820190508181036000830152612f528184612eda565b905092915050565b612f6381612db4565b82525050565b6000602082019050612f7e6000830184612f5a565b92915050565b600081519050612f9381612b95565b92915050565b600060208284031215612faf57612fae612a4e565b5b6000612fbd84828501612f84565b91505092915050565b6000612fd182612973565b9150612fdc83612973565b9250828201905080821115612ff457612ff36129ac565b5b92915050565b600060408201905061300f6000830185612bee565b61301c6020830184612c18565b9392505050565b61302c81612c42565b811461303757600080fd5b50565b60008151905061304981613023565b92915050565b60006020828403121561306557613064612a4e565b5b60006130738482850161303a565b91505092915050565b60006040820190506130916000830185612c18565b61309e6020830184612bee565b9392505050565b7f4f6e6c79206f776e65722063616e2063616c6c20746869732066756e6374696f60008201527f6e00000000000000000000000000000000000000000000000000000000000000602082015250565b600061310160218361281e565b915061310c826130a5565b604082019050919050565b60006020820190508181036000830152613130816130f4565b9050919050565b7f41646472657373206973206e6f7420696e2070656e64696e67206c6973740000600082015250565b600061316d601e8361281e565b915061317882613137565b602082019050919050565b6000602082019050818103600083015261319c81613160565b9050919050565b7f4e487b7100000000000000000000000000000000000000000000000000000000600052603260045260246000fd5b60006131dd82612973565b91507fffffffffffffffffffffffffffffffffffffffffffffffffffffffffffffffff820361320f5761320e6129ac565b5b600182019050919050565b600081905092915050565b50565b600061323560008361321a565b915061324082613225565b600082019050919050565b600061325682613228565b9150819050919050565b7f4661696c656420746f2073656e64204574686572000000000000000000000000600082015250565b600061329660148361281e565b91506132a182613260565b602082019050919050565b600060208201905081810360008301526132c581613289565b9050919050565b60006040820190506132e16000830185612c18565b6132ee6020830184612c18565b9392505050565b7f53616c65206973206e6f7420656e646564207965740000000000000000000000600082015250565b600061332b60158361281e565b9150613336826132f5565b602082019050919050565b6000602082019050818103600083015261335a8161331e565b9050919050565b7f526566756e64206973206e6f7420656e61626c65640000000000000000000000600082015250565b600061339760158361281e565b91506133a282613361565b602082019050919050565b600060208201905081810360008301526133c68161338a565b9050919050565b7f596f752068617665206e6f742070757263686173656420616e7920746f6b656e60008201527f7300000000000000000000000000000000000000000000000000000000000000602082015250565b600061342960218361281e565b9150613434826133cd565b604082019050919050565b600060208201905081810360008301526134588161341c565b9050919050565b600061346a82612973565b915061347583612973565b925082820390508181111561348d5761348c6129ac565b5b92915050565b60006060820190506134a86000830186612bee565b6134b56020830185612bee565b6134c26040830184612c18565b949350505050565b7f596f75206861766520616c726561647920726571756573746564000000000000600082015250565b6000613500601a8361281e565b915061350b826134ca565b602082019050919050565b6000602082019050818103600083015261352f816134f3565b9050919050565b7f4e487b7100000000000000000000000000000000000000000000000000000000600052604160045260246000fdfea264697066735822122033e55acdf41981b64592c063e60ddd0adf0e6a4447503e6d452f541660fdf3e864736f6c63430008120033",
  "linkReferences": {},
  "deployedLinkReferences": {}
}