{
  "_format": "hh-sol-artifact-1",
  "contractName": "Crowdsale",
  "sourceName": "contracts/Crowdsale.sol",
  "abi": [
    {
      "inputs": [
        {
          "internalType": "contract DAPPToken",
          "name": "_dappToken",
          "type": "address"
        },
        {
          "internalType": "uint256",
          "name": "_price",
          "type": "uint256"
        },
        {
          "internalType": "uint256",
          "name": "_maxTokens",
          "type": "uint256"
        },
        {
          "internalType": "uint256",
          "name": "_startTime",
          "type": "uint256"
        },
        {
          "internalType": "uint256",
          "name": "_endTime",
          "type": "uint256"
        },
        {
          "internalType": "uint256",
          "name": "_minPurchase",
          "type": "uint256"
        },
        {
          "internalType": "uint256",
          "name": "_maxPurchase",
          "type": "uint256"
        }
      ],
      "stateMutability": "nonpayable",
      "type": "constructor"
    },
    {
      "anonymous": false,
      "inputs": [
        {
          "indexed": true,
          "internalType": "address",
          "name": "_addr",
          "type": "address"
        }
      ],
      "name": "AddressAdded",
      "type": "event"
    },
    {
      "anonymous": false,
      "inputs": [
        {
          "indexed": true,
          "internalType": "address",
          "name": "_addr",
          "type": "address"
        }
      ],
      "name": "AddressApproved",
      "type": "event"
    },
    {
      "anonymous": false,
      "inputs": [
        {
          "indexed": true,
          "internalType": "address",
          "name": "_addr",
          "type": "address"
        }
      ],
      "name": "AddressRejected",
      "type": "event"
    },
    {
      "anonymous": false,
      "inputs": [
        {
          "indexed": false,
          "internalType": "uint256",
          "name": "amount",
          "type": "uint256"
        },
        {
          "indexed": false,
          "internalType": "address",
          "name": "buyer",
          "type": "address"
        }
      ],
      "name": "Buy",
      "type": "event"
    },
    {
      "anonymous": false,
      "inputs": [
        {
          "indexed": false,
          "internalType": "uint256",
          "name": "amount",
          "type": "uint256"
        },
        {
          "indexed": false,
          "internalType": "uint256",
          "name": "value",
          "type": "uint256"
        }
      ],
      "name": "Finalize",
      "type": "event"
    },
    {
      "inputs": [
        {
          "internalType": "address",
          "name": "_addr",
          "type": "address"
        }
      ],
      "name": "approveWhitelist",
      "outputs": [],
      "stateMutability": "nonpayable",
      "type": "function"
    },
    {
      "inputs": [
        {
          "internalType": "address[]",
          "name": "_addresses",
          "type": "address[]"
        }
      ],
      "name": "approveWhitelistToAll",
      "outputs": [],
      "stateMutability": "nonpayable",
      "type": "function"
    },
    {
      "inputs": [
        {
          "internalType": "uint256",
          "name": "_amount",
          "type": "uint256"
        }
      ],
      "name": "buyTokens",
      "outputs": [],
      "stateMutability": "payable",
      "type": "function"
    },
    {
      "inputs": [],
      "name": "dappToken",
      "outputs": [
        {
          "internalType": "contract DAPPToken",
          "name": "",
          "type": "address"
        }
      ],
      "stateMutability": "view",
      "type": "function"
    },
    {
      "inputs": [],
      "name": "disableRefund",
      "outputs": [],
      "stateMutability": "nonpayable",
      "type": "function"
    },
    {
      "inputs": [],
      "name": "enableRefund",
      "outputs": [],
      "stateMutability": "nonpayable",
      "type": "function"
    },
    {
      "inputs": [],
      "name": "endTime",
      "outputs": [
        {
          "internalType": "uint256",
          "name": "",
          "type": "uint256"
        }
      ],
      "stateMutability": "view",
      "type": "function"
    },
    {
      "inputs": [],
      "name": "finalize",
      "outputs": [],
      "stateMutability": "nonpayable",
      "type": "function"
    },
    {
      "inputs": [
        {
          "internalType": "address",
          "name": "_addr",
          "type": "address"
        }
      ],
      "name": "getWhitelistStatus",
      "outputs": [
        {
          "internalType": "bool",
          "name": "",
          "type": "bool"
        }
      ],
      "stateMutability": "view",
      "type": "function"
    },
    {
      "inputs": [
        {
          "internalType": "address[]",
          "name": "_addresses",
          "type": "address[]"
        }
      ],
      "name": "getWhitelistStatusAll",
      "outputs": [
        {
          "internalType": "enum Crowdsale.WhitelistStatus[]",
          "name": "",
          "type": "uint8[]"
        }
      ],
      "stateMutability": "view",
      "type": "function"
    },
    {
      "inputs": [
        {
          "internalType": "address",
          "name": "",
          "type": "address"
        }
      ],
      "name": "isWhitelisted",
      "outputs": [
        {
          "internalType": "bool",
          "name": "",
          "type": "bool"
        }
      ],
      "stateMutability": "view",
      "type": "function"
    },
    {
      "inputs": [],
      "name": "maxPurchase",
      "outputs": [
        {
          "internalType": "uint256",
          "name": "",
          "type": "uint256"
        }
      ],
      "stateMutability": "view",
      "type": "function"
    },
    {
      "inputs": [],
      "name": "maxTokens",
      "outputs": [
        {
          "internalType": "uint256",
          "name": "",
          "type": "uint256"
        }
      ],
      "stateMutability": "view",
      "type": "function"
    },
    {
      "inputs": [],
      "name": "minPurchase",
      "outputs": [
        {
          "internalType": "uint256",
          "name": "",
          "type": "uint256"
        }
      ],
      "stateMutability": "view",
      "type": "function"
    },
    {
      "inputs": [],
      "name": "owner",
      "outputs": [
        {
          "internalType": "address",
          "name": "",
          "type": "address"
        }
      ],
      "stateMutability": "view",
      "type": "function"
    },
    {
      "inputs": [],
      "name": "price",
      "outputs": [
        {
          "internalType": "uint256",
          "name": "",
          "type": "uint256"
        }
      ],
      "stateMutability": "view",
      "type": "function"
    },
    {
      "inputs": [
        {
          "internalType": "address",
          "name": "",
          "type": "address"
        }
      ],
      "name": "purchaseAmount",
      "outputs": [
        {
          "internalType": "uint256",
          "name": "",
          "type": "uint256"
        }
      ],
      "stateMutability": "view",
      "type": "function"
    },
    {
      "inputs": [],
      "name": "refundCampaign",
      "outputs": [],
      "stateMutability": "nonpayable",
      "type": "function"
    },
    {
      "inputs": [
        {
          "internalType": "address",
          "name": "_addr",
          "type": "address"
        }
      ],
      "name": "rejectWhitelist",
      "outputs": [],
      "stateMutability": "nonpayable",
      "type": "function"
    },
    {
      "inputs": [
        {
          "internalType": "address[]",
          "name": "_addresses",
          "type": "address[]"
        }
      ],
      "name": "rejectWhitelistToAll",
      "outputs": [],
      "stateMutability": "nonpayable",
      "type": "function"
    },
    {
      "inputs": [
        {
          "internalType": "address",
          "name": "_addr",
          "type": "address"
        }
      ],
      "name": "removeAddressFromWhiteList",
      "outputs": [],
      "stateMutability": "nonpayable",
      "type": "function"
    },
    {
      "inputs": [],
      "name": "requestWhitelist",
      "outputs": [],
      "stateMutability": "nonpayable",
      "type": "function"
    },
    {
      "inputs": [
        {
          "internalType": "uint256",
          "name": "_startTime",
          "type": "uint256"
        },
        {
          "internalType": "uint256",
          "name": "_endTime",
          "type": "uint256"
        }
      ],
      "name": "restartCampaign",
      "outputs": [],
      "stateMutability": "nonpayable",
      "type": "function"
    },
    {
      "inputs": [
        {
          "internalType": "uint256",
          "name": "_minPurchase",
          "type": "uint256"
        },
        {
          "internalType": "uint256",
          "name": "_maxPurchase",
          "type": "uint256"
        }
      ],
      "name": "setContribution",
      "outputs": [],
      "stateMutability": "nonpayable",
      "type": "function"
    },
    {
      "inputs": [
        {
          "internalType": "uint256",
          "name": "_price",
          "type": "uint256"
        }
      ],
      "name": "setPrice",
      "outputs": [],
      "stateMutability": "nonpayable",
      "type": "function"
    },
    {
      "inputs": [],
      "name": "startTime",
      "outputs": [
        {
          "internalType": "uint256",
          "name": "",
          "type": "uint256"
        }
      ],
      "stateMutability": "view",
      "type": "function"
    },
    {
      "inputs": [],
      "name": "tokensSold",
      "outputs": [
        {
          "internalType": "uint256",
          "name": "",
          "type": "uint256"
        }
      ],
      "stateMutability": "view",
      "type": "function"
    },
    {
      "inputs": [
        {
          "internalType": "address",
          "name": "",
          "type": "address"
        }
      ],
      "name": "whiteListStatus",
      "outputs": [
        {
          "internalType": "enum Crowdsale.WhitelistStatus",
          "name": "",
          "type": "uint8"
        }
      ],
      "stateMutability": "view",
      "type": "function"
    },
    {
      "inputs": [
        {
          "internalType": "address",
          "name": "_addr",
          "type": "address"
        }
      ],
      "name": "whitelistAddress",
      "outputs": [],
      "stateMutability": "nonpayable",
      "type": "function"
    },
    {
      "stateMutability": "payable",
      "type": "receive"
    }
  ],
  "bytecode": "0x60806040523480156200001157600080fd5b5060405162003161380380620031618339818101604052810190620000379190620001a8565b336000806101000a81548173ffffffffffffffffffffffffffffffffffffffff021916908373ffffffffffffffffffffffffffffffffffffffff16021790555086600160006101000a81548173ffffffffffffffffffffffffffffffffffffffff021916908373ffffffffffffffffffffffffffffffffffffffff160217905550856002819055508460038190555083600581905550826006819055508160078190555080600881905550505050505050506200025b565b600080fd5b600073ffffffffffffffffffffffffffffffffffffffff82169050919050565b60006200012182620000f4565b9050919050565b6000620001358262000114565b9050919050565b620001478162000128565b81146200015357600080fd5b50565b60008151905062000167816200013c565b92915050565b6000819050919050565b62000182816200016d565b81146200018e57600080fd5b50565b600081519050620001a28162000177565b92915050565b600080600080600080600060e0888a031215620001ca57620001c9620000ef565b5b6000620001da8a828b0162000156565b9750506020620001ed8a828b0162000191565b9650506040620002008a828b0162000191565b9550506060620002138a828b0162000191565b9450506080620002268a828b0162000191565b93505060a0620002398a828b0162000191565b92505060c06200024c8a828b0162000191565b91505092959891949750929550565b612ef6806200026b6000396000f3fe6080604052600436106101c65760003560e01c80636504d350116100f75780638da5cb5b11610095578063ca6ae74411610064578063ca6ae74414610710578063ca8c3e7714610739578063d9ba32fc14610762578063e83157421461079f57610311565b80638da5cb5b1461066657806391b7f5ed14610691578063977b055b146106ba578063a035b1fe146106e557610311565b80636e1e9349116100d15780636e1e9349146105d057806378e97925146105e75780637d3b56151461061257806389e423461461064f57610311565b80636504d3501461052d5780636c5cde68146105565780636c7e8cf71461059357610311565b806341566585116101645780634cc2cb851161013e5780634cc2cb8514610497578063518ab2a8146104ae57806356572a78146104d95780635eb186f81461050257610311565b8063415665851461042e5780634bb01abb146104575780634bb278f31461048057610311565b80633197cbb6116101a05780633197cbb61461037f57806333b5b62e146103aa5780633610724e146103d55780633af32abf146103f157610311565b8063015013471461031657806316f8d3fc1461032d5780631d10fd861461035657610311565b3661031157600554421015610210576040517f08c379a0000000000000000000000000000000000000000000000000000000008152600401610207906122b6565b60405180910390fd5b600654421115610255576040517f08c379a000000000000000000000000000000000000000000000000000000000815260040161024c90612322565b60405180910390fd5b600a60003373ffffffffffffffffffffffffffffffffffffffff1673ffffffffffffffffffffffffffffffffffffffff16815260200190815260200160002060009054906101000a900460ff166102e1576040517f08c379a00000000000000000000000000000000000000000000000000000000081526004016102d89061238e565b60405180910390fd5b6000600254346102f19190612416565b905061030f670de0b6b3a76400008261030a9190612447565b6107ca565b005b600080fd5b34801561032257600080fd5b5061032b610b25565b005b34801561033957600080fd5b50610354600480360381019061034f91906124f1565b610bd0565b005b34801561036257600080fd5b5061037d60048036038101906103789190612583565b610e17565b005b34801561038b57600080fd5b5061039461101c565b6040516103a191906125df565b60405180910390f35b3480156103b657600080fd5b506103bf611022565b6040516103cc91906125df565b60405180910390f35b6103ef60048036038101906103ea9190612626565b6107ca565b005b3480156103fd57600080fd5b50610418600480360381019061041391906124f1565b611028565b604051610425919061266e565b60405180910390f35b34801561043a57600080fd5b50610455600480360381019061045091906124f1565b611048565b005b34801561046357600080fd5b5061047e600480360381019061047991906124f1565b611131565b005b34801561048c57600080fd5b5061049561121a565b005b3480156104a357600080fd5b506104ac61151d565b005b3480156104ba57600080fd5b506104c361179e565b6040516104d091906125df565b60405180910390f35b3480156104e557600080fd5b5061050060048036038101906104fb9190612583565b6117a4565b005b34801561050e57600080fd5b50610517611a01565b60405161052491906126e8565b60405180910390f35b34801561053957600080fd5b50610554600480360381019061054f9190612703565b611a27565b005b34801561056257600080fd5b5061057d600480360381019061057891906124f1565b611ae2565b60405161058a91906125df565b60405180910390f35b34801561059f57600080fd5b506105ba60048036038101906105b591906124f1565b611afa565b6040516105c791906127ba565b60405180910390f35b3480156105dc57600080fd5b506105e5611b1a565b005b3480156105f357600080fd5b506105fc611c7a565b60405161060991906125df565b60405180910390f35b34801561061e57600080fd5b5061063960048036038101906106349190612583565b611c80565b6040516106469190612893565b60405180910390f35b34801561065b57600080fd5b50610664611db7565b005b34801561067257600080fd5b5061067b611ea6565b60405161068891906128c4565b60405180910390f35b34801561069d57600080fd5b506106b860048036038101906106b39190612626565b611eca565b005b3480156106c657600080fd5b506106cf611f62565b6040516106dc91906125df565b60405180910390f35b3480156106f157600080fd5b506106fa611f68565b60405161070791906125df565b60405180910390f35b34801561071c57600080fd5b50610737600480360381019061073291906124f1565b611f6e565b005b34801561074557600080fd5b50610760600480360381019061075b9190612703565b61215d565b005b34801561076e57600080fd5b50610789600480360381019061078491906124f1565b6121fd565b604051610796919061266e565b60405180910390f35b3480156107ab57600080fd5b506107b4612253565b6040516107c191906125df565b60405180910390f35b600a60003373ffffffffffffffffffffffffffffffffffffffff1673ffffffffffffffffffffffffffffffffffffffff16815260200190815260200160002060009054906101000a900460ff16610856576040517f08c379a000000000000000000000000000000000000000000000000000000000815260040161084d9061238e565b60405180910390fd5b60055442101561089b576040517f08c379a0000000000000000000000000000000000000000000000000000000008152600401610892906122b6565b60405180910390fd5b6006544211156108e0576040517f08c379a00000000000000000000000000000000000000000000000000000000081526004016108d790612322565b60405180910390fd5b600254670de0b6b3a7640000826108f79190612416565b6109019190612447565b341461090c57600080fd5b600854811115801561092057506007548110155b61092957600080fd5b80600160009054906101000a900473ffffffffffffffffffffffffffffffffffffffff1673ffffffffffffffffffffffffffffffffffffffff166370a08231306040518263ffffffff1660e01b815260040161098591906128c4565b602060405180830381865afa1580156109a2573d6000803e3d6000fd5b505050506040513d601f19601f820116820180604052508101906109c691906128f4565b10156109d157600080fd5b80600c60003373ffffffffffffffffffffffffffffffffffffffff1673ffffffffffffffffffffffffffffffffffffffff1681526020019081526020016000206000828254610a209190612921565b92505081905550600160009054906101000a900473ffffffffffffffffffffffffffffffffffffffff1673ffffffffffffffffffffffffffffffffffffffff1663a9059cbb33836040518363ffffffff1660e01b8152600401610a84929190612955565b6020604051808303816000875af1158015610aa3573d6000803e3d6000fd5b505050506040513d601f19601f82011682018060405250810190610ac791906129aa565b610ad057600080fd5b8060046000828254610ae29190612921565b925050819055507f7534e9c9396820aad756ba27f82162930f80bef863aabdf311e7dce26a79bccd8133604051610b1a9291906129d7565b60405180910390a150565b60008054906101000a900473ffffffffffffffffffffffffffffffffffffffff1673ffffffffffffffffffffffffffffffffffffffff163373ffffffffffffffffffffffffffffffffffffffff1614610bb3576040517f08c379a0000000000000000000000000000000000000000000000000000000008152600401610baa90612a72565b60405180910390fd5b6000600960006101000a81548160ff021916908315150217905550565b60008054906101000a900473ffffffffffffffffffffffffffffffffffffffff1673ffffffffffffffffffffffffffffffffffffffff163373ffffffffffffffffffffffffffffffffffffffff1614610c5e576040517f08c379a0000000000000000000000000000000000000000000000000000000008152600401610c5590612a72565b60405180910390fd5b60006002811115610c7257610c71612743565b5b600b60008373ffffffffffffffffffffffffffffffffffffffff1673ffffffffffffffffffffffffffffffffffffffff16815260200190815260200160002060009054906101000a900460ff166002811115610cd157610cd0612743565b5b14610d11576040517f08c379a0000000000000000000000000000000000000000000000000000000008152600401610d0890612ade565b60405180910390fd5b6001600b60008373ffffffffffffffffffffffffffffffffffffffff1673ffffffffffffffffffffffffffffffffffffffff16815260200190815260200160002060006101000a81548160ff02191690836002811115610d7457610d73612743565b5b02179055506001600a60008373ffffffffffffffffffffffffffffffffffffffff1673ffffffffffffffffffffffffffffffffffffffff16815260200190815260200160002060006101000a81548160ff0219169083151502179055508073ffffffffffffffffffffffffffffffffffffffff167f22ccae257baf5241d183f9fcd06432b49697e9576652b3f436249b101f32bf9460405160405180910390a250565b60008054906101000a900473ffffffffffffffffffffffffffffffffffffffff1673ffffffffffffffffffffffffffffffffffffffff163373ffffffffffffffffffffffffffffffffffffffff1614610ea5576040517f08c379a0000000000000000000000000000000000000000000000000000000008152600401610e9c90612a72565b60405180910390fd5b60005b82829050811015611017576000838383818110610ec857610ec7612afe565b5b9050602002016020810190610edd91906124f1565b905060006002811115610ef357610ef2612743565b5b600b60008373ffffffffffffffffffffffffffffffffffffffff1673ffffffffffffffffffffffffffffffffffffffff16815260200190815260200160002060009054906101000a900460ff166002811115610f5257610f51612743565b5b03611003576002600b60008373ffffffffffffffffffffffffffffffffffffffff1673ffffffffffffffffffffffffffffffffffffffff16815260200190815260200160002060006101000a81548160ff02191690836002811115610fba57610fb9612743565b5b02179055508073ffffffffffffffffffffffffffffffffffffffff167fea4e312ba0c689a06d39183bdbe4da8a13f666c2cae20bfcc77a93cf86dada1260405160405180910390a25b50808061100f90612b2d565b915050610ea8565b505050565b60065481565b60075481565b600a6020528060005260406000206000915054906101000a900460ff1681565b60008054906101000a900473ffffffffffffffffffffffffffffffffffffffff1673ffffffffffffffffffffffffffffffffffffffff163373ffffffffffffffffffffffffffffffffffffffff16146110d6576040517f08c379a00000000000000000000000000000000000000000000000000000000081526004016110cd90612a72565b60405180910390fd5b6001600a60008373ffffffffffffffffffffffffffffffffffffffff1673ffffffffffffffffffffffffffffffffffffffff16815260200190815260200160002060006101000a81548160ff02191690831515021790555050565b60008054906101000a900473ffffffffffffffffffffffffffffffffffffffff1673ffffffffffffffffffffffffffffffffffffffff163373ffffffffffffffffffffffffffffffffffffffff16146111bf576040517f08c379a00000000000000000000000000000000000000000000000000000000081526004016111b690612a72565b60405180910390fd5b6000600a60008373ffffffffffffffffffffffffffffffffffffffff1673ffffffffffffffffffffffffffffffffffffffff16815260200190815260200160002060006101000a81548160ff02191690831515021790555050565b60008054906101000a900473ffffffffffffffffffffffffffffffffffffffff1673ffffffffffffffffffffffffffffffffffffffff163373ffffffffffffffffffffffffffffffffffffffff16146112a8576040517f08c379a000000000000000000000000000000000000000000000000000000000815260040161129f90612a72565b60405180910390fd5b600160009054906101000a900473ffffffffffffffffffffffffffffffffffffffff1673ffffffffffffffffffffffffffffffffffffffff1663a9059cbb60008054906101000a900473ffffffffffffffffffffffffffffffffffffffff16600160009054906101000a900473ffffffffffffffffffffffffffffffffffffffff1673ffffffffffffffffffffffffffffffffffffffff166370a08231306040518263ffffffff1660e01b815260040161136291906128c4565b602060405180830381865afa15801561137f573d6000803e3d6000fd5b505050506040513d601f19601f820116820180604052508101906113a391906128f4565b6040518363ffffffff1660e01b81526004016113c0929190612955565b6020604051808303816000875af11580156113df573d6000803e3d6000fd5b505050506040513d601f19601f8201168201806040525081019061140391906129aa565b61140c57600080fd5b600047905060008060009054906101000a900473ffffffffffffffffffffffffffffffffffffffff1673ffffffffffffffffffffffffffffffffffffffff168260405161145890612ba6565b60006040518083038185875af1925050503d8060008114611495576040519150601f19603f3d011682016040523d82523d6000602084013e61149a565b606091505b50509050806114de576040517f08c379a00000000000000000000000000000000000000000000000000000000081526004016114d590612c07565b60405180910390fd5b7f9d3cb3e4bff976f636db6ed472093505eb1b5bafc234ea8276ae83b3ea0a8b7460045483604051611511929190612c27565b60405180910390a15050565b6006544211611561576040517f08c379a000000000000000000000000000000000000000000000000000000000815260040161155890612c9c565b60405180910390fd5b60011515600960009054906101000a900460ff161515146115b7576040517f08c379a00000000000000000000000000000000000000000000000000000000081526004016115ae90612d08565b60405180910390fd5b6000600c60003373ffffffffffffffffffffffffffffffffffffffff1673ffffffffffffffffffffffffffffffffffffffff1681526020019081526020016000205490506000811161163e576040517f08c379a000000000000000000000000000000000000000000000000000000000815260040161163590612d9a565b60405180910390fd5b6000600c60003373ffffffffffffffffffffffffffffffffffffffff1673ffffffffffffffffffffffffffffffffffffffff16815260200190815260200160002081905550600254816116919190612416565b600460008282546116a29190612dba565b92505081905550600160009054906101000a900473ffffffffffffffffffffffffffffffffffffffff1673ffffffffffffffffffffffffffffffffffffffff166323b872dd3330846040518463ffffffff1660e01b815260040161170893929190612dee565b6020604051808303816000875af1158015611727573d6000803e3d6000fd5b505050506040513d601f19601f8201168201806040525081019061174b91906129aa565b61175457600080fd5b3373ffffffffffffffffffffffffffffffffffffffff166108fc829081150290604051600060405180830381858888f1935050505015801561179a573d6000803e3d6000fd5b5050565b60045481565b60008054906101000a900473ffffffffffffffffffffffffffffffffffffffff1673ffffffffffffffffffffffffffffffffffffffff163373ffffffffffffffffffffffffffffffffffffffff1614611832576040517f08c379a000000000000000000000000000000000000000000000000000000000815260040161182990612a72565b60405180910390fd5b60005b828290508110156119fc57600083838381811061185557611854612afe565b5b905060200201602081019061186a91906124f1565b9050600060028111156118805761187f612743565b5b600b60008373ffffffffffffffffffffffffffffffffffffffff1673ffffffffffffffffffffffffffffffffffffffff16815260200190815260200160002060009054906101000a900460ff1660028111156118df576118de612743565b5b036119e8576001600b60008373ffffffffffffffffffffffffffffffffffffffff1673ffffffffffffffffffffffffffffffffffffffff16815260200190815260200160002060006101000a81548160ff0219169083600281111561194757611946612743565b5b02179055506001600a60008373ffffffffffffffffffffffffffffffffffffffff1673ffffffffffffffffffffffffffffffffffffffff16815260200190815260200160002060006101000a81548160ff0219169083151502179055508073ffffffffffffffffffffffffffffffffffffffff167f22ccae257baf5241d183f9fcd06432b49697e9576652b3f436249b101f32bf9460405160405180910390a25b5080806119f490612b2d565b915050611835565b505050565b600160009054906101000a900473ffffffffffffffffffffffffffffffffffffffff1681565b60008054906101000a900473ffffffffffffffffffffffffffffffffffffffff1673ffffffffffffffffffffffffffffffffffffffff163373ffffffffffffffffffffffffffffffffffffffff1614611ab5576040517f08c379a0000000000000000000000000000000000000000000000000000000008152600401611aac90612a72565b60405180910390fd5b81600581905550806006819055506000600960006101000a81548160ff0219169083151502179055505050565b600c6020528060005260406000206000915090505481565b600b6020528060005260406000206000915054906101000a900460ff1681565b60006002811115611b2e57611b2d612743565b5b600b60003373ffffffffffffffffffffffffffffffffffffffff1673ffffffffffffffffffffffffffffffffffffffff16815260200190815260200160002060009054906101000a900460ff166002811115611b8d57611b8c612743565b5b14611bcd576040517f08c379a0000000000000000000000000000000000000000000000000000000008152600401611bc490612e71565b60405180910390fd5b6000600b60003373ffffffffffffffffffffffffffffffffffffffff1673ffffffffffffffffffffffffffffffffffffffff16815260200190815260200160002060006101000a81548160ff02191690836002811115611c3057611c2f612743565b5b02179055503373ffffffffffffffffffffffffffffffffffffffff167fa226db3f664042183ee0281230bba26cbf7b5057e50aee7f25a175ff45ce4d7f60405160405180910390a2565b60055481565b606060008383905067ffffffffffffffff811115611ca157611ca0612e91565b5b604051908082528060200260200182016040528015611ccf5781602001602082028036833780820191505090505b50905060005b84849050811015611dac57600b6000868684818110611cf757611cf6612afe565b5b9050602002016020810190611d0c91906124f1565b73ffffffffffffffffffffffffffffffffffffffff1673ffffffffffffffffffffffffffffffffffffffff16815260200190815260200160002060009054906101000a900460ff16828281518110611d6757611d66612afe565b5b60200260200101906002811115611d8157611d80612743565b5b90816002811115611d9557611d94612743565b5b815250508080611da490612b2d565b915050611cd5565b508091505092915050565b60008054906101000a900473ffffffffffffffffffffffffffffffffffffffff1673ffffffffffffffffffffffffffffffffffffffff163373ffffffffffffffffffffffffffffffffffffffff1614611e45576040517f08c379a0000000000000000000000000000000000000000000000000000000008152600401611e3c90612a72565b60405180910390fd5b6006544211611e89576040517f08c379a0000000000000000000000000000000000000000000000000000000008152600401611e8090612c9c565b60405180910390fd5b6001600960006101000a81548160ff021916908315150217905550565b60008054906101000a900473ffffffffffffffffffffffffffffffffffffffff1681565b60008054906101000a900473ffffffffffffffffffffffffffffffffffffffff1673ffffffffffffffffffffffffffffffffffffffff163373ffffffffffffffffffffffffffffffffffffffff1614611f58576040517f08c379a0000000000000000000000000000000000000000000000000000000008152600401611f4f90612a72565b60405180910390fd5b8060028190555050565b60085481565b60025481565b60008054906101000a900473ffffffffffffffffffffffffffffffffffffffff1673ffffffffffffffffffffffffffffffffffffffff163373ffffffffffffffffffffffffffffffffffffffff1614611ffc576040517f08c379a0000000000000000000000000000000000000000000000000000000008152600401611ff390612a72565b60405180910390fd5b600060028111156120105761200f612743565b5b600b60008373ffffffffffffffffffffffffffffffffffffffff1673ffffffffffffffffffffffffffffffffffffffff16815260200190815260200160002060009054906101000a900460ff16600281111561206f5761206e612743565b5b146120af576040517f08c379a00000000000000000000000000000000000000000000000000000000081526004016120a690612ade565b60405180910390fd5b6002600b60008373ffffffffffffffffffffffffffffffffffffffff1673ffffffffffffffffffffffffffffffffffffffff16815260200190815260200160002060006101000a81548160ff0219169083600281111561211257612111612743565b5b02179055508073ffffffffffffffffffffffffffffffffffffffff167fea4e312ba0c689a06d39183bdbe4da8a13f666c2cae20bfcc77a93cf86dada1260405160405180910390a250565b60008054906101000a900473ffffffffffffffffffffffffffffffffffffffff1673ffffffffffffffffffffffffffffffffffffffff163373ffffffffffffffffffffffffffffffffffffffff16146121eb576040517f08c379a00000000000000000000000000000000000000000000000000000000081526004016121e290612a72565b60405180910390fd5b81600781905550806008819055505050565b6000600a60008373ffffffffffffffffffffffffffffffffffffffff1673ffffffffffffffffffffffffffffffffffffffff16815260200190815260200160002060009054906101000a900460ff169050919050565b60035481565b600082825260208201905092915050565b7f53616c65206973206e6f74207374617274656420796574000000000000000000600082015250565b60006122a0601783612259565b91506122ab8261226a565b602082019050919050565b600060208201905081810360008301526122cf81612293565b9050919050565b7f53616c6520616c726561647920656e6465640000000000000000000000000000600082015250565b600061230c601283612259565b9150612317826122d6565b602082019050919050565b6000602082019050818103600083015261233b816122ff565b9050919050565b7f41646472657373206e6f742077686974656c6973746564000000000000000000600082015250565b6000612378601783612259565b915061238382612342565b602082019050919050565b600060208201905081810360008301526123a78161236b565b9050919050565b6000819050919050565b7f4e487b7100000000000000000000000000000000000000000000000000000000600052601260045260246000fd5b7f4e487b7100000000000000000000000000000000000000000000000000000000600052601160045260246000fd5b6000612421826123ae565b915061242c836123ae565b92508261243c5761243b6123b8565b5b828204905092915050565b6000612452826123ae565b915061245d836123ae565b925082820261246b816123ae565b91508282048414831517612482576124816123e7565b5b5092915050565b600080fd5b600080fd5b600073ffffffffffffffffffffffffffffffffffffffff82169050919050565b60006124be82612493565b9050919050565b6124ce816124b3565b81146124d957600080fd5b50565b6000813590506124eb816124c5565b92915050565b60006020828403121561250757612506612489565b5b6000612515848285016124dc565b91505092915050565b600080fd5b600080fd5b600080fd5b60008083601f8401126125435761254261251e565b5b8235905067ffffffffffffffff8111156125605761255f612523565b5b60208301915083602082028301111561257c5761257b612528565b5b9250929050565b6000806020838503121561259a57612599612489565b5b600083013567ffffffffffffffff8111156125b8576125b761248e565b5b6125c48582860161252d565b92509250509250929050565b6125d9816123ae565b82525050565b60006020820190506125f460008301846125d0565b92915050565b612603816123ae565b811461260e57600080fd5b50565b600081359050612620816125fa565b92915050565b60006020828403121561263c5761263b612489565b5b600061264a84828501612611565b91505092915050565b60008115159050919050565b61266881612653565b82525050565b6000602082019050612683600083018461265f565b92915050565b6000819050919050565b60006126ae6126a96126a484612493565b612689565b612493565b9050919050565b60006126c082612693565b9050919050565b60006126d2826126b5565b9050919050565b6126e2816126c7565b82525050565b60006020820190506126fd60008301846126d9565b92915050565b6000806040838503121561271a57612719612489565b5b600061272885828601612611565b925050602061273985828601612611565b9150509250929050565b7f4e487b7100000000000000000000000000000000000000000000000000000000600052602160045260246000fd5b6003811061278357612782612743565b5b50565b600081905061279482612772565b919050565b60006127a482612786565b9050919050565b6127b481612799565b82525050565b60006020820190506127cf60008301846127ab565b92915050565b600081519050919050565b600082825260208201905092915050565b6000819050602082019050919050565b61280a81612799565b82525050565b600061281c8383612801565b60208301905092915050565b6000602082019050919050565b6000612840826127d5565b61284a81856127e0565b9350612855836127f1565b8060005b8381101561288657815161286d8882612810565b975061287883612828565b925050600181019050612859565b5085935050505092915050565b600060208201905081810360008301526128ad8184612835565b905092915050565b6128be816124b3565b82525050565b60006020820190506128d960008301846128b5565b92915050565b6000815190506128ee816125fa565b92915050565b60006020828403121561290a57612909612489565b5b6000612918848285016128df565b91505092915050565b600061292c826123ae565b9150612937836123ae565b925082820190508082111561294f5761294e6123e7565b5b92915050565b600060408201905061296a60008301856128b5565b61297760208301846125d0565b9392505050565b61298781612653565b811461299257600080fd5b50565b6000815190506129a48161297e565b92915050565b6000602082840312156129c0576129bf612489565b5b60006129ce84828501612995565b91505092915050565b60006040820190506129ec60008301856125d0565b6129f960208301846128b5565b9392505050565b7f4f6e6c79206f776e65722063616e2063616c6c20746869732066756e6374696f60008201527f6e00000000000000000000000000000000000000000000000000000000000000602082015250565b6000612a5c602183612259565b9150612a6782612a00565b604082019050919050565b60006020820190508181036000830152612a8b81612a4f565b9050919050565b7f41646472657373206973206e6f7420696e2070656e64696e67206c6973740000600082015250565b6000612ac8601e83612259565b9150612ad382612a92565b602082019050919050565b60006020820190508181036000830152612af781612abb565b9050919050565b7f4e487b7100000000000000000000000000000000000000000000000000000000600052603260045260246000fd5b6000612b38826123ae565b91507fffffffffffffffffffffffffffffffffffffffffffffffffffffffffffffffff8203612b6a57612b696123e7565b5b600182019050919050565b600081905092915050565b50565b6000612b90600083612b75565b9150612b9b82612b80565b600082019050919050565b6000612bb182612b83565b9150819050919050565b7f4661696c656420746f2073656e64204574686572000000000000000000000000600082015250565b6000612bf1601483612259565b9150612bfc82612bbb565b602082019050919050565b60006020820190508181036000830152612c2081612be4565b9050919050565b6000604082019050612c3c60008301856125d0565b612c4960208301846125d0565b9392505050565b7f53616c65206973206e6f7420656e646564207965740000000000000000000000600082015250565b6000612c86601583612259565b9150612c9182612c50565b602082019050919050565b60006020820190508181036000830152612cb581612c79565b9050919050565b7f526566756e64206973206e6f7420656e61626c65640000000000000000000000600082015250565b6000612cf2601583612259565b9150612cfd82612cbc565b602082019050919050565b60006020820190508181036000830152612d2181612ce5565b9050919050565b7f596f752068617665206e6f742070757263686173656420616e7920746f6b656e60008201527f7300000000000000000000000000000000000000000000000000000000000000602082015250565b6000612d84602183612259565b9150612d8f82612d28565b604082019050919050565b60006020820190508181036000830152612db381612d77565b9050919050565b6000612dc5826123ae565b9150612dd0836123ae565b9250828203905081811115612de857612de76123e7565b5b92915050565b6000606082019050612e0360008301866128b5565b612e1060208301856128b5565b612e1d60408301846125d0565b949350505050565b7f596f75206861766520616c726561647920726571756573746564000000000000600082015250565b6000612e5b601a83612259565b9150612e6682612e25565b602082019050919050565b60006020820190508181036000830152612e8a81612e4e565b9050919050565b7f4e487b7100000000000000000000000000000000000000000000000000000000600052604160045260246000fdfea2646970667358221220581a3c650cd8440cfea1f8e2368deee52cd1f970190c6f606958d69c9824428464736f6c63430008120033",
  "linkReferences": {},
  "deployedLinkReferences": {}
}