{
  "_format": "hh-sol-artifact-1",
  "contractName": "Crowdsale",
  "sourceName": "contracts/Crowdsale.sol",
  "abi": [
    {
      "inputs": [
        {
          "internalType": "contract DAPPToken",
          "name": "_dappToken",
          "type": "address"
        },
        {
          "internalType": "uint256",
          "name": "_price",
          "type": "uint256"
        },
        {
          "internalType": "uint256",
          "name": "_maxTokens",
          "type": "uint256"
        },
        {
          "internalType": "uint256",
          "name": "_startTime",
          "type": "uint256"
        },
        {
          "internalType": "uint256",
          "name": "_endTime",
          "type": "uint256"
        },
        {
          "internalType": "uint256",
          "name": "_minPurchase",
          "type": "uint256"
        },
        {
          "internalType": "uint256",
          "name": "_maxPurchase",
          "type": "uint256"
        }
      ],
      "stateMutability": "nonpayable",
      "type": "constructor"
    },
    {
      "anonymous": false,
      "inputs": [
        {
          "indexed": true,
          "internalType": "address",
          "name": "_addr",
          "type": "address"
        }
      ],
      "name": "AddressAdded",
      "type": "event"
    },
    {
      "anonymous": false,
      "inputs": [
        {
          "indexed": true,
          "internalType": "address",
          "name": "_addr",
          "type": "address"
        }
      ],
      "name": "AddressApproved",
      "type": "event"
    },
    {
      "anonymous": false,
      "inputs": [
        {
          "indexed": true,
          "internalType": "address",
          "name": "_addr",
          "type": "address"
        }
      ],
      "name": "AddressRejected",
      "type": "event"
    },
    {
      "anonymous": false,
      "inputs": [
        {
          "indexed": false,
          "internalType": "uint256",
          "name": "amount",
          "type": "uint256"
        },
        {
          "indexed": false,
          "internalType": "address",
          "name": "buyer",
          "type": "address"
        }
      ],
      "name": "Buy",
      "type": "event"
    },
    {
      "anonymous": false,
      "inputs": [
        {
          "indexed": false,
          "internalType": "uint256",
          "name": "amount",
          "type": "uint256"
        },
        {
          "indexed": false,
          "internalType": "uint256",
          "name": "value",
          "type": "uint256"
        }
      ],
      "name": "Finalize",
      "type": "event"
    },
    {
      "anonymous": false,
      "inputs": [
        {
          "indexed": true,
          "internalType": "address",
          "name": "_addr",
          "type": "address"
        },
        {
          "indexed": false,
          "internalType": "uint256",
          "name": "amount",
          "type": "uint256"
        }
      ],
      "name": "Refund",
      "type": "event"
    },
    {
      "inputs": [
        {
          "internalType": "address",
          "name": "_addr",
          "type": "address"
        }
      ],
      "name": "approveWhitelist",
      "outputs": [],
      "stateMutability": "nonpayable",
      "type": "function"
    },
    {
      "inputs": [
        {
          "internalType": "address[]",
          "name": "_addresses",
          "type": "address[]"
        }
      ],
      "name": "approveWhitelistToAll",
      "outputs": [],
      "stateMutability": "nonpayable",
      "type": "function"
    },
    {
      "inputs": [
        {
          "internalType": "uint256",
          "name": "_amount",
          "type": "uint256"
        }
      ],
      "name": "buyTokens",
      "outputs": [],
      "stateMutability": "payable",
      "type": "function"
    },
    {
      "inputs": [],
      "name": "dappToken",
      "outputs": [
        {
          "internalType": "contract DAPPToken",
          "name": "",
          "type": "address"
        }
      ],
      "stateMutability": "view",
      "type": "function"
    },
    {
      "inputs": [],
      "name": "disableRefund",
      "outputs": [],
      "stateMutability": "nonpayable",
      "type": "function"
    },
    {
      "inputs": [],
      "name": "enableRefund",
      "outputs": [],
      "stateMutability": "nonpayable",
      "type": "function"
    },
    {
      "inputs": [],
      "name": "endTime",
      "outputs": [
        {
          "internalType": "uint256",
          "name": "",
          "type": "uint256"
        }
      ],
      "stateMutability": "view",
      "type": "function"
    },
    {
      "inputs": [
        {
          "internalType": "address",
          "name": "",
          "type": "address"
        },
        {
          "internalType": "uint256",
          "name": "",
          "type": "uint256"
        }
      ],
      "name": "ethTokenBalance",
      "outputs": [
        {
          "internalType": "uint256",
          "name": "",
          "type": "uint256"
        }
      ],
      "stateMutability": "view",
      "type": "function"
    },
    {
      "inputs": [],
      "name": "finalize",
      "outputs": [],
      "stateMutability": "nonpayable",
      "type": "function"
    },
    {
      "inputs": [],
      "name": "getPendingStatusAddr",
      "outputs": [
        {
          "internalType": "address[]",
          "name": "",
          "type": "address[]"
        }
      ],
      "stateMutability": "view",
      "type": "function"
    },
    {
      "inputs": [
        {
          "internalType": "address",
          "name": "_addr",
          "type": "address"
        }
      ],
      "name": "getWhitelistStatus",
      "outputs": [
        {
          "internalType": "bool",
          "name": "",
          "type": "bool"
        }
      ],
      "stateMutability": "view",
      "type": "function"
    },
    {
      "inputs": [
        {
          "internalType": "address[]",
          "name": "_addresses",
          "type": "address[]"
        }
      ],
      "name": "getWhitelistStatusAll",
      "outputs": [
        {
          "internalType": "enum Crowdsale.WhitelistStatus[]",
          "name": "",
          "type": "uint8[]"
        }
      ],
      "stateMutability": "view",
      "type": "function"
    },
    {
      "inputs": [
        {
          "internalType": "address",
          "name": "",
          "type": "address"
        }
      ],
      "name": "isPendingWhitelist",
      "outputs": [
        {
          "internalType": "bool",
          "name": "",
          "type": "bool"
        }
      ],
      "stateMutability": "view",
      "type": "function"
    },
    {
      "inputs": [
        {
          "internalType": "address",
          "name": "",
          "type": "address"
        }
      ],
      "name": "isWhitelisted",
      "outputs": [
        {
          "internalType": "bool",
          "name": "",
          "type": "bool"
        }
      ],
      "stateMutability": "view",
      "type": "function"
    },
    {
      "inputs": [],
      "name": "maxPurchase",
      "outputs": [
        {
          "internalType": "uint256",
          "name": "",
          "type": "uint256"
        }
      ],
      "stateMutability": "view",
      "type": "function"
    },
    {
      "inputs": [],
      "name": "maxTokens",
      "outputs": [
        {
          "internalType": "uint256",
          "name": "",
          "type": "uint256"
        }
      ],
      "stateMutability": "view",
      "type": "function"
    },
    {
      "inputs": [],
      "name": "minPurchase",
      "outputs": [
        {
          "internalType": "uint256",
          "name": "",
          "type": "uint256"
        }
      ],
      "stateMutability": "view",
      "type": "function"
    },
    {
      "inputs": [],
      "name": "owner",
      "outputs": [
        {
          "internalType": "address payable",
          "name": "",
          "type": "address"
        }
      ],
      "stateMutability": "view",
      "type": "function"
    },
    {
      "inputs": [],
      "name": "price",
      "outputs": [
        {
          "internalType": "uint256",
          "name": "",
          "type": "uint256"
        }
      ],
      "stateMutability": "view",
      "type": "function"
    },
    {
      "inputs": [
        {
          "internalType": "address",
          "name": "",
          "type": "address"
        }
      ],
      "name": "purchaseAmount",
      "outputs": [
        {
          "internalType": "uint256",
          "name": "",
          "type": "uint256"
        }
      ],
      "stateMutability": "view",
      "type": "function"
    },
    {
      "inputs": [],
      "name": "refundCampaign",
      "outputs": [],
      "stateMutability": "nonpayable",
      "type": "function"
    },
    {
      "inputs": [
        {
          "internalType": "address",
          "name": "_addr",
          "type": "address"
        }
      ],
      "name": "rejectWhitelist",
      "outputs": [],
      "stateMutability": "nonpayable",
      "type": "function"
    },
    {
      "inputs": [
        {
          "internalType": "address[]",
          "name": "_addresses",
          "type": "address[]"
        }
      ],
      "name": "rejectWhitelistToAll",
      "outputs": [],
      "stateMutability": "nonpayable",
      "type": "function"
    },
    {
      "inputs": [
        {
          "internalType": "address",
          "name": "_addr",
          "type": "address"
        }
      ],
      "name": "removeAddressFromWhiteList",
      "outputs": [],
      "stateMutability": "nonpayable",
      "type": "function"
    },
    {
      "inputs": [],
      "name": "requestWhitelist",
      "outputs": [],
      "stateMutability": "nonpayable",
      "type": "function"
    },
    {
      "inputs": [
        {
          "internalType": "uint256",
          "name": "",
          "type": "uint256"
        }
      ],
      "name": "requestors",
      "outputs": [
        {
          "internalType": "address",
          "name": "",
          "type": "address"
        }
      ],
      "stateMutability": "view",
      "type": "function"
    },
    {
      "inputs": [
        {
          "internalType": "uint256",
          "name": "_startTime",
          "type": "uint256"
        },
        {
          "internalType": "uint256",
          "name": "_endTime",
          "type": "uint256"
        }
      ],
      "name": "restartCampaign",
      "outputs": [],
      "stateMutability": "nonpayable",
      "type": "function"
    },
    {
      "inputs": [
        {
          "internalType": "uint256",
          "name": "_minPurchase",
          "type": "uint256"
        },
        {
          "internalType": "uint256",
          "name": "_maxPurchase",
          "type": "uint256"
        }
      ],
      "name": "setContribution",
      "outputs": [],
      "stateMutability": "nonpayable",
      "type": "function"
    },
    {
      "inputs": [
        {
          "internalType": "uint256",
          "name": "_price",
          "type": "uint256"
        }
      ],
      "name": "setPrice",
      "outputs": [],
      "stateMutability": "nonpayable",
      "type": "function"
    },
    {
      "inputs": [
        {
          "internalType": "bool",
          "name": "_status",
          "type": "bool"
        }
      ],
      "name": "setRefundStatus",
      "outputs": [],
      "stateMutability": "nonpayable",
      "type": "function"
    },
    {
      "inputs": [],
      "name": "startTime",
      "outputs": [
        {
          "internalType": "uint256",
          "name": "",
          "type": "uint256"
        }
      ],
      "stateMutability": "view",
      "type": "function"
    },
    {
      "inputs": [],
      "name": "tokensSold",
      "outputs": [
        {
          "internalType": "uint256",
          "name": "",
          "type": "uint256"
        }
      ],
      "stateMutability": "view",
      "type": "function"
    },
    {
      "inputs": [
        {
          "internalType": "address",
          "name": "_addr",
          "type": "address"
        }
      ],
      "name": "whitelistAddress",
      "outputs": [],
      "stateMutability": "nonpayable",
      "type": "function"
    },
    {
      "inputs": [
        {
          "internalType": "address",
          "name": "",
          "type": "address"
        }
      ],
      "name": "whitelistStatus",
      "outputs": [
        {
          "internalType": "enum Crowdsale.WhitelistStatus",
          "name": "",
          "type": "uint8"
        }
      ],
      "stateMutability": "view",
      "type": "function"
    },
    {
      "inputs": [],
      "name": "withdrawBalance",
      "outputs": [],
      "stateMutability": "nonpayable",
      "type": "function"
    },
    {
      "stateMutability": "payable",
      "type": "receive"
    }
  ],
  "bytecode": "0x60806040523480156200001157600080fd5b5060405162004236380380620042368339818101604052810190620000379190620001a8565b336000806101000a81548173ffffffffffffffffffffffffffffffffffffffff021916908373ffffffffffffffffffffffffffffffffffffffff16021790555086600160006101000a81548173ffffffffffffffffffffffffffffffffffffffff021916908373ffffffffffffffffffffffffffffffffffffffff160217905550856002819055508460038190555083600581905550826006819055508160078190555080600881905550505050505050506200025b565b600080fd5b600073ffffffffffffffffffffffffffffffffffffffff82169050919050565b60006200012182620000f4565b9050919050565b6000620001358262000114565b9050919050565b620001478162000128565b81146200015357600080fd5b50565b60008151905062000167816200013c565b92915050565b6000819050919050565b62000182816200016d565b81146200018e57600080fd5b50565b600081519050620001a28162000177565b92915050565b600080600080600080600060e0888a031215620001ca57620001c9620000ef565b5b6000620001da8a828b0162000156565b9750506020620001ed8a828b0162000191565b9650506040620002008a828b0162000191565b9550506060620002138a828b0162000191565b9450506080620002268a828b0162000191565b93505060a0620002398a828b0162000191565b92505060c06200024c8a828b0162000191565b91505092959891949750929550565b613fcb806200026b6000396000f3fe6080604052600436106102085760003560e01c80635fd8c71011610118578063977b055b116100a0578063ca6ae7441161006f578063ca6ae74414610837578063ca8c3e7714610860578063ccaf1c4b14610889578063d9ba32fc146108c6578063e83157421461090357610353565b8063977b055b146107795780639d55a0a6146107a4578063a035b1fe146107e1578063c452b43c1461080c57610353565b806378e97925116100e757806378e97925146106a65780637d3b5615146106d157806389e423461461070e5780638da5cb5b1461072557806391b7f5ed1461075057610353565b80635fd8c710146106125780636504d350146106295780636c5cde68146106525780636e1e93491461068f57610353565b80633af32abf1161019b5780634cc2cb851161016a5780634cc2cb851461053f578063518ab2a814610556578063548e5c761461058157806356572a78146105be5780635eb186f8146105e757610353565b80633af32abf1461049957806341566585146104d65780634bb01abb146104ff5780634bb278f31461052857610353565b80632906a079116101d75780632906a079146103ea5780633197cbb61461042757806333b5b62e146104525780633610724e1461047d57610353565b8063015013471461035857806316f8d3fc1461036f578063176898c9146103985780631d10fd86146103c157610353565b3661035357600554421015610252576040517f08c379a00000000000000000000000000000000000000000000000000000000081526004016102499061305f565b60405180910390fd5b600654421115610297576040517f08c379a000000000000000000000000000000000000000000000000000000000815260040161028e906130cb565b60405180910390fd5b600b60003373ffffffffffffffffffffffffffffffffffffffff1673ffffffffffffffffffffffffffffffffffffffff16815260200190815260200160002060009054906101000a900460ff16610323576040517f08c379a000000000000000000000000000000000000000000000000000000000815260040161031a90613137565b60405180910390fd5b60006002543461033391906131bf565b9050610351670de0b6b3a76400008261034c91906131f0565b61092e565b005b600080fd5b34801561036457600080fd5b5061036d610d59565b005b34801561037b57600080fd5b506103966004803603810190610391919061329a565b610e04565b005b3480156103a457600080fd5b506103bf60048036038101906103ba91906132ff565b6110a3565b005b3480156103cd57600080fd5b506103e860048036038101906103e39190613391565b61114e565b005b3480156103f657600080fd5b50610411600480360381019061040c919061340a565b6113ab565b60405161041e9190613446565b60405180910390f35b34801561043357600080fd5b5061043c6113ea565b6040516104499190613470565b60405180910390f35b34801561045e57600080fd5b506104676113f0565b6040516104749190613470565b60405180910390f35b6104976004803603810190610492919061340a565b61092e565b005b3480156104a557600080fd5b506104c060048036038101906104bb919061329a565b6113f6565b6040516104cd919061349a565b60405180910390f35b3480156104e257600080fd5b506104fd60048036038101906104f8919061329a565b611416565b005b34801561050b57600080fd5b506105266004803603810190610521919061329a565b6114ff565b005b34801561053457600080fd5b5061053d6115e8565b005b34801561054b57600080fd5b506105546118eb565b005b34801561056257600080fd5b5061056b611cdb565b6040516105789190613470565b60405180910390f35b34801561058d57600080fd5b506105a860048036038101906105a391906134b5565b611ce1565b6040516105b59190613470565b60405180910390f35b3480156105ca57600080fd5b506105e560048036038101906105e09190613391565b611d06565b005b3480156105f357600080fd5b506105fc611fbb565b6040516106099190613554565b60405180910390f35b34801561061e57600080fd5b50610627611fe1565b005b34801561063557600080fd5b50610650600480360381019061064b919061356f565b612182565b005b34801561065e57600080fd5b506106796004803603810190610674919061329a565b612245565b6040516106869190613470565b60405180910390f35b34801561069b57600080fd5b506106a461225d565b005b3480156106b257600080fd5b506106bb6124f6565b6040516106c89190613470565b60405180910390f35b3480156106dd57600080fd5b506106f860048036038101906106f39190613391565b6124fc565b60405161070591906136d5565b60405180910390f35b34801561071a57600080fd5b50610723612633565b005b34801561073157600080fd5b5061073a612722565b6040516107479190613718565b60405180910390f35b34801561075c57600080fd5b506107776004803603810190610772919061340a565b612746565b005b34801561078557600080fd5b5061078e6127de565b60405161079b9190613470565b60405180910390f35b3480156107b057600080fd5b506107cb60048036038101906107c6919061329a565b6127e4565b6040516107d8919061349a565b60405180910390f35b3480156107ed57600080fd5b506107f6612804565b6040516108039190613470565b60405180910390f35b34801561081857600080fd5b5061082161280a565b60405161082e91906137f1565b60405180910390f35b34801561084357600080fd5b5061085e6004803603810190610859919061329a565b6129be565b005b34801561086c57600080fd5b506108876004803603810190610882919061356f565b612c05565b005b34801561089557600080fd5b506108b060048036038101906108ab919061329a565b612ca5565b6040516108bd9190613822565b60405180910390f35b3480156108d257600080fd5b506108ed60048036038101906108e8919061329a565b612cc5565b6040516108fa919061349a565b60405180910390f35b34801561090f57600080fd5b50610918612d1b565b6040516109259190613470565b60405180910390f35b600b60003373ffffffffffffffffffffffffffffffffffffffff1673ffffffffffffffffffffffffffffffffffffffff16815260200190815260200160002060009054906101000a900460ff166109ba576040517f08c379a00000000000000000000000000000000000000000000000000000000081526004016109b190613137565b60405180910390fd5b6005544210156109ff576040517f08c379a00000000000000000000000000000000000000000000000000000000081526004016109f69061305f565b60405180910390fd5b600654421115610a44576040517f08c379a0000000000000000000000000000000000000000000000000000000008152600401610a3b906130cb565b60405180910390fd5b6000600254670de0b6b3a764000083610a5d91906131bf565b610a6791906131f0565b9050803414610aab576040517f08c379a0000000000000000000000000000000000000000000000000000000008152600401610aa290613889565b60405180910390fd5b6008548211158015610abf57506007548210155b610ac857600080fd5b81600160009054906101000a900473ffffffffffffffffffffffffffffffffffffffff1673ffffffffffffffffffffffffffffffffffffffff166370a08231306040518263ffffffff1660e01b8152600401610b249190613446565b602060405180830381865afa158015610b41573d6000803e3d6000fd5b505050506040513d601f19601f82011682018060405250810190610b6591906138be565b1015610b7057600080fd5b81600d60003373ffffffffffffffffffffffffffffffffffffffff1673ffffffffffffffffffffffffffffffffffffffff1681526020019081526020016000206000828254610bbf91906138eb565b92505081905550600160009054906101000a900473ffffffffffffffffffffffffffffffffffffffff1673ffffffffffffffffffffffffffffffffffffffff1663a9059cbb33846040518363ffffffff1660e01b8152600401610c2392919061391f565b6020604051808303816000875af1158015610c42573d6000803e3d6000fd5b505050506040513d601f19601f82011682018060405250810190610c66919061395d565b610c6f57600080fd5b8160046000828254610c8191906138eb565b9250508190555034600f60003373ffffffffffffffffffffffffffffffffffffffff1673ffffffffffffffffffffffffffffffffffffffff1681526020019081526020016000206000600d60003373ffffffffffffffffffffffffffffffffffffffff1673ffffffffffffffffffffffffffffffffffffffff168152602001908152602001600020548152602001908152602001600020819055507f7534e9c9396820aad756ba27f82162930f80bef863aabdf311e7dce26a79bccd8233604051610d4d92919061398a565b60405180910390a15050565b60008054906101000a900473ffffffffffffffffffffffffffffffffffffffff1673ffffffffffffffffffffffffffffffffffffffff163373ffffffffffffffffffffffffffffffffffffffff1614610de7576040517f08c379a0000000000000000000000000000000000000000000000000000000008152600401610dde90613a25565b60405180910390fd5b6000600a60006101000a81548160ff021916908315150217905550565b60008054906101000a900473ffffffffffffffffffffffffffffffffffffffff1673ffffffffffffffffffffffffffffffffffffffff163373ffffffffffffffffffffffffffffffffffffffff1614610e92576040517f08c379a0000000000000000000000000000000000000000000000000000000008152600401610e8990613a25565b60405180910390fd5b60006003811115610ea657610ea56135db565b5b600c60008373ffffffffffffffffffffffffffffffffffffffff1673ffffffffffffffffffffffffffffffffffffffff16815260200190815260200160002060009054906101000a900460ff166003811115610f0557610f046135db565b5b14610f45576040517f08c379a0000000000000000000000000000000000000000000000000000000008152600401610f3c90613a91565b60405180910390fd5b6001600c60008373ffffffffffffffffffffffffffffffffffffffff1673ffffffffffffffffffffffffffffffffffffffff16815260200190815260200160002060006101000a81548160ff02191690836003811115610fa857610fa76135db565b5b02179055506000600e60008373ffffffffffffffffffffffffffffffffffffffff1673ffffffffffffffffffffffffffffffffffffffff16815260200190815260200160002060006101000a81548160ff0219169083151502179055506001600b60008373ffffffffffffffffffffffffffffffffffffffff1673ffffffffffffffffffffffffffffffffffffffff16815260200190815260200160002060006101000a81548160ff0219169083151502179055508073ffffffffffffffffffffffffffffffffffffffff167f22ccae257baf5241d183f9fcd06432b49697e9576652b3f436249b101f32bf9460405160405180910390a250565b60008054906101000a900473ffffffffffffffffffffffffffffffffffffffff1673ffffffffffffffffffffffffffffffffffffffff163373ffffffffffffffffffffffffffffffffffffffff1614611131576040517f08c379a000000000000000000000000000000000000000000000000000000000815260040161112890613a25565b60405180910390fd5b80600a60006101000a81548160ff02191690831515021790555050565b60008054906101000a900473ffffffffffffffffffffffffffffffffffffffff1673ffffffffffffffffffffffffffffffffffffffff163373ffffffffffffffffffffffffffffffffffffffff16146111dc576040517f08c379a00000000000000000000000000000000000000000000000000000000081526004016111d390613a25565b60405180910390fd5b60005b828290508110156113a65760008383838181106111ff576111fe613ab1565b5b9050602002016020810190611214919061329a565b90506000600381111561122a576112296135db565b5b600c60008373ffffffffffffffffffffffffffffffffffffffff1673ffffffffffffffffffffffffffffffffffffffff16815260200190815260200160002060009054906101000a900460ff166003811115611289576112886135db565b5b03611392576002600c60008373ffffffffffffffffffffffffffffffffffffffff1673ffffffffffffffffffffffffffffffffffffffff16815260200190815260200160002060006101000a81548160ff021916908360038111156112f1576112f06135db565b5b02179055506000600e60008373ffffffffffffffffffffffffffffffffffffffff1673ffffffffffffffffffffffffffffffffffffffff16815260200190815260200160002060006101000a81548160ff0219169083151502179055508073ffffffffffffffffffffffffffffffffffffffff167fea4e312ba0c689a06d39183bdbe4da8a13f666c2cae20bfcc77a93cf86dada1260405160405180910390a25b50808061139e90613ae0565b9150506111df565b505050565b600981815481106113bb57600080fd5b906000526020600020016000915054906101000a900473ffffffffffffffffffffffffffffffffffffffff1681565b60065481565b60075481565b600b6020528060005260406000206000915054906101000a900460ff1681565b60008054906101000a900473ffffffffffffffffffffffffffffffffffffffff1673ffffffffffffffffffffffffffffffffffffffff163373ffffffffffffffffffffffffffffffffffffffff16146114a4576040517f08c379a000000000000000000000000000000000000000000000000000000000815260040161149b90613a25565b60405180910390fd5b6001600b60008373ffffffffffffffffffffffffffffffffffffffff1673ffffffffffffffffffffffffffffffffffffffff16815260200190815260200160002060006101000a81548160ff02191690831515021790555050565b60008054906101000a900473ffffffffffffffffffffffffffffffffffffffff1673ffffffffffffffffffffffffffffffffffffffff163373ffffffffffffffffffffffffffffffffffffffff161461158d576040517f08c379a000000000000000000000000000000000000000000000000000000000815260040161158490613a25565b60405180910390fd5b6000600b60008373ffffffffffffffffffffffffffffffffffffffff1673ffffffffffffffffffffffffffffffffffffffff16815260200190815260200160002060006101000a81548160ff02191690831515021790555050565b60008054906101000a900473ffffffffffffffffffffffffffffffffffffffff1673ffffffffffffffffffffffffffffffffffffffff163373ffffffffffffffffffffffffffffffffffffffff1614611676576040517f08c379a000000000000000000000000000000000000000000000000000000000815260040161166d90613a25565b60405180910390fd5b600160009054906101000a900473ffffffffffffffffffffffffffffffffffffffff1673ffffffffffffffffffffffffffffffffffffffff1663a9059cbb60008054906101000a900473ffffffffffffffffffffffffffffffffffffffff16600160009054906101000a900473ffffffffffffffffffffffffffffffffffffffff1673ffffffffffffffffffffffffffffffffffffffff166370a08231306040518263ffffffff1660e01b81526004016117309190613446565b602060405180830381865afa15801561174d573d6000803e3d6000fd5b505050506040513d601f19601f8201168201806040525081019061177191906138be565b6040518363ffffffff1660e01b815260040161178e929190613b49565b6020604051808303816000875af11580156117ad573d6000803e3d6000fd5b505050506040513d601f19601f820116820180604052508101906117d1919061395d565b6117da57600080fd5b600047905060008060009054906101000a900473ffffffffffffffffffffffffffffffffffffffff1673ffffffffffffffffffffffffffffffffffffffff168260405161182690613ba3565b60006040518083038185875af1925050503d8060008114611863576040519150601f19603f3d011682016040523d82523d6000602084013e611868565b606091505b50509050806118ac576040517f08c379a00000000000000000000000000000000000000000000000000000000081526004016118a390613c04565b60405180910390fd5b7f9d3cb3e4bff976f636db6ed472093505eb1b5bafc234ea8276ae83b3ea0a8b74600454836040516118df929190613c24565b60405180910390a15050565b600654421161192f576040517f08c379a000000000000000000000000000000000000000000000000000000000815260040161192690613c99565b60405180910390fd5b60011515600a60009054906101000a900460ff16151514611985576040517f08c379a000000000000000000000000000000000000000000000000000000000815260040161197c90613d05565b60405180910390fd5b6000600d60003373ffffffffffffffffffffffffffffffffffffffff1673ffffffffffffffffffffffffffffffffffffffff16815260200190815260200160002054905060008111611a0c576040517f08c379a0000000000000000000000000000000000000000000000000000000008152600401611a0390613d97565b60405180910390fd5b6000600d60003373ffffffffffffffffffffffffffffffffffffffff1673ffffffffffffffffffffffffffffffffffffffff168152602001908152602001600020819055508060046000828254611a639190613db7565b92505081905550600160009054906101000a900473ffffffffffffffffffffffffffffffffffffffff1673ffffffffffffffffffffffffffffffffffffffff166323b872dd3330846040518463ffffffff1660e01b8152600401611ac993929190613deb565b6020604051808303816000875af1158015611ae8573d6000803e3d6000fd5b505050506040513d601f19601f82011682018060405250810190611b0c919061395d565b506000600254670de0b6b3a764000083611b2691906131bf565b611b3091906131f0565b905080471015611b75576040517f08c379a0000000000000000000000000000000000000000000000000000000008152600401611b6c90613e6e565b60405180910390fd5b80600f60003373ffffffffffffffffffffffffffffffffffffffff1673ffffffffffffffffffffffffffffffffffffffff16815260200190815260200160002060008481526020019081526020016000206000828254611bd59190613db7565b9250508190555060003373ffffffffffffffffffffffffffffffffffffffff1682604051611c0290613ba3565b60006040518083038185875af1925050503d8060008114611c3f576040519150601f19603f3d011682016040523d82523d6000602084013e611c44565b606091505b5050905080611c88576040517f08c379a0000000000000000000000000000000000000000000000000000000008152600401611c7f90613c04565b60405180910390fd5b3373ffffffffffffffffffffffffffffffffffffffff167fbb28353e4598c3b9199101a66e0989549b659a59a54d2c27fbb183f1932c8e6d84604051611cce9190613470565b60405180910390a2505050565b60045481565b600f602052816000526040600020602052806000526040600020600091509150505481565b60008054906101000a900473ffffffffffffffffffffffffffffffffffffffff1673ffffffffffffffffffffffffffffffffffffffff163373ffffffffffffffffffffffffffffffffffffffff1614611d94576040517f08c379a0000000000000000000000000000000000000000000000000000000008152600401611d8b90613a25565b60405180910390fd5b60005b82829050811015611fb6576000838383818110611db757611db6613ab1565b5b9050602002016020810190611dcc919061329a565b905060006003811115611de257611de16135db565b5b600c60008373ffffffffffffffffffffffffffffffffffffffff1673ffffffffffffffffffffffffffffffffffffffff16815260200190815260200160002060009054906101000a900460ff166003811115611e4157611e406135db565b5b03611fa2576001600c60008373ffffffffffffffffffffffffffffffffffffffff1673ffffffffffffffffffffffffffffffffffffffff16815260200190815260200160002060006101000a81548160ff02191690836003811115611ea957611ea86135db565b5b02179055506000600e60008373ffffffffffffffffffffffffffffffffffffffff1673ffffffffffffffffffffffffffffffffffffffff16815260200190815260200160002060006101000a81548160ff0219169083151502179055506001600b60008373ffffffffffffffffffffffffffffffffffffffff1673ffffffffffffffffffffffffffffffffffffffff16815260200190815260200160002060006101000a81548160ff0219169083151502179055508073ffffffffffffffffffffffffffffffffffffffff167f22ccae257baf5241d183f9fcd06432b49697e9576652b3f436249b101f32bf9460405160405180910390a25b508080611fae90613ae0565b915050611d97565b505050565b600160009054906101000a900473ffffffffffffffffffffffffffffffffffffffff1681565b60008054906101000a900473ffffffffffffffffffffffffffffffffffffffff1673ffffffffffffffffffffffffffffffffffffffff163373ffffffffffffffffffffffffffffffffffffffff161461206f576040517f08c379a000000000000000000000000000000000000000000000000000000000815260040161206690613a25565b60405180910390fd5b600047116120b2576040517f08c379a00000000000000000000000000000000000000000000000000000000081526004016120a990613eda565b60405180910390fd5b60008060009054906101000a900473ffffffffffffffffffffffffffffffffffffffff1673ffffffffffffffffffffffffffffffffffffffff16476040516120f990613ba3565b60006040518083038185875af1925050503d8060008114612136576040519150601f19603f3d011682016040523d82523d6000602084013e61213b565b606091505b505090508061217f576040517f08c379a000000000000000000000000000000000000000000000000000000000815260040161217690613c04565b60405180910390fd5b50565b60008054906101000a900473ffffffffffffffffffffffffffffffffffffffff1673ffffffffffffffffffffffffffffffffffffffff163373ffffffffffffffffffffffffffffffffffffffff1614612210576040517f08c379a000000000000000000000000000000000000000000000000000000000815260040161220790613a25565b60405180910390fd5b81600581905550806006819055506000600a60006101000a81548160ff021916908315150217905550612241612d21565b5050565b600d6020528060005260406000206000915090505481565b60006003811115612271576122706135db565b5b600c60003373ffffffffffffffffffffffffffffffffffffffff1673ffffffffffffffffffffffffffffffffffffffff16815260200190815260200160002060009054906101000a900460ff1660038111156122d0576122cf6135db565b5b1415801561234e57506003808111156122ec576122eb6135db565b5b600c60003373ffffffffffffffffffffffffffffffffffffffff1673ffffffffffffffffffffffffffffffffffffffff16815260200190815260200160002060009054906101000a900460ff16600381111561234b5761234a6135db565b5b14155b1561238e576040517f08c379a000000000000000000000000000000000000000000000000000000000815260040161238590613f46565b60405180910390fd5b6000600c60003373ffffffffffffffffffffffffffffffffffffffff1673ffffffffffffffffffffffffffffffffffffffff16815260200190815260200160002060006101000a81548160ff021916908360038111156123f1576123f06135db565b5b02179055506001600e60003373ffffffffffffffffffffffffffffffffffffffff1673ffffffffffffffffffffffffffffffffffffffff16815260200190815260200160002060006101000a81548160ff0219169083151502179055506009339080600181540180825580915050600190039060005260206000200160009091909190916101000a81548173ffffffffffffffffffffffffffffffffffffffff021916908373ffffffffffffffffffffffffffffffffffffffff1602179055503373ffffffffffffffffffffffffffffffffffffffff167fa226db3f664042183ee0281230bba26cbf7b5057e50aee7f25a175ff45ce4d7f60405160405180910390a2565b60055481565b606060008383905067ffffffffffffffff81111561251d5761251c613f66565b5b60405190808252806020026020018201604052801561254b5781602001602082028036833780820191505090505b50905060005b8484905081101561262857600c600086868481811061257357612572613ab1565b5b9050602002016020810190612588919061329a565b73ffffffffffffffffffffffffffffffffffffffff1673ffffffffffffffffffffffffffffffffffffffff16815260200190815260200160002060009054906101000a900460ff168282815181106125e3576125e2613ab1565b5b602002602001019060038111156125fd576125fc6135db565b5b90816003811115612611576126106135db565b5b81525050808061262090613ae0565b915050612551565b508091505092915050565b60008054906101000a900473ffffffffffffffffffffffffffffffffffffffff1673ffffffffffffffffffffffffffffffffffffffff163373ffffffffffffffffffffffffffffffffffffffff16146126c1576040517f08c379a00000000000000000000000000000000000000000000000000000000081526004016126b890613a25565b60405180910390fd5b6006544211612705576040517f08c379a00000000000000000000000000000000000000000000000000000000081526004016126fc90613c99565b60405180910390fd5b6001600a60006101000a81548160ff021916908315150217905550565b60008054906101000a900473ffffffffffffffffffffffffffffffffffffffff1681565b60008054906101000a900473ffffffffffffffffffffffffffffffffffffffff1673ffffffffffffffffffffffffffffffffffffffff163373ffffffffffffffffffffffffffffffffffffffff16146127d4576040517f08c379a00000000000000000000000000000000000000000000000000000000081526004016127cb90613a25565b60405180910390fd5b8060028190555050565b60085481565b600e6020528060005260406000206000915054906101000a900460ff1681565b60025481565b60606000612816612f31565b67ffffffffffffffff81111561282f5761282e613f66565b5b60405190808252806020026020018201604052801561285d5781602001602082028036833780820191505090505b5090506000805b6009805490508110156129b55760011515600e60006009848154811061288d5761288c613ab1565b5b9060005260206000200160009054906101000a900473ffffffffffffffffffffffffffffffffffffffff1673ffffffffffffffffffffffffffffffffffffffff1673ffffffffffffffffffffffffffffffffffffffff16815260200190815260200160002060009054906101000a900460ff161515036129a2576009818154811061291b5761291a613ab1565b5b9060005260206000200160009054906101000a900473ffffffffffffffffffffffffffffffffffffffff1683838151811061295957612958613ab1565b5b602002602001019073ffffffffffffffffffffffffffffffffffffffff16908173ffffffffffffffffffffffffffffffffffffffff1681525050818061299e90613ae0565b9250505b80806129ad90613ae0565b915050612864565b50819250505090565b60008054906101000a900473ffffffffffffffffffffffffffffffffffffffff1673ffffffffffffffffffffffffffffffffffffffff163373ffffffffffffffffffffffffffffffffffffffff1614612a4c576040517f08c379a0000000000000000000000000000000000000000000000000000000008152600401612a4390613a25565b60405180910390fd5b60006003811115612a6057612a5f6135db565b5b600c60008373ffffffffffffffffffffffffffffffffffffffff1673ffffffffffffffffffffffffffffffffffffffff16815260200190815260200160002060009054906101000a900460ff166003811115612abf57612abe6135db565b5b14612aff576040517f08c379a0000000000000000000000000000000000000000000000000000000008152600401612af690613a91565b60405180910390fd5b6002600c60008373ffffffffffffffffffffffffffffffffffffffff1673ffffffffffffffffffffffffffffffffffffffff16815260200190815260200160002060006101000a81548160ff02191690836003811115612b6257612b616135db565b5b02179055506000600e60008373ffffffffffffffffffffffffffffffffffffffff1673ffffffffffffffffffffffffffffffffffffffff16815260200190815260200160002060006101000a81548160ff0219169083151502179055508073ffffffffffffffffffffffffffffffffffffffff167fea4e312ba0c689a06d39183bdbe4da8a13f666c2cae20bfcc77a93cf86dada1260405160405180910390a250565b60008054906101000a900473ffffffffffffffffffffffffffffffffffffffff1673ffffffffffffffffffffffffffffffffffffffff163373ffffffffffffffffffffffffffffffffffffffff1614612c93576040517f08c379a0000000000000000000000000000000000000000000000000000000008152600401612c8a90613a25565b60405180910390fd5b81600781905550806008819055505050565b600c6020528060005260406000206000915054906101000a900460ff1681565b6000600b60008373ffffffffffffffffffffffffffffffffffffffff1673ffffffffffffffffffffffffffffffffffffffff16815260200190815260200160002060009054906101000a900460ff169050919050565b60035481565b60008054906101000a900473ffffffffffffffffffffffffffffffffffffffff1673ffffffffffffffffffffffffffffffffffffffff163373ffffffffffffffffffffffffffffffffffffffff1614612daf576040517f08c379a0000000000000000000000000000000000000000000000000000000008152600401612da690613a25565b60405180910390fd5b60005b600980549050811015612f2e57600060098281548110612dd557612dd4613ab1565b5b9060005260206000200160009054906101000a900473ffffffffffffffffffffffffffffffffffffffff1690506000600b60008373ffffffffffffffffffffffffffffffffffffffff1673ffffffffffffffffffffffffffffffffffffffff16815260200190815260200160002060006101000a81548160ff0219169083151502179055506003600c60008373ffffffffffffffffffffffffffffffffffffffff1673ffffffffffffffffffffffffffffffffffffffff16815260200190815260200160002060006101000a81548160ff02191690836003811115612ebd57612ebc6135db565b5b02179055506000600e60008373ffffffffffffffffffffffffffffffffffffffff1673ffffffffffffffffffffffffffffffffffffffff16815260200190815260200160002060006101000a81548160ff021916908315150217905550508080612f2690613ae0565b915050612db2565b50565b6000806000905060005b600980549050811015612ffa57600e600060098381548110612f6057612f5f613ab1565b5b9060005260206000200160009054906101000a900473ffffffffffffffffffffffffffffffffffffffff1673ffffffffffffffffffffffffffffffffffffffff1673ffffffffffffffffffffffffffffffffffffffff16815260200190815260200160002060009054906101000a900460ff1615612fe7578180612fe390613ae0565b9250505b8080612ff290613ae0565b915050612f3b565b508091505090565b600082825260208201905092915050565b7f53616c65206973206e6f74207374617274656420796574000000000000000000600082015250565b6000613049601783613002565b915061305482613013565b602082019050919050565b600060208201905081810360008301526130788161303c565b9050919050565b7f53616c6520616c726561647920656e6465640000000000000000000000000000600082015250565b60006130b5601283613002565b91506130c08261307f565b602082019050919050565b600060208201905081810360008301526130e4816130a8565b9050919050565b7f41646472657373206e6f742077686974656c6973746564000000000000000000600082015250565b6000613121601783613002565b915061312c826130eb565b602082019050919050565b6000602082019050818103600083015261315081613114565b9050919050565b6000819050919050565b7f4e487b7100000000000000000000000000000000000000000000000000000000600052601260045260246000fd5b7f4e487b7100000000000000000000000000000000000000000000000000000000600052601160045260246000fd5b60006131ca82613157565b91506131d583613157565b9250826131e5576131e4613161565b5b828204905092915050565b60006131fb82613157565b915061320683613157565b925082820261321481613157565b9150828204841483151761322b5761322a613190565b5b5092915050565b600080fd5b600080fd5b600073ffffffffffffffffffffffffffffffffffffffff82169050919050565b60006132678261323c565b9050919050565b6132778161325c565b811461328257600080fd5b50565b6000813590506132948161326e565b92915050565b6000602082840312156132b0576132af613232565b5b60006132be84828501613285565b91505092915050565b60008115159050919050565b6132dc816132c7565b81146132e757600080fd5b50565b6000813590506132f9816132d3565b92915050565b60006020828403121561331557613314613232565b5b6000613323848285016132ea565b91505092915050565b600080fd5b600080fd5b600080fd5b60008083601f8401126133515761335061332c565b5b8235905067ffffffffffffffff81111561336e5761336d613331565b5b60208301915083602082028301111561338a57613389613336565b5b9250929050565b600080602083850312156133a8576133a7613232565b5b600083013567ffffffffffffffff8111156133c6576133c5613237565b5b6133d28582860161333b565b92509250509250929050565b6133e781613157565b81146133f257600080fd5b50565b600081359050613404816133de565b92915050565b6000602082840312156134205761341f613232565b5b600061342e848285016133f5565b91505092915050565b6134408161325c565b82525050565b600060208201905061345b6000830184613437565b92915050565b61346a81613157565b82525050565b60006020820190506134856000830184613461565b92915050565b613494816132c7565b82525050565b60006020820190506134af600083018461348b565b92915050565b600080604083850312156134cc576134cb613232565b5b60006134da85828601613285565b92505060206134eb858286016133f5565b9150509250929050565b6000819050919050565b600061351a6135156135108461323c565b6134f5565b61323c565b9050919050565b600061352c826134ff565b9050919050565b600061353e82613521565b9050919050565b61354e81613533565b82525050565b60006020820190506135696000830184613545565b92915050565b6000806040838503121561358657613585613232565b5b6000613594858286016133f5565b92505060206135a5858286016133f5565b9150509250929050565b600081519050919050565b600082825260208201905092915050565b6000819050602082019050919050565b7f4e487b7100000000000000000000000000000000000000000000000000000000600052602160045260246000fd5b6004811061361b5761361a6135db565b5b50565b600081905061362c8261360a565b919050565b600061363c8261361e565b9050919050565b61364c81613631565b82525050565b600061365e8383613643565b60208301905092915050565b6000602082019050919050565b6000613682826135af565b61368c81856135ba565b9350613697836135cb565b8060005b838110156136c85781516136af8882613652565b97506136ba8361366a565b92505060018101905061369b565b5085935050505092915050565b600060208201905081810360008301526136ef8184613677565b905092915050565b60006137028261323c565b9050919050565b613712816136f7565b82525050565b600060208201905061372d6000830184613709565b92915050565b600081519050919050565b600082825260208201905092915050565b6000819050602082019050919050565b6137688161325c565b82525050565b600061377a838361375f565b60208301905092915050565b6000602082019050919050565b600061379e82613733565b6137a8818561373e565b93506137b38361374f565b8060005b838110156137e45781516137cb888261376e565b97506137d683613786565b9250506001810190506137b7565b5085935050505092915050565b6000602082019050818103600083015261380b8184613793565b905092915050565b61381c81613631565b82525050565b60006020820190506138376000830184613813565b92915050565b7f496e76616c696420616d6f756e74206f66204574686572000000000000000000600082015250565b6000613873601783613002565b915061387e8261383d565b602082019050919050565b600060208201905081810360008301526138a281613866565b9050919050565b6000815190506138b8816133de565b92915050565b6000602082840312156138d4576138d3613232565b5b60006138e2848285016138a9565b91505092915050565b60006138f682613157565b915061390183613157565b925082820190508082111561391957613918613190565b5b92915050565b60006040820190506139346000830185613437565b6139416020830184613461565b9392505050565b600081519050613957816132d3565b92915050565b60006020828403121561397357613972613232565b5b600061398184828501613948565b91505092915050565b600060408201905061399f6000830185613461565b6139ac6020830184613437565b9392505050565b7f4f6e6c79206f776e65722063616e2063616c6c20746869732066756e6374696f60008201527f6e00000000000000000000000000000000000000000000000000000000000000602082015250565b6000613a0f602183613002565b9150613a1a826139b3565b604082019050919050565b60006020820190508181036000830152613a3e81613a02565b9050919050565b7f41646472657373206973206e6f7420696e2070656e64696e67206c6973740000600082015250565b6000613a7b601e83613002565b9150613a8682613a45565b602082019050919050565b60006020820190508181036000830152613aaa81613a6e565b9050919050565b7f4e487b7100000000000000000000000000000000000000000000000000000000600052603260045260246000fd5b6000613aeb82613157565b91507fffffffffffffffffffffffffffffffffffffffffffffffffffffffffffffffff8203613b1d57613b1c613190565b5b600182019050919050565b6000613b3382613521565b9050919050565b613b4381613b28565b82525050565b6000604082019050613b5e6000830185613b3a565b613b6b6020830184613461565b9392505050565b600081905092915050565b50565b6000613b8d600083613b72565b9150613b9882613b7d565b600082019050919050565b6000613bae82613b80565b9150819050919050565b7f4661696c656420746f2073656e64204574686572000000000000000000000000600082015250565b6000613bee601483613002565b9150613bf982613bb8565b602082019050919050565b60006020820190508181036000830152613c1d81613be1565b9050919050565b6000604082019050613c396000830185613461565b613c466020830184613461565b9392505050565b7f53616c65206973206e6f7420656e646564207965740000000000000000000000600082015250565b6000613c83601583613002565b9150613c8e82613c4d565b602082019050919050565b60006020820190508181036000830152613cb281613c76565b9050919050565b7f526566756e64206973206e6f7420656e61626c65640000000000000000000000600082015250565b6000613cef601583613002565b9150613cfa82613cb9565b602082019050919050565b60006020820190508181036000830152613d1e81613ce2565b9050919050565b7f596f752068617665206e6f742070757263686173656420616e7920746f6b656e60008201527f7300000000000000000000000000000000000000000000000000000000000000602082015250565b6000613d81602183613002565b9150613d8c82613d25565b604082019050919050565b60006020820190508181036000830152613db081613d74565b9050919050565b6000613dc282613157565b9150613dcd83613157565b9250828203905081811115613de557613de4613190565b5b92915050565b6000606082019050613e006000830186613437565b613e0d6020830185613437565b613e1a6040830184613461565b949350505050565b7f496e73756666696369656e742062616c616e6365000000000000000000000000600082015250565b6000613e58601483613002565b9150613e6382613e22565b602082019050919050565b60006020820190508181036000830152613e8781613e4b565b9050919050565b7f42616c616e6365206973207a65726f0000000000000000000000000000000000600082015250565b6000613ec4600f83613002565b9150613ecf82613e8e565b602082019050919050565b60006020820190508181036000830152613ef381613eb7565b9050919050565b7f596f75206861766520616c726561647920726571756573746564000000000000600082015250565b6000613f30601a83613002565b9150613f3b82613efa565b602082019050919050565b60006020820190508181036000830152613f5f81613f23565b9050919050565b7f4e487b7100000000000000000000000000000000000000000000000000000000600052604160045260246000fdfea2646970667358221220045fb4cb05a4399203c5786c1b99f3c4beeb92d86aff57948d8a7e6f46886a4264736f6c63430008120033",
  "linkReferences": {},
  "deployedLinkReferences": {}
}