{
  "_format": "hh-sol-artifact-1",
  "contractName": "Crowdsale",
  "sourceName": "contracts/Crowdsale.sol",
  "abi": [
    {
      "inputs": [
        {
          "internalType": "contract DAPPToken",
          "name": "_dappToken",
          "type": "address"
        },
        {
          "internalType": "uint256",
          "name": "_price",
          "type": "uint256"
        },
        {
          "internalType": "uint256",
          "name": "_maxTokens",
          "type": "uint256"
        },
        {
          "internalType": "uint256",
          "name": "_startTime",
          "type": "uint256"
        },
        {
          "internalType": "uint256",
          "name": "_endTime",
          "type": "uint256"
        },
        {
          "internalType": "uint256",
          "name": "_minPurchase",
          "type": "uint256"
        },
        {
          "internalType": "uint256",
          "name": "_maxPurchase",
          "type": "uint256"
        }
      ],
      "stateMutability": "nonpayable",
      "type": "constructor"
    },
    {
      "anonymous": false,
      "inputs": [
        {
          "indexed": true,
          "internalType": "address",
          "name": "_addr",
          "type": "address"
        }
      ],
      "name": "AddressAdded",
      "type": "event"
    },
    {
      "anonymous": false,
      "inputs": [
        {
          "indexed": true,
          "internalType": "address",
          "name": "_addr",
          "type": "address"
        }
      ],
      "name": "AddressApproved",
      "type": "event"
    },
    {
      "anonymous": false,
      "inputs": [
        {
          "indexed": true,
          "internalType": "address",
          "name": "_addr",
          "type": "address"
        }
      ],
      "name": "AddressRejected",
      "type": "event"
    },
    {
      "anonymous": false,
      "inputs": [
        {
          "indexed": false,
          "internalType": "uint256",
          "name": "amount",
          "type": "uint256"
        },
        {
          "indexed": false,
          "internalType": "address",
          "name": "buyer",
          "type": "address"
        }
      ],
      "name": "Buy",
      "type": "event"
    },
    {
      "anonymous": false,
      "inputs": [
        {
          "indexed": false,
          "internalType": "uint256",
          "name": "amount",
          "type": "uint256"
        },
        {
          "indexed": false,
          "internalType": "uint256",
          "name": "value",
          "type": "uint256"
        }
      ],
      "name": "Finalize",
      "type": "event"
    },
    {
      "anonymous": false,
      "inputs": [
        {
          "indexed": true,
          "internalType": "address",
          "name": "_addr",
          "type": "address"
        },
        {
          "indexed": false,
          "internalType": "uint256",
          "name": "amount",
          "type": "uint256"
        }
      ],
      "name": "Refund",
      "type": "event"
    },
    {
      "inputs": [
        {
          "internalType": "address",
          "name": "_addr",
          "type": "address"
        }
      ],
      "name": "approveWhitelist",
      "outputs": [],
      "stateMutability": "nonpayable",
      "type": "function"
    },
    {
      "inputs": [
        {
          "internalType": "address[]",
          "name": "_addresses",
          "type": "address[]"
        }
      ],
      "name": "approveWhitelistToAll",
      "outputs": [],
      "stateMutability": "nonpayable",
      "type": "function"
    },
    {
      "inputs": [
        {
          "internalType": "uint256",
          "name": "_amount",
          "type": "uint256"
        }
      ],
      "name": "buyTokens",
      "outputs": [],
      "stateMutability": "payable",
      "type": "function"
    },
    {
      "inputs": [],
      "name": "dappToken",
      "outputs": [
        {
          "internalType": "contract DAPPToken",
          "name": "",
          "type": "address"
        }
      ],
      "stateMutability": "view",
      "type": "function"
    },
    {
      "inputs": [],
      "name": "disableRefund",
      "outputs": [],
      "stateMutability": "nonpayable",
      "type": "function"
    },
    {
      "inputs": [],
      "name": "enableRefund",
      "outputs": [],
      "stateMutability": "nonpayable",
      "type": "function"
    },
    {
      "inputs": [],
      "name": "endTime",
      "outputs": [
        {
          "internalType": "uint256",
          "name": "",
          "type": "uint256"
        }
      ],
      "stateMutability": "view",
      "type": "function"
    },
    {
      "inputs": [
        {
          "internalType": "address",
          "name": "",
          "type": "address"
        },
        {
          "internalType": "uint256",
          "name": "",
          "type": "uint256"
        }
      ],
      "name": "ethTokenBalance",
      "outputs": [
        {
          "internalType": "uint256",
          "name": "",
          "type": "uint256"
        }
      ],
      "stateMutability": "view",
      "type": "function"
    },
    {
      "inputs": [],
      "name": "finalize",
      "outputs": [],
      "stateMutability": "nonpayable",
      "type": "function"
    },
    {
      "inputs": [],
      "name": "getPendingStatusAddr",
      "outputs": [
        {
          "internalType": "address[]",
          "name": "",
          "type": "address[]"
        }
      ],
      "stateMutability": "view",
      "type": "function"
    },
    {
      "inputs": [
        {
          "internalType": "address",
          "name": "_addr",
          "type": "address"
        }
      ],
      "name": "getWhitelistStatus",
      "outputs": [
        {
          "internalType": "bool",
          "name": "",
          "type": "bool"
        }
      ],
      "stateMutability": "view",
      "type": "function"
    },
    {
      "inputs": [
        {
          "internalType": "address[]",
          "name": "_addresses",
          "type": "address[]"
        }
      ],
      "name": "getWhitelistStatusAll",
      "outputs": [
        {
          "internalType": "enum Crowdsale.WhitelistStatus[]",
          "name": "",
          "type": "uint8[]"
        }
      ],
      "stateMutability": "view",
      "type": "function"
    },
    {
      "inputs": [
        {
          "internalType": "address",
          "name": "",
          "type": "address"
        }
      ],
      "name": "isPendingWhitelist",
      "outputs": [
        {
          "internalType": "bool",
          "name": "",
          "type": "bool"
        }
      ],
      "stateMutability": "view",
      "type": "function"
    },
    {
      "inputs": [
        {
          "internalType": "address",
          "name": "",
          "type": "address"
        }
      ],
      "name": "isWhitelisted",
      "outputs": [
        {
          "internalType": "bool",
          "name": "",
          "type": "bool"
        }
      ],
      "stateMutability": "view",
      "type": "function"
    },
    {
      "inputs": [],
      "name": "maxPurchase",
      "outputs": [
        {
          "internalType": "uint256",
          "name": "",
          "type": "uint256"
        }
      ],
      "stateMutability": "view",
      "type": "function"
    },
    {
      "inputs": [],
      "name": "maxTokens",
      "outputs": [
        {
          "internalType": "uint256",
          "name": "",
          "type": "uint256"
        }
      ],
      "stateMutability": "view",
      "type": "function"
    },
    {
      "inputs": [],
      "name": "minPurchase",
      "outputs": [
        {
          "internalType": "uint256",
          "name": "",
          "type": "uint256"
        }
      ],
      "stateMutability": "view",
      "type": "function"
    },
    {
      "inputs": [],
      "name": "owner",
      "outputs": [
        {
          "internalType": "address payable",
          "name": "",
          "type": "address"
        }
      ],
      "stateMutability": "view",
      "type": "function"
    },
    {
      "inputs": [],
      "name": "price",
      "outputs": [
        {
          "internalType": "uint256",
          "name": "",
          "type": "uint256"
        }
      ],
      "stateMutability": "view",
      "type": "function"
    },
    {
      "inputs": [
        {
          "internalType": "address",
          "name": "",
          "type": "address"
        }
      ],
      "name": "purchaseAmount",
      "outputs": [
        {
          "internalType": "uint256",
          "name": "",
          "type": "uint256"
        }
      ],
      "stateMutability": "view",
      "type": "function"
    },
    {
      "inputs": [],
      "name": "refundCampaign",
      "outputs": [],
      "stateMutability": "nonpayable",
      "type": "function"
    },
    {
      "inputs": [
        {
          "internalType": "address",
          "name": "_addr",
          "type": "address"
        }
      ],
      "name": "rejectWhitelist",
      "outputs": [],
      "stateMutability": "nonpayable",
      "type": "function"
    },
    {
      "inputs": [
        {
          "internalType": "address[]",
          "name": "_addresses",
          "type": "address[]"
        }
      ],
      "name": "rejectWhitelistToAll",
      "outputs": [],
      "stateMutability": "nonpayable",
      "type": "function"
    },
    {
      "inputs": [
        {
          "internalType": "address",
          "name": "_addr",
          "type": "address"
        }
      ],
      "name": "removeAddressFromWhiteList",
      "outputs": [],
      "stateMutability": "nonpayable",
      "type": "function"
    },
    {
      "inputs": [],
      "name": "requestWhitelist",
      "outputs": [],
      "stateMutability": "nonpayable",
      "type": "function"
    },
    {
      "inputs": [
        {
          "internalType": "uint256",
          "name": "",
          "type": "uint256"
        }
      ],
      "name": "requestors",
      "outputs": [
        {
          "internalType": "address",
          "name": "",
          "type": "address"
        }
      ],
      "stateMutability": "view",
      "type": "function"
    },
    {
      "inputs": [
        {
          "internalType": "uint256",
          "name": "_startTime",
          "type": "uint256"
        },
        {
          "internalType": "uint256",
          "name": "_endTime",
          "type": "uint256"
        }
      ],
      "name": "restartCampaign",
      "outputs": [],
      "stateMutability": "nonpayable",
      "type": "function"
    },
    {
      "inputs": [
        {
          "internalType": "uint256",
          "name": "_minPurchase",
          "type": "uint256"
        },
        {
          "internalType": "uint256",
          "name": "_maxPurchase",
          "type": "uint256"
        }
      ],
      "name": "setContribution",
      "outputs": [],
      "stateMutability": "nonpayable",
      "type": "function"
    },
    {
      "inputs": [
        {
          "internalType": "uint256",
          "name": "_price",
          "type": "uint256"
        }
      ],
      "name": "setPrice",
      "outputs": [],
      "stateMutability": "nonpayable",
      "type": "function"
    },
    {
      "inputs": [
        {
          "internalType": "bool",
          "name": "_status",
          "type": "bool"
        }
      ],
      "name": "setRefundStatus",
      "outputs": [],
      "stateMutability": "nonpayable",
      "type": "function"
    },
    {
      "inputs": [],
      "name": "startTime",
      "outputs": [
        {
          "internalType": "uint256",
          "name": "",
          "type": "uint256"
        }
      ],
      "stateMutability": "view",
      "type": "function"
    },
    {
      "inputs": [],
      "name": "tokensSold",
      "outputs": [
        {
          "internalType": "uint256",
          "name": "",
          "type": "uint256"
        }
      ],
      "stateMutability": "view",
      "type": "function"
    },
    {
      "inputs": [
        {
          "internalType": "address",
          "name": "_addr",
          "type": "address"
        }
      ],
      "name": "whitelistAddress",
      "outputs": [],
      "stateMutability": "nonpayable",
      "type": "function"
    },
    {
      "inputs": [
        {
          "internalType": "address",
          "name": "",
          "type": "address"
        }
      ],
      "name": "whitelistStatus",
      "outputs": [
        {
          "internalType": "enum Crowdsale.WhitelistStatus",
          "name": "",
          "type": "uint8"
        }
      ],
      "stateMutability": "view",
      "type": "function"
    },
    {
      "inputs": [],
      "name": "withdrawBalance",
      "outputs": [],
      "stateMutability": "nonpayable",
      "type": "function"
    },
    {
      "stateMutability": "payable",
      "type": "receive"
    }
  ],
  "bytecode": "0x60806040523480156200001157600080fd5b5060405162003fa038038062003fa08339818101604052810190620000379190620001a8565b336000806101000a81548173ffffffffffffffffffffffffffffffffffffffff021916908373ffffffffffffffffffffffffffffffffffffffff16021790555086600160006101000a81548173ffffffffffffffffffffffffffffffffffffffff021916908373ffffffffffffffffffffffffffffffffffffffff160217905550856002819055508460038190555083600581905550826006819055508160078190555080600881905550505050505050506200025b565b600080fd5b600073ffffffffffffffffffffffffffffffffffffffff82169050919050565b60006200012182620000f4565b9050919050565b6000620001358262000114565b9050919050565b620001478162000128565b81146200015357600080fd5b50565b60008151905062000167816200013c565b92915050565b6000819050919050565b62000182816200016d565b81146200018e57600080fd5b50565b600081519050620001a28162000177565b92915050565b600080600080600080600060e0888a031215620001ca57620001c9620000ef565b5b6000620001da8a828b0162000156565b9750506020620001ed8a828b0162000191565b9650506040620002008a828b0162000191565b9550506060620002138a828b0162000191565b9450506080620002268a828b0162000191565b93505060a0620002398a828b0162000191565b92505060c06200024c8a828b0162000191565b91505092959891949750929550565b613d35806200026b6000396000f3fe6080604052600436106102085760003560e01c80635fd8c71011610118578063977b055b116100a0578063ca6ae7441161006f578063ca6ae74414610837578063ca8c3e7714610860578063ccaf1c4b14610889578063d9ba32fc146108c6578063e83157421461090357610353565b8063977b055b146107795780639d55a0a6146107a4578063a035b1fe146107e1578063c452b43c1461080c57610353565b806378e97925116100e757806378e97925146106a65780637d3b5615146106d157806389e423461461070e5780638da5cb5b1461072557806391b7f5ed1461075057610353565b80635fd8c710146106125780636504d350146106295780636c5cde68146106525780636e1e93491461068f57610353565b80633af32abf1161019b5780634cc2cb851161016a5780634cc2cb851461053f578063518ab2a814610556578063548e5c761461058157806356572a78146105be5780635eb186f8146105e757610353565b80633af32abf1461049957806341566585146104d65780634bb01abb146104ff5780634bb278f31461052857610353565b80632906a079116101d75780632906a079146103ea5780633197cbb61461042757806333b5b62e146104525780633610724e1461047d57610353565b8063015013471461035857806316f8d3fc1461036f578063176898c9146103985780631d10fd86146103c157610353565b3661035357600554421015610252576040517f08c379a000000000000000000000000000000000000000000000000000000000815260040161024990612dc9565b60405180910390fd5b600654421115610297576040517f08c379a000000000000000000000000000000000000000000000000000000000815260040161028e90612e35565b60405180910390fd5b600b60003373ffffffffffffffffffffffffffffffffffffffff1673ffffffffffffffffffffffffffffffffffffffff16815260200190815260200160002060009054906101000a900460ff16610323576040517f08c379a000000000000000000000000000000000000000000000000000000000815260040161031a90612ea1565b60405180910390fd5b6000600254346103339190612f29565b9050610351670de0b6b3a76400008261034c9190612f5a565b61092e565b005b600080fd5b34801561036457600080fd5b5061036d610d59565b005b34801561037b57600080fd5b5061039660048036038101906103919190613004565b610e04565b005b3480156103a457600080fd5b506103bf60048036038101906103ba9190613069565b6110a3565b005b3480156103cd57600080fd5b506103e860048036038101906103e391906130fb565b61114e565b005b3480156103f657600080fd5b50610411600480360381019061040c9190613174565b6113ab565b60405161041e91906131b0565b60405180910390f35b34801561043357600080fd5b5061043c6113ea565b60405161044991906131da565b60405180910390f35b34801561045e57600080fd5b506104676113f0565b60405161047491906131da565b60405180910390f35b61049760048036038101906104929190613174565b61092e565b005b3480156104a557600080fd5b506104c060048036038101906104bb9190613004565b6113f6565b6040516104cd9190613204565b60405180910390f35b3480156104e257600080fd5b506104fd60048036038101906104f89190613004565b611416565b005b34801561050b57600080fd5b5061052660048036038101906105219190613004565b6114ff565b005b34801561053457600080fd5b5061053d6115e8565b005b34801561054b57600080fd5b506105546118eb565b005b34801561056257600080fd5b5061056b611cdb565b60405161057891906131da565b60405180910390f35b34801561058d57600080fd5b506105a860048036038101906105a3919061321f565b611ce1565b6040516105b591906131da565b60405180910390f35b3480156105ca57600080fd5b506105e560048036038101906105e091906130fb565b611d06565b005b3480156105f357600080fd5b506105fc611fbb565b60405161060991906132be565b60405180910390f35b34801561061e57600080fd5b50610627611fe1565b005b34801561063557600080fd5b50610650600480360381019061064b91906132d9565b612182565b005b34801561065e57600080fd5b5061067960048036038101906106749190613004565b61223d565b60405161068691906131da565b60405180910390f35b34801561069b57600080fd5b506106a4612255565b005b3480156106b257600080fd5b506106bb612470565b6040516106c891906131da565b60405180910390f35b3480156106dd57600080fd5b506106f860048036038101906106f391906130fb565b612476565b604051610705919061343f565b60405180910390f35b34801561071a57600080fd5b506107236125ad565b005b34801561073157600080fd5b5061073a61269c565b6040516107479190613482565b60405180910390f35b34801561075c57600080fd5b5061077760048036038101906107729190613174565b6126c0565b005b34801561078557600080fd5b5061078e612758565b60405161079b91906131da565b60405180910390f35b3480156107b057600080fd5b506107cb60048036038101906107c69190613004565b61275e565b6040516107d89190613204565b60405180910390f35b3480156107ed57600080fd5b506107f661277e565b60405161080391906131da565b60405180910390f35b34801561081857600080fd5b50610821612784565b60405161082e919061355b565b60405180910390f35b34801561084357600080fd5b5061085e60048036038101906108599190613004565b612938565b005b34801561086c57600080fd5b50610887600480360381019061088291906132d9565b612b7f565b005b34801561089557600080fd5b506108b060048036038101906108ab9190613004565b612c1f565b6040516108bd919061358c565b60405180910390f35b3480156108d257600080fd5b506108ed60048036038101906108e89190613004565b612c3f565b6040516108fa9190613204565b60405180910390f35b34801561090f57600080fd5b50610918612c95565b60405161092591906131da565b60405180910390f35b600b60003373ffffffffffffffffffffffffffffffffffffffff1673ffffffffffffffffffffffffffffffffffffffff16815260200190815260200160002060009054906101000a900460ff166109ba576040517f08c379a00000000000000000000000000000000000000000000000000000000081526004016109b190612ea1565b60405180910390fd5b6005544210156109ff576040517f08c379a00000000000000000000000000000000000000000000000000000000081526004016109f690612dc9565b60405180910390fd5b600654421115610a44576040517f08c379a0000000000000000000000000000000000000000000000000000000008152600401610a3b90612e35565b60405180910390fd5b6000600254670de0b6b3a764000083610a5d9190612f29565b610a679190612f5a565b9050803414610aab576040517f08c379a0000000000000000000000000000000000000000000000000000000008152600401610aa2906135f3565b60405180910390fd5b6008548211158015610abf57506007548210155b610ac857600080fd5b81600160009054906101000a900473ffffffffffffffffffffffffffffffffffffffff1673ffffffffffffffffffffffffffffffffffffffff166370a08231306040518263ffffffff1660e01b8152600401610b2491906131b0565b602060405180830381865afa158015610b41573d6000803e3d6000fd5b505050506040513d601f19601f82011682018060405250810190610b659190613628565b1015610b7057600080fd5b81600d60003373ffffffffffffffffffffffffffffffffffffffff1673ffffffffffffffffffffffffffffffffffffffff1681526020019081526020016000206000828254610bbf9190613655565b92505081905550600160009054906101000a900473ffffffffffffffffffffffffffffffffffffffff1673ffffffffffffffffffffffffffffffffffffffff1663a9059cbb33846040518363ffffffff1660e01b8152600401610c23929190613689565b6020604051808303816000875af1158015610c42573d6000803e3d6000fd5b505050506040513d601f19601f82011682018060405250810190610c6691906136c7565b610c6f57600080fd5b8160046000828254610c819190613655565b9250508190555034600f60003373ffffffffffffffffffffffffffffffffffffffff1673ffffffffffffffffffffffffffffffffffffffff1681526020019081526020016000206000600d60003373ffffffffffffffffffffffffffffffffffffffff1673ffffffffffffffffffffffffffffffffffffffff168152602001908152602001600020548152602001908152602001600020819055507f7534e9c9396820aad756ba27f82162930f80bef863aabdf311e7dce26a79bccd8233604051610d4d9291906136f4565b60405180910390a15050565b60008054906101000a900473ffffffffffffffffffffffffffffffffffffffff1673ffffffffffffffffffffffffffffffffffffffff163373ffffffffffffffffffffffffffffffffffffffff1614610de7576040517f08c379a0000000000000000000000000000000000000000000000000000000008152600401610dde9061378f565b60405180910390fd5b6000600a60006101000a81548160ff021916908315150217905550565b60008054906101000a900473ffffffffffffffffffffffffffffffffffffffff1673ffffffffffffffffffffffffffffffffffffffff163373ffffffffffffffffffffffffffffffffffffffff1614610e92576040517f08c379a0000000000000000000000000000000000000000000000000000000008152600401610e899061378f565b60405180910390fd5b60006002811115610ea657610ea5613345565b5b600c60008373ffffffffffffffffffffffffffffffffffffffff1673ffffffffffffffffffffffffffffffffffffffff16815260200190815260200160002060009054906101000a900460ff166002811115610f0557610f04613345565b5b14610f45576040517f08c379a0000000000000000000000000000000000000000000000000000000008152600401610f3c906137fb565b60405180910390fd5b6001600c60008373ffffffffffffffffffffffffffffffffffffffff1673ffffffffffffffffffffffffffffffffffffffff16815260200190815260200160002060006101000a81548160ff02191690836002811115610fa857610fa7613345565b5b02179055506000600e60008373ffffffffffffffffffffffffffffffffffffffff1673ffffffffffffffffffffffffffffffffffffffff16815260200190815260200160002060006101000a81548160ff0219169083151502179055506001600b60008373ffffffffffffffffffffffffffffffffffffffff1673ffffffffffffffffffffffffffffffffffffffff16815260200190815260200160002060006101000a81548160ff0219169083151502179055508073ffffffffffffffffffffffffffffffffffffffff167f22ccae257baf5241d183f9fcd06432b49697e9576652b3f436249b101f32bf9460405160405180910390a250565b60008054906101000a900473ffffffffffffffffffffffffffffffffffffffff1673ffffffffffffffffffffffffffffffffffffffff163373ffffffffffffffffffffffffffffffffffffffff1614611131576040517f08c379a00000000000000000000000000000000000000000000000000000000081526004016111289061378f565b60405180910390fd5b80600a60006101000a81548160ff02191690831515021790555050565b60008054906101000a900473ffffffffffffffffffffffffffffffffffffffff1673ffffffffffffffffffffffffffffffffffffffff163373ffffffffffffffffffffffffffffffffffffffff16146111dc576040517f08c379a00000000000000000000000000000000000000000000000000000000081526004016111d39061378f565b60405180910390fd5b60005b828290508110156113a65760008383838181106111ff576111fe61381b565b5b90506020020160208101906112149190613004565b90506000600281111561122a57611229613345565b5b600c60008373ffffffffffffffffffffffffffffffffffffffff1673ffffffffffffffffffffffffffffffffffffffff16815260200190815260200160002060009054906101000a900460ff16600281111561128957611288613345565b5b03611392576002600c60008373ffffffffffffffffffffffffffffffffffffffff1673ffffffffffffffffffffffffffffffffffffffff16815260200190815260200160002060006101000a81548160ff021916908360028111156112f1576112f0613345565b5b02179055506000600e60008373ffffffffffffffffffffffffffffffffffffffff1673ffffffffffffffffffffffffffffffffffffffff16815260200190815260200160002060006101000a81548160ff0219169083151502179055508073ffffffffffffffffffffffffffffffffffffffff167fea4e312ba0c689a06d39183bdbe4da8a13f666c2cae20bfcc77a93cf86dada1260405160405180910390a25b50808061139e9061384a565b9150506111df565b505050565b600981815481106113bb57600080fd5b906000526020600020016000915054906101000a900473ffffffffffffffffffffffffffffffffffffffff1681565b60065481565b60075481565b600b6020528060005260406000206000915054906101000a900460ff1681565b60008054906101000a900473ffffffffffffffffffffffffffffffffffffffff1673ffffffffffffffffffffffffffffffffffffffff163373ffffffffffffffffffffffffffffffffffffffff16146114a4576040517f08c379a000000000000000000000000000000000000000000000000000000000815260040161149b9061378f565b60405180910390fd5b6001600b60008373ffffffffffffffffffffffffffffffffffffffff1673ffffffffffffffffffffffffffffffffffffffff16815260200190815260200160002060006101000a81548160ff02191690831515021790555050565b60008054906101000a900473ffffffffffffffffffffffffffffffffffffffff1673ffffffffffffffffffffffffffffffffffffffff163373ffffffffffffffffffffffffffffffffffffffff161461158d576040517f08c379a00000000000000000000000000000000000000000000000000000000081526004016115849061378f565b60405180910390fd5b6000600b60008373ffffffffffffffffffffffffffffffffffffffff1673ffffffffffffffffffffffffffffffffffffffff16815260200190815260200160002060006101000a81548160ff02191690831515021790555050565b60008054906101000a900473ffffffffffffffffffffffffffffffffffffffff1673ffffffffffffffffffffffffffffffffffffffff163373ffffffffffffffffffffffffffffffffffffffff1614611676576040517f08c379a000000000000000000000000000000000000000000000000000000000815260040161166d9061378f565b60405180910390fd5b600160009054906101000a900473ffffffffffffffffffffffffffffffffffffffff1673ffffffffffffffffffffffffffffffffffffffff1663a9059cbb60008054906101000a900473ffffffffffffffffffffffffffffffffffffffff16600160009054906101000a900473ffffffffffffffffffffffffffffffffffffffff1673ffffffffffffffffffffffffffffffffffffffff166370a08231306040518263ffffffff1660e01b815260040161173091906131b0565b602060405180830381865afa15801561174d573d6000803e3d6000fd5b505050506040513d601f19601f820116820180604052508101906117719190613628565b6040518363ffffffff1660e01b815260040161178e9291906138b3565b6020604051808303816000875af11580156117ad573d6000803e3d6000fd5b505050506040513d601f19601f820116820180604052508101906117d191906136c7565b6117da57600080fd5b600047905060008060009054906101000a900473ffffffffffffffffffffffffffffffffffffffff1673ffffffffffffffffffffffffffffffffffffffff16826040516118269061390d565b60006040518083038185875af1925050503d8060008114611863576040519150601f19603f3d011682016040523d82523d6000602084013e611868565b606091505b50509050806118ac576040517f08c379a00000000000000000000000000000000000000000000000000000000081526004016118a39061396e565b60405180910390fd5b7f9d3cb3e4bff976f636db6ed472093505eb1b5bafc234ea8276ae83b3ea0a8b74600454836040516118df92919061398e565b60405180910390a15050565b600654421161192f576040517f08c379a000000000000000000000000000000000000000000000000000000000815260040161192690613a03565b60405180910390fd5b60011515600a60009054906101000a900460ff16151514611985576040517f08c379a000000000000000000000000000000000000000000000000000000000815260040161197c90613a6f565b60405180910390fd5b6000600d60003373ffffffffffffffffffffffffffffffffffffffff1673ffffffffffffffffffffffffffffffffffffffff16815260200190815260200160002054905060008111611a0c576040517f08c379a0000000000000000000000000000000000000000000000000000000008152600401611a0390613b01565b60405180910390fd5b6000600d60003373ffffffffffffffffffffffffffffffffffffffff1673ffffffffffffffffffffffffffffffffffffffff168152602001908152602001600020819055508060046000828254611a639190613b21565b92505081905550600160009054906101000a900473ffffffffffffffffffffffffffffffffffffffff1673ffffffffffffffffffffffffffffffffffffffff166323b872dd3330846040518463ffffffff1660e01b8152600401611ac993929190613b55565b6020604051808303816000875af1158015611ae8573d6000803e3d6000fd5b505050506040513d601f19601f82011682018060405250810190611b0c91906136c7565b506000600254670de0b6b3a764000083611b269190612f29565b611b309190612f5a565b905080471015611b75576040517f08c379a0000000000000000000000000000000000000000000000000000000008152600401611b6c90613bd8565b60405180910390fd5b80600f60003373ffffffffffffffffffffffffffffffffffffffff1673ffffffffffffffffffffffffffffffffffffffff16815260200190815260200160002060008481526020019081526020016000206000828254611bd59190613b21565b9250508190555060003373ffffffffffffffffffffffffffffffffffffffff1682604051611c029061390d565b60006040518083038185875af1925050503d8060008114611c3f576040519150601f19603f3d011682016040523d82523d6000602084013e611c44565b606091505b5050905080611c88576040517f08c379a0000000000000000000000000000000000000000000000000000000008152600401611c7f9061396e565b60405180910390fd5b3373ffffffffffffffffffffffffffffffffffffffff167fbb28353e4598c3b9199101a66e0989549b659a59a54d2c27fbb183f1932c8e6d84604051611cce91906131da565b60405180910390a2505050565b60045481565b600f602052816000526040600020602052806000526040600020600091509150505481565b60008054906101000a900473ffffffffffffffffffffffffffffffffffffffff1673ffffffffffffffffffffffffffffffffffffffff163373ffffffffffffffffffffffffffffffffffffffff1614611d94576040517f08c379a0000000000000000000000000000000000000000000000000000000008152600401611d8b9061378f565b60405180910390fd5b60005b82829050811015611fb6576000838383818110611db757611db661381b565b5b9050602002016020810190611dcc9190613004565b905060006002811115611de257611de1613345565b5b600c60008373ffffffffffffffffffffffffffffffffffffffff1673ffffffffffffffffffffffffffffffffffffffff16815260200190815260200160002060009054906101000a900460ff166002811115611e4157611e40613345565b5b03611fa2576001600c60008373ffffffffffffffffffffffffffffffffffffffff1673ffffffffffffffffffffffffffffffffffffffff16815260200190815260200160002060006101000a81548160ff02191690836002811115611ea957611ea8613345565b5b02179055506000600e60008373ffffffffffffffffffffffffffffffffffffffff1673ffffffffffffffffffffffffffffffffffffffff16815260200190815260200160002060006101000a81548160ff0219169083151502179055506001600b60008373ffffffffffffffffffffffffffffffffffffffff1673ffffffffffffffffffffffffffffffffffffffff16815260200190815260200160002060006101000a81548160ff0219169083151502179055508073ffffffffffffffffffffffffffffffffffffffff167f22ccae257baf5241d183f9fcd06432b49697e9576652b3f436249b101f32bf9460405160405180910390a25b508080611fae9061384a565b915050611d97565b505050565b600160009054906101000a900473ffffffffffffffffffffffffffffffffffffffff1681565b60008054906101000a900473ffffffffffffffffffffffffffffffffffffffff1673ffffffffffffffffffffffffffffffffffffffff163373ffffffffffffffffffffffffffffffffffffffff161461206f576040517f08c379a00000000000000000000000000000000000000000000000000000000081526004016120669061378f565b60405180910390fd5b600047116120b2576040517f08c379a00000000000000000000000000000000000000000000000000000000081526004016120a990613c44565b60405180910390fd5b60008060009054906101000a900473ffffffffffffffffffffffffffffffffffffffff1673ffffffffffffffffffffffffffffffffffffffff16476040516120f99061390d565b60006040518083038185875af1925050503d8060008114612136576040519150601f19603f3d011682016040523d82523d6000602084013e61213b565b606091505b505090508061217f576040517f08c379a00000000000000000000000000000000000000000000000000000000081526004016121769061396e565b60405180910390fd5b50565b60008054906101000a900473ffffffffffffffffffffffffffffffffffffffff1673ffffffffffffffffffffffffffffffffffffffff163373ffffffffffffffffffffffffffffffffffffffff1614612210576040517f08c379a00000000000000000000000000000000000000000000000000000000081526004016122079061378f565b60405180910390fd5b81600581905550806006819055506000600a60006101000a81548160ff0219169083151502179055505050565b600d6020528060005260406000206000915090505481565b6000600281111561226957612268613345565b5b600c60003373ffffffffffffffffffffffffffffffffffffffff1673ffffffffffffffffffffffffffffffffffffffff16815260200190815260200160002060009054906101000a900460ff1660028111156122c8576122c7613345565b5b14612308576040517f08c379a00000000000000000000000000000000000000000000000000000000081526004016122ff90613cb0565b60405180910390fd5b6000600c60003373ffffffffffffffffffffffffffffffffffffffff1673ffffffffffffffffffffffffffffffffffffffff16815260200190815260200160002060006101000a81548160ff0219169083600281111561236b5761236a613345565b5b02179055506001600e60003373ffffffffffffffffffffffffffffffffffffffff1673ffffffffffffffffffffffffffffffffffffffff16815260200190815260200160002060006101000a81548160ff0219169083151502179055506009339080600181540180825580915050600190039060005260206000200160009091909190916101000a81548173ffffffffffffffffffffffffffffffffffffffff021916908373ffffffffffffffffffffffffffffffffffffffff1602179055503373ffffffffffffffffffffffffffffffffffffffff167fa226db3f664042183ee0281230bba26cbf7b5057e50aee7f25a175ff45ce4d7f60405160405180910390a2565b60055481565b606060008383905067ffffffffffffffff81111561249757612496613cd0565b5b6040519080825280602002602001820160405280156124c55781602001602082028036833780820191505090505b50905060005b848490508110156125a257600c60008686848181106124ed576124ec61381b565b5b90506020020160208101906125029190613004565b73ffffffffffffffffffffffffffffffffffffffff1673ffffffffffffffffffffffffffffffffffffffff16815260200190815260200160002060009054906101000a900460ff1682828151811061255d5761255c61381b565b5b6020026020010190600281111561257757612576613345565b5b9081600281111561258b5761258a613345565b5b81525050808061259a9061384a565b9150506124cb565b508091505092915050565b60008054906101000a900473ffffffffffffffffffffffffffffffffffffffff1673ffffffffffffffffffffffffffffffffffffffff163373ffffffffffffffffffffffffffffffffffffffff161461263b576040517f08c379a00000000000000000000000000000000000000000000000000000000081526004016126329061378f565b60405180910390fd5b600654421161267f576040517f08c379a000000000000000000000000000000000000000000000000000000000815260040161267690613a03565b60405180910390fd5b6001600a60006101000a81548160ff021916908315150217905550565b60008054906101000a900473ffffffffffffffffffffffffffffffffffffffff1681565b60008054906101000a900473ffffffffffffffffffffffffffffffffffffffff1673ffffffffffffffffffffffffffffffffffffffff163373ffffffffffffffffffffffffffffffffffffffff161461274e576040517f08c379a00000000000000000000000000000000000000000000000000000000081526004016127459061378f565b60405180910390fd5b8060028190555050565b60085481565b600e6020528060005260406000206000915054906101000a900460ff1681565b60025481565b60606000612790612c9b565b67ffffffffffffffff8111156127a9576127a8613cd0565b5b6040519080825280602002602001820160405280156127d75781602001602082028036833780820191505090505b5090506000805b60098054905081101561292f5760011515600e6000600984815481106128075761280661381b565b5b9060005260206000200160009054906101000a900473ffffffffffffffffffffffffffffffffffffffff1673ffffffffffffffffffffffffffffffffffffffff1673ffffffffffffffffffffffffffffffffffffffff16815260200190815260200160002060009054906101000a900460ff1615150361291c57600981815481106128955761289461381b565b5b9060005260206000200160009054906101000a900473ffffffffffffffffffffffffffffffffffffffff168383815181106128d3576128d261381b565b5b602002602001019073ffffffffffffffffffffffffffffffffffffffff16908173ffffffffffffffffffffffffffffffffffffffff168152505081806129189061384a565b9250505b80806129279061384a565b9150506127de565b50819250505090565b60008054906101000a900473ffffffffffffffffffffffffffffffffffffffff1673ffffffffffffffffffffffffffffffffffffffff163373ffffffffffffffffffffffffffffffffffffffff16146129c6576040517f08c379a00000000000000000000000000000000000000000000000000000000081526004016129bd9061378f565b60405180910390fd5b600060028111156129da576129d9613345565b5b600c60008373ffffffffffffffffffffffffffffffffffffffff1673ffffffffffffffffffffffffffffffffffffffff16815260200190815260200160002060009054906101000a900460ff166002811115612a3957612a38613345565b5b14612a79576040517f08c379a0000000000000000000000000000000000000000000000000000000008152600401612a70906137fb565b60405180910390fd5b6002600c60008373ffffffffffffffffffffffffffffffffffffffff1673ffffffffffffffffffffffffffffffffffffffff16815260200190815260200160002060006101000a81548160ff02191690836002811115612adc57612adb613345565b5b02179055506000600e60008373ffffffffffffffffffffffffffffffffffffffff1673ffffffffffffffffffffffffffffffffffffffff16815260200190815260200160002060006101000a81548160ff0219169083151502179055508073ffffffffffffffffffffffffffffffffffffffff167fea4e312ba0c689a06d39183bdbe4da8a13f666c2cae20bfcc77a93cf86dada1260405160405180910390a250565b60008054906101000a900473ffffffffffffffffffffffffffffffffffffffff1673ffffffffffffffffffffffffffffffffffffffff163373ffffffffffffffffffffffffffffffffffffffff1614612c0d576040517f08c379a0000000000000000000000000000000000000000000000000000000008152600401612c049061378f565b60405180910390fd5b81600781905550806008819055505050565b600c6020528060005260406000206000915054906101000a900460ff1681565b6000600b60008373ffffffffffffffffffffffffffffffffffffffff1673ffffffffffffffffffffffffffffffffffffffff16815260200190815260200160002060009054906101000a900460ff169050919050565b60035481565b6000806000905060005b600980549050811015612d6457600e600060098381548110612cca57612cc961381b565b5b9060005260206000200160009054906101000a900473ffffffffffffffffffffffffffffffffffffffff1673ffffffffffffffffffffffffffffffffffffffff1673ffffffffffffffffffffffffffffffffffffffff16815260200190815260200160002060009054906101000a900460ff1615612d51578180612d4d9061384a565b9250505b8080612d5c9061384a565b915050612ca5565b508091505090565b600082825260208201905092915050565b7f53616c65206973206e6f74207374617274656420796574000000000000000000600082015250565b6000612db3601783612d6c565b9150612dbe82612d7d565b602082019050919050565b60006020820190508181036000830152612de281612da6565b9050919050565b7f53616c6520616c726561647920656e6465640000000000000000000000000000600082015250565b6000612e1f601283612d6c565b9150612e2a82612de9565b602082019050919050565b60006020820190508181036000830152612e4e81612e12565b9050919050565b7f41646472657373206e6f742077686974656c6973746564000000000000000000600082015250565b6000612e8b601783612d6c565b9150612e9682612e55565b602082019050919050565b60006020820190508181036000830152612eba81612e7e565b9050919050565b6000819050919050565b7f4e487b7100000000000000000000000000000000000000000000000000000000600052601260045260246000fd5b7f4e487b7100000000000000000000000000000000000000000000000000000000600052601160045260246000fd5b6000612f3482612ec1565b9150612f3f83612ec1565b925082612f4f57612f4e612ecb565b5b828204905092915050565b6000612f6582612ec1565b9150612f7083612ec1565b9250828202612f7e81612ec1565b91508282048414831517612f9557612f94612efa565b5b5092915050565b600080fd5b600080fd5b600073ffffffffffffffffffffffffffffffffffffffff82169050919050565b6000612fd182612fa6565b9050919050565b612fe181612fc6565b8114612fec57600080fd5b50565b600081359050612ffe81612fd8565b92915050565b60006020828403121561301a57613019612f9c565b5b600061302884828501612fef565b91505092915050565b60008115159050919050565b61304681613031565b811461305157600080fd5b50565b6000813590506130638161303d565b92915050565b60006020828403121561307f5761307e612f9c565b5b600061308d84828501613054565b91505092915050565b600080fd5b600080fd5b600080fd5b60008083601f8401126130bb576130ba613096565b5b8235905067ffffffffffffffff8111156130d8576130d761309b565b5b6020830191508360208202830111156130f4576130f36130a0565b5b9250929050565b6000806020838503121561311257613111612f9c565b5b600083013567ffffffffffffffff8111156131305761312f612fa1565b5b61313c858286016130a5565b92509250509250929050565b61315181612ec1565b811461315c57600080fd5b50565b60008135905061316e81613148565b92915050565b60006020828403121561318a57613189612f9c565b5b60006131988482850161315f565b91505092915050565b6131aa81612fc6565b82525050565b60006020820190506131c560008301846131a1565b92915050565b6131d481612ec1565b82525050565b60006020820190506131ef60008301846131cb565b92915050565b6131fe81613031565b82525050565b600060208201905061321960008301846131f5565b92915050565b6000806040838503121561323657613235612f9c565b5b600061324485828601612fef565b92505060206132558582860161315f565b9150509250929050565b6000819050919050565b600061328461327f61327a84612fa6565b61325f565b612fa6565b9050919050565b600061329682613269565b9050919050565b60006132a88261328b565b9050919050565b6132b88161329d565b82525050565b60006020820190506132d360008301846132af565b92915050565b600080604083850312156132f0576132ef612f9c565b5b60006132fe8582860161315f565b925050602061330f8582860161315f565b9150509250929050565b600081519050919050565b600082825260208201905092915050565b6000819050602082019050919050565b7f4e487b7100000000000000000000000000000000000000000000000000000000600052602160045260246000fd5b6003811061338557613384613345565b5b50565b600081905061339682613374565b919050565b60006133a682613388565b9050919050565b6133b68161339b565b82525050565b60006133c883836133ad565b60208301905092915050565b6000602082019050919050565b60006133ec82613319565b6133f68185613324565b935061340183613335565b8060005b8381101561343257815161341988826133bc565b9750613424836133d4565b925050600181019050613405565b5085935050505092915050565b6000602082019050818103600083015261345981846133e1565b905092915050565b600061346c82612fa6565b9050919050565b61347c81613461565b82525050565b60006020820190506134976000830184613473565b92915050565b600081519050919050565b600082825260208201905092915050565b6000819050602082019050919050565b6134d281612fc6565b82525050565b60006134e483836134c9565b60208301905092915050565b6000602082019050919050565b60006135088261349d565b61351281856134a8565b935061351d836134b9565b8060005b8381101561354e57815161353588826134d8565b9750613540836134f0565b925050600181019050613521565b5085935050505092915050565b6000602082019050818103600083015261357581846134fd565b905092915050565b6135868161339b565b82525050565b60006020820190506135a1600083018461357d565b92915050565b7f496e76616c696420616d6f756e74206f66204574686572000000000000000000600082015250565b60006135dd601783612d6c565b91506135e8826135a7565b602082019050919050565b6000602082019050818103600083015261360c816135d0565b9050919050565b60008151905061362281613148565b92915050565b60006020828403121561363e5761363d612f9c565b5b600061364c84828501613613565b91505092915050565b600061366082612ec1565b915061366b83612ec1565b925082820190508082111561368357613682612efa565b5b92915050565b600060408201905061369e60008301856131a1565b6136ab60208301846131cb565b9392505050565b6000815190506136c18161303d565b92915050565b6000602082840312156136dd576136dc612f9c565b5b60006136eb848285016136b2565b91505092915050565b600060408201905061370960008301856131cb565b61371660208301846131a1565b9392505050565b7f4f6e6c79206f776e65722063616e2063616c6c20746869732066756e6374696f60008201527f6e00000000000000000000000000000000000000000000000000000000000000602082015250565b6000613779602183612d6c565b91506137848261371d565b604082019050919050565b600060208201905081810360008301526137a88161376c565b9050919050565b7f41646472657373206973206e6f7420696e2070656e64696e67206c6973740000600082015250565b60006137e5601e83612d6c565b91506137f0826137af565b602082019050919050565b60006020820190508181036000830152613814816137d8565b9050919050565b7f4e487b7100000000000000000000000000000000000000000000000000000000600052603260045260246000fd5b600061385582612ec1565b91507fffffffffffffffffffffffffffffffffffffffffffffffffffffffffffffffff820361388757613886612efa565b5b600182019050919050565b600061389d8261328b565b9050919050565b6138ad81613892565b82525050565b60006040820190506138c860008301856138a4565b6138d560208301846131cb565b9392505050565b600081905092915050565b50565b60006138f76000836138dc565b9150613902826138e7565b600082019050919050565b6000613918826138ea565b9150819050919050565b7f4661696c656420746f2073656e64204574686572000000000000000000000000600082015250565b6000613958601483612d6c565b915061396382613922565b602082019050919050565b600060208201905081810360008301526139878161394b565b9050919050565b60006040820190506139a360008301856131cb565b6139b060208301846131cb565b9392505050565b7f53616c65206973206e6f7420656e646564207965740000000000000000000000600082015250565b60006139ed601583612d6c565b91506139f8826139b7565b602082019050919050565b60006020820190508181036000830152613a1c816139e0565b9050919050565b7f526566756e64206973206e6f7420656e61626c65640000000000000000000000600082015250565b6000613a59601583612d6c565b9150613a6482613a23565b602082019050919050565b60006020820190508181036000830152613a8881613a4c565b9050919050565b7f596f752068617665206e6f742070757263686173656420616e7920746f6b656e60008201527f7300000000000000000000000000000000000000000000000000000000000000602082015250565b6000613aeb602183612d6c565b9150613af682613a8f565b604082019050919050565b60006020820190508181036000830152613b1a81613ade565b9050919050565b6000613b2c82612ec1565b9150613b3783612ec1565b9250828203905081811115613b4f57613b4e612efa565b5b92915050565b6000606082019050613b6a60008301866131a1565b613b7760208301856131a1565b613b8460408301846131cb565b949350505050565b7f496e73756666696369656e742062616c616e6365000000000000000000000000600082015250565b6000613bc2601483612d6c565b9150613bcd82613b8c565b602082019050919050565b60006020820190508181036000830152613bf181613bb5565b9050919050565b7f42616c616e6365206973207a65726f0000000000000000000000000000000000600082015250565b6000613c2e600f83612d6c565b9150613c3982613bf8565b602082019050919050565b60006020820190508181036000830152613c5d81613c21565b9050919050565b7f596f75206861766520616c726561647920726571756573746564000000000000600082015250565b6000613c9a601a83612d6c565b9150613ca582613c64565b602082019050919050565b60006020820190508181036000830152613cc981613c8d565b9050919050565b7f4e487b7100000000000000000000000000000000000000000000000000000000600052604160045260246000fdfea26469706673582212207ce167abac9805c2c8d35b8d4b67bce4b0a674a31169d188318348212ce43a0264736f6c63430008120033",
  "linkReferences": {},
  "deployedLinkReferences": {}
}